:1080000058100120DDCD000097810100C9CD00008E
:10801000C9CD0000C9CD0000C9CD0000C9CD000008
:10802000000000000000000000000000D1CF0000B0
:10803000C9CD00000000000055CF0000C9CD0000F0
:10804000DDD10000DDD10000DDD10000DDD1000078
:10805000DDD10000DDD10000DDD10000DDD1000068
:10806000DDD10000DDD10000DDD10000DDD1000058
:10807000DDD10000DDD10000DDD10000DDD1000048
:10808000DDD10000DDD10000DDD10000DDD1000038
:10809000DDD10000DDD10000DDD10000DDD1000028
:1080A000DDD10000DDD10000DDD10000DDD1000018
:1080B000DDD10000DDD10000DDD10000DDD1000008
:1080C000DDD10000DDD10000DDD10000DDD10000F8
:1080D000DDD10000DDD10000DDD10000DDD10000E8
:1080E000DDD10000DDD10000DDD10000DDD10000D8
:1080F000DDD10000DDD10000DDD10000DDD10000C8
:10810000DDD10000DDD10000DDD10000DDD10000B7
:10811000DDD10000DDD10000DDD10000DDD10000A7
:10812000DDD10000DDD10000DDD10000DDD1000097
:10813000DDD10000DDD10000DDD10000DDD1000087
:04814000DDD100008D
:1081480081F0004102E000BF83F0004330B54FEA00
:1081580041044FEA430594EA050F08BF90EA020F6D
:108168001FBF54EA000C55EA020C7FEA645C7FEA00
:10817800655C00F0E2804FEA5454D4EB5555B8BF23
:108188006D420CDD2C4480EA020281EA030382EA94
:10819800000083EA010180EA020281EA0303362D26
:1081A80088BF30BD11F0004F4FEA01314FF4801CF9
:1081B8004CEA113102D0404261EB410113F0004F0B
:1081C8004FEA03334CEA133302D0524263EB4303C2
:1081D80094EA050F00F0A780A4F10104D5F1200E60
:1081E8000DDB02FA0EFC22FA05F2801841F10001BB
:1081F80003FA0EF2801843FA05F359410EE0A5F18F
:1082080020050EF1200E012A03FA0EFC28BF4CF0BF
:10821800020C43FA05F3C01851EBE37101F0004575
:1082280007D54FF0000EDCF1000C7EEB00006EEB82
:108238000101B1F5801F1BD3B1F5001F0CD349080C
:108248005FEA30004FEA3C0C04F101044FEA445263
:1082580012F5800F80F09A80BCF1004F08BF5FEAEA
:10826800500C50F1000041EB045141EA050130BDCA
:108278005FEA4C0C404141EB0101013C28BFB1F5DC
:10828800801FE9D291F0000F04BF01460020B1FA27
:1082980081F308BF2033A3F10B03B3F120020CDAFA
:1082A8000C3208DD02F1140CC2F10C0201FA0CF0D8
:1082B80021FA02F10CE002F11402D8BFC2F1200C3D
:1082C80001FA02F120FA0CFCDCBF41EA0C019040F3
:1082D800E41AA2BF01EB0451294330BD6FEA04043C
:1082E8001F3C1CDA0C340EDC04F11404C4F1200227
:1082F80020FA04F001FA02F340EA030021FA04F339
:1083080045EA030130BDC4F10C04C4F1200220FA8F
:1083180002F001FA04F340EA0300294630BD21FACD
:1083280004F0294630BD94F0000F83F4801306BF93
:1083380081F480110134013D4EE77FEA645C18BF87
:108348007FEA655C29D094EA050F08BF90EA020F1E
:1083580005D054EA000C04BF1946104630BD91EA16
:10836800030F1EBF0021002030BD5FEA545C05D119
:108378004000494128BF41F0004130BD14F5800458
:108388003CBF01F5801130BD01F0004545F0FE41CC
:1083980041F470014FF0000030BD7FEA645C1ABF01
:1083A800194610467FEA655C1CBF0B46024650EA38
:1083B800013406BF52EA033591EA030F41F4002164
:1083C80030BD00BF90F0000F04BF0021704730B5EA
:1083D8004FF4806404F132044FF000054FF00001BF
:1083E80050E700BF90F0000F04BF0021704730B580
:1083F8004FF4806404F1320410F0004548BF404255
:108408004FF000013EE700BF42004FEAE2014FEAA9
:1084180031014FEA02701FBF12F07F4393F07F4F84
:1084280081F06051704732F07F4208BF704793F087
:108438007F4F04BF41F40021704730B54FF460749A
:1084480001F0004521F000411CE700BF50EA01029D
:1084580008BF704730B54FF000050AE050EA010246
:1084680008BF704730B511F0004502D5404261EBB6
:1084780041014FF4806404F132045FEA915C3FF4F7
:10848800D8AE4FF003025FEADC0C18BF03325FEA94
:10849800DC0C18BF033202EBDC02C2F1200300FA45
:1084A80003FC20FA02F001FA03FE40EA0E0021FA6A
:1084B80002F11444BDE600BF70B54FF0FF0C4CF458
:1084C800E06C1CEA11541DBF1CEA135594EA0C0F0A
:1084D80095EA0C0F00F0DEF82C4481EA030621EA45
:1084E8004C5123EA4C5350EA013518BF52EA033580
:1084F80041F4801143F4801338D0A0FB02CE4FF032
:108508000005E1FB02E506F00042E0FB03E54FF061
:108518000006E1FB03569CF0000F18BF4EF0010E59
:10852800A4F1FF04B6F5007F64F5407404D25FEA55
:108538004E0E6D4146EB060642EAC62141EA555108
:108548004FEAC52040EA5E504FEACE2EB4F1FD0C4A
:1085580088BFBCF5E06F1ED8BEF1004F08BF5FEAC8
:10856800500E50F1000041EB045170BD06F000467A
:1085780046EA010140EA020081EA0301B4EB5C0427
:10858800C2BFD4EB0C0541EA045170BD41F480111F
:108598004FF0000E013C00F3AB8014F1360FDEBF44
:1085A800002001F0004170BDC4F10004203C35DA20
:1085B8000C341BDC04F11404C4F1200500FA05F3A3
:1085C80020FA04F001FA05F240EA020001F0004244
:1085D80021F0004110EBD37021FA04F642EB0601BA
:1085E8005EEA430E08BF20EAD37070BDC4F10C04E4
:1085F800C4F1200500FA04F320FA05F001FA04F2A8
:1086080040EA020001F0004110EBD37041F1000193
:108618005EEA430E08BF20EAD37070BDC4F120059E
:1086280000FA05F24EEA020E20FA04F301FA05F206
:1086380043EA020321FA04F001F0004121FA04F2AE
:1086480020EA020000EBD3705EEA430E08BF20EA7E
:10865800D37070BD94F0000F0FD101F000464000B8
:1086680041EB010111F4801F08BF013CF7D041EA3A
:10867800060195F0000F18BF704703F0004652003E
:1086880043EB030313F4801F08BF013DF7D043EA0F
:108698000603704794EA0C0F0CEA135518BF95EAC5
:1086A8000C0F0CD050EA410618BF52EA4306D1D14C
:1086B80081EA030101F000414FF0000070BD50EA6B
:1086C800410606BF1046194652EA430619D094EAF5
:1086D8000C0F02D150EA013613D195EA0C0F05D1DF
:1086E80052EA03361CBF104619460AD181EA030133
:1086F80001F0004141F0FE4141F470014FF00000EB
:1087080070BD41F0FE4141F4780170BD70B54FF085
:10871800FF0C4CF4E06C1CEA11541DBF1CEA135505
:1087280094EA0C0F95EA0C0F00F0A7F8A4EB0504E7
:1087380081EA030E52EA03354FEA013100F08880DE
:108748004FEA03334FF0805545EA131343EA1263A7
:108758004FEA022245EA111545EA10654FEA00265C
:108768000EF000419D4208BF964244F1FD0404F515
:10877800407402D25B084FEA3202B61A65EB030571
:108788005B084FEA32024FF480104FF4002CB6EB2E
:10879800020E75EB030E22BFB61A754640EA0C00AE
:1087A8005B084FEA3202B6EB020E75EB030E22BFEE
:1087B800B61A754640EA5C005B084FEA3202B6EB2F
:1087C800020E75EB030E22BFB61A754640EA9C00EE
:1087D8005B084FEA3202B6EB020E75EB030E22BFBE
:1087E800B61A754640EADC0055EA060E18D04FEA7C
:1087F800051545EA16754FEA06164FEAC30343EA1C
:1088080052734FEAC2025FEA1C1CC0D111F4801FE8
:108818000BD141EA00014FF000004FF0004CB6E7E1
:1088280011F4801F04BF01430020B4F1FD0C88BF80
:10883800BCF5E06F3FF6AFAEB5EB030C04BFB6EB8B
:10884800020C5FEA500C50F1000041EB045170BD7E
:108858000EF0004E4EEA113114EB5C04C2BFD4EBAB
:108868000C0541EA045170BD41F480114FF0000E2F
:10887800013C90E645EA060E8DE60CEA135594EAAB
:108888000C0F08BF95EA0C0F3FF43BAF94EA0C0FAE
:108898000AD150EA01347FF434AF95EA0C0F7FF423
:1088A80025AF104619462CE795EA0C0F06D152EA77
:1088B80003353FF4FDAE1046194622E750EA41065B
:1088C80018BF52EA43067FF4C5AE50EA41047FF46C
:1088D8000DAF52EA43057FF4EBAE12E74FF0FF3CD1
:1088E80006E000BF4FF0010C02E000BF4FF0010CA2
:1088F8004DF804CD4FEA410C7FEA6C5C4FEA430C1B
:1089080018BF7FEA6C5C1BD001B050EA410C0CBF69
:1089180052EA430C91EA030F02BF90EA020F0020CB
:10892800704710F1000F91EA030F58BF994208BF32
:1089380090422CBFD8176FEAE37040F001007047EF
:108948004FEA410C7FEA6C5C02D150EA013C07D146
:108958004FEA430C7FEA6C5CD6D152EA033CD3D091
:108968005DF8040B704700BF8446104662468C468B
:108978001946634600E000BF01B5FFF7B7FF0028BE
:1089880048BF10F1000F01BD4DF808EDFFF7F4FFE7
:108998000CBF012000205DF808FB00BF4DF808ED72
:1089A800FFF7EAFF34BF012000205DF808FB00BF95
:1089B8004DF808EDFFF7E0FF94BF012000205DF8B7
:1089C80008FB00BF4DF808EDFFF7CEFF94BF01206C
:1089D80000205DF808FB00BF4DF808EDFFF7C4FF65
:1089E80034BF012000205DF808FB00BF4FEA410CAE
:1089F8007FEA6C5C02D150EA013C0AD14FEA430C91
:108A08007FEA6C5C02D152EA033C02D14FF00000CD
:108A180070474FF0010070474FEA410212F500120B
:108A280015D211D56FF47873B3EB625212D94FEAAD
:108A3800C12343F0004343EA505311F0004F23FA97
:108A480002F018BF404270474FF00000704750EAEC
:108A5800013005D111F0004008BF6FF000407047A9
:108A68004FF00000704700BF4FEA4102B2F1E04307
:108A780024BFB3F5001CDCF1FE5C0DD901F0004CFD
:108A88004FEAC0024CEA5070B2F1004F40EB83004D
:108A980008BF20F00100704711F0804F21D113F179
:108AA8003872BCBF01F00040704741F480114FEAB2
:108AB8005252C2F11802C2F1200C10FA0CF320FA3B
:108AC80002F018BF40F001004FEAC1234FEAD32358
:108AD80003FA0CFC40EA0C0023FA02F34FEA4303C2
:108AE800CCE77FEA625307D150EA01331EBF4FF04B
:108AF800FE4040F44000704701F0004040F0FE4066
:108B080040F40000704700BF7BB972B90029BEBFAE
:108B180000204FF0004106E008BF00281CBF6FF09E
:108B280000414FF0FF3000F057B8ADF1080C6DE987
:108B380004CE002909DB002B1ADB00F061F8DDF810
:108B480004E0DDE9022304B07047404261EB4101D3
:108B5800002B1BDB00F054F8DDF804E0DDE902230C
:108B680004B0404261EB4101524263EB430370475A
:108B7800524263EB430300F043F8DDF804E0DDE91B
:108B8800022304B0404261EB41017047524263EB5B
:108B9800430300F035F8DDF804E0DDE9022304B012
:108BA800524263EB4303704753B94AB9002908BFDF
:108BB80000281CBF4FF0FF314FF0FF3000F00CB819
:108BC800ADF1080C6DE904CE00F01AF8DDF804E008
:108BD800DDE9022304B07047704700BF10F8012B8D
:108BE80011F8013B012A28BF9A42F7D0D01A7047E2
:108BF800034613F8012B002AFBD1181A01387047D5
:108C08002DE9F04786468C460846089E1546744668
:108C18001946002B40F0C1808542B2FA82F245D94C
:108C28004AB1C2F1200300FA02FC954094402EFAA2
:108C380003F343EA0C0C4FEA154EA8B2230CBCFB15
:108C4800FEF80EFB18CC08FB00F943EA0C439945E3
:108C580028D9EB1808F1FF3704D2994502D9A8F1B1
:108C680002072B44A3EB0903A4B2B3FBFEFC0EFBE3
:108C78001C330CFB00F044EA0344A04214D92C191D
:108C88000CF1FF3304D2A04202D9ACF102032C4408
:108C9800241A43EA07401EB1D440002334607360AD
:108CA800BDE8F0874746DDE76346F1E792BB431B23
:108CB80001214FEA154EAFB2200CB3FBFEFC0EFBB0
:108CC8001C330CFB07F840EA0343984561D9EB18BD
:108CD8000CF1FF3004D2984502D9ACF102002B44C4
:108CE800A3EB0803A4B2B3FBFEFC0EFB1C330CFB86
:108CF80007F744EA0344A7424DD92C190CF1FF3376
:108D080004D2A74202D9ACF102032C44E41B43EA83
:108D18000040C0E7C2F120039540944020FA03F1D7
:108D28002EFA03F34FEA154E9040AFB20343B1FB5E
:108D3800FEFC0EFB1C10190C0CFB07F841EA004165
:108D4800884522D969180CF1FF3004D2884502D928
:108D5800ACF102002944A1EB08019BB2B1FBFEFC77
:108D68000EFB1C110CFB07F743EA01439F420ED987
:108D7800EB180CF1FF3104D29F4202D9ACF1020189
:108D88002B44DB1B41EA004193E76046E3E7614679
:108D9800F7E76046A4E76346B8E7834206D916B901
:108DA800002108467CE7C6E900E0F9E7B3FA83F753
:108DB8008FB9834201D3724508D8BEEB020460EB39
:108DC800030301209C461EB9002169E73846FAE7EB
:108DD800C6E9004CF8E7C7F1200CBB400EFA07F5CE
:108DE80022FA0CF42EFA0CF1BA401C4320FA0CF3C8
:108DF800B8404FEA144901431FFA84FEB3FBF9F85F
:108E080009FB18300B0C08FB0EFA43EA00439A459D
:108E180040D9E31808F1FF3004D29A4502D9A8F1E5
:108E280002002344A3EB0A0389B2B3FBF9F809FB58
:108E3800183308FB0EFE41EA03418E452CD9611810
:108E480008F1FF3304D28E4502D9A8F10203214468
:108E580043EA0040A1EB0E01A0FB02984145CE4633
:108E6800434602D306D14D4504D20138B9EB020E70
:108E780068EB0403002EA7D0B5EB0E0261EB0301EB
:108E880001FA0CFC22FA07F3F9404CEA0303C6E99D
:108E9800003199E74046C5E74346D9E7000000009E
:108EA8002DE9F04F824617461C4600259FB00391D6
:108EB800387810B9284600F0A9BD252809D00399AB
:108EC800D0470028C0F2A2857B1C01350593059F79
:108ED800EEE71822002110A812F04CF87B78252B19
:108EE80000F0BC80002398469E469C461846791C94
:108EF8000E4611F8012B2B2A00F0E38000F2DA80ED
:108F0800202A00F0E180232A00F0E1802BB19DF8AF
:108F1800483043F040038DF84830B8F1000F05D0D1
:108F28009DF8483043F020038DF84830BEF1000F1B
:108F380005D09DF8483043F010038DF84830BCF157
:108F4800000F05D09DF8483043F008038DF84830ED
:108F580028B19DF8483043F004038DF848309DF857
:108F6800483003F04401442903D16FF386138DF888
:108F780048309DF848302A2A43F080030E968DF831
:108F8800483040F0A9809DF8493043F001038DF83E
:108F98004930731C1A782E2A0CBF012100219DF834
:108FA800492061F341028DF849200CD15A1C0E92D8
:108FB8005A782A2A40F0A0809DF84920023342F0CE
:108FC80004028DF849201A786C2A00F0C18000F25A
:108FD800A380682A00F0A9806A2A00F0C2804C2A7F
:108FE80000F0C78013F8012B782A05938DF84B20E1
:108FF80000F209816D2A00F2C980692A00F2038112
:10900800572A00F2E280412A04D0A2F14503022B3C
:1090180000F2F98004219DF84A3002F0DF02A2F143
:10902800410961F30203D9F100029DF8491042EBAE
:10903800090262F3C7110A068DF84A308DF8491003
:10904800CBB200F11F8103F07802182A40F00981A1
:109058006FF3C6038DF849300023F8E08DF84B30E4
:10906800BB1C05939DF849309DF84A20DE0702F0A5
:10907800070040F1098154F8041B0029049108DA1B
:109088009DF8481041F004018DF8481004994942B0
:109098000491590740F1008154F8046B002E80F2C6
:1090A800FF809DF849306FF341038DF849304FF048
:1090B800FF36F5E02D2A0DD0302A7FF427AF0123A3
:1090C80016E74FF0010C13E74FF0010E10E74FF0D1
:1090D80001080DE701200BE70EA802F0C5FC0E9B66
:1090E800B3423FF457AF9DF848201390C00F60F388
:1090F80041028DF848204DE70EA802F0B5FC9DF816
:1091080048301490C3F3400242EAD07262F341033C
:109118008DF848300E9B56E7742A26D07A2A7FF4B9
:1091280061AF06219DF849200CE05A78682A9DF81D
:10913800492006D1012161F3C6028DF84920023386
:1091480050E7022161F3C6028DF84920013349E74F
:109158005A786C2A9DF8492001D10421EBE70321B4
:10916800F0E705219DF84920ECE707219DF8492003
:10917800E8E7BDF8482022F4F04222F0020242F467
:10918800804242F00202ADF84820DFE76E3AD3B2DF
:1091980001229A4040F282431A429DF8493039D15F
:1091A80012F0240F61D1D1072DD503219DF84A2053
:1091B80003F07803A3F1400861F30202D8F1000339
:1091C8008DF84A2043EB080341E00120A2F1580141
:1091D800C9B200FA01F111F4624F7FF41BAF40F6F7
:1091E800010319429DF849301AD111F4043F0AD0FD
:1091F8009DF84A2060F3020203F07803402B8DF8B3
:109208004A207FF429AF9DF8483043F001038DF8D8
:10921800483021E702219DF84A2061F30202EBE77A
:1092280002209DF84A1003F0780360F30201402BF6
:109238008DF84A1002BF9DF8481041F001018DF8E1
:109248004810632A7FF408AF003B18BF01239DF83C
:109258004820C2F340010B4363F341028DF84820D4
:1092680000E713F0380FCED1F6E603219DF84A2027
:1092780013F0780F61F3020214BF012300238DF865
:109288004A20E4E70123E2E79DF948100029ACBF32
:109298004FF0FF311399FBE69E077FF508AF149E48
:1092A80000230428CDE913339DF8493007D19907E5
:1092B80005D49DF949100029ACBF06260D2602F0F9
:1092C8000702012AC3F3C30332D1DA1E042A04D8E1
:1092D800DFE802F02045452020002268012B4FEAF4
:1092E800E271CDE910211BD19DF94020D117CDE9BC
:1092F800102104349DF84820069292074FD03A4630
:109308005046059B03990EF075FA0028C0F27E833B
:109318000544DCE554F8042BD117CDE91021E9E721
:10932800022BE6D111B242F3C032CDE91012E0E7C8
:10933800022A24D1DA1E042A04D8DFE802F0181021
:1093480010181800012B4FF0000154F8042B14D00A
:10935800022BCDE91021CDD192B21092CAE7073481
:1093680024F00704F4E80201CDE91001C2E754F83B
:10937800042B109200221192BCE7D2B2CDE7042A46
:1093880008D1073424F00704D4E900010834CDE9F2
:109398001001AFE7032AADD154F8042BDDE79DF89F
:1093A8004B80B8F1780F3FF692ADB8F1570F5CD803
:1093B800B8F1250F00F0A480B8F1240F7FF687AD2F
:1093C800B8F1410F04D0A8F14503022B3FF67FAD59
:1093D800DDE91023002BC0F24D810699080700F142
:1093E8004C81C1F300194FEA4919C3F30A51C3F379
:1093F8001303002940F0448152EA030014BF4FF0E0
:10940800010C4FF0000CD80240EA5250D702CDE9C7
:109418000C70B8F1460F47EA010740EAE17008BF4F
:109428004FF06608384300F0B781BCF1000F10D048
:109438001B0343EA125317033A4618464FF0000C31
:10944800002880F25681BCF1000F40F05981CDE927
:109458000C730D9BA1F2FE3B43F000430D930021DA
:10946800DDE90C230F46052060E1A8F15802202A07
:109478003FF62DAD01A151F822F000BF4F96000034
:10948800D78E0000D78E0000D78E0000D78E000040
:10949800D78E0000D78E0000D78E0000D78E000030
:1094A800D9930000D78E0000FB9500000F960000AE
:1094B800D9930000D9930000D9930000D78E0000FB
:1094C8000F960000D78E0000D78E0000D78E0000C0
:1094D800D78E0000559600004F9600009F9500001B
:1094E800D78E0000D78E000019950000D78E000097
:1094F8004F960000D78E0000D78E00004F960000D0
:1095080040460399D0470028C0F280820135DEE446
:10951800002E109F3BDB3146384611F0A9FE002F84
:109528003FF4D5AC4FF000093E18F31B9DF84A20D4
:1095380012F01001069100F05E82023312F0400230
:10954800DDF84C80089218BF149A434418BF9B1842
:10955800049ACDF81C80002A40F36882D31A9DF83B
:10956800482004935007C2F3800B00F15F82510634
:1095780040F14F82B9F1000F07D048460399D04710
:109588000028C0F24382D9460135302242E23846EB
:10959800FFF72EFBC6E71098002800F027820DF190
:1095A80075030093002117AB12AA02F073FA4FF06B
:1095B80000090746BDF84A3003F0EF0343F4F043CF
:1095C80043F01003ADF84A30002E0CDB9DF848201C
:1095D8000DF17503DB1B6FF386129E428DF8482050
:1095E80001D9F31A1393002F3FF471AC0DF17506EE
:1095F8006DE0109B4FF000098DF85C300DF15D06B1
:10960800012317AF92E7069B1F0754BFC3F3001946
:109618004FF02B09DDE9102358BF4FEA4919002BF9
:1096280006DA4FF02D09524263EB4303CDE91023CC
:10963800DDE910010DF17503009312AA17AB02F0D2
:1096480029FA0746C0E74FF00009F1E7109A072BFF
:109658003FF63DACDFE803F00C04060C08080C0CE0
:10966800157034E4158032E4EB17C2E900532EE498
:1096780015602CE44FF02D09B7E64FF02B09B4E63E
:1096880040F2FF70814231D1A34908F101085FFA25
:1096980088F811F80810134301F003011ED10129BD
:1096A8000BBF492369234E216E210CBF4622662237
:1096B8008DF85C309DF848308DF85D106FF3861397
:1096C8008DF85E208DF848300DF15F0617AFF31B5B
:1096D800B9F1000F3FF42AAF013327E7012915BF7D
:1096E8006E234E23612141211A46E1E74FF0000C19
:1096F80089E692184FF0010C01F1FF3140419FE6D5
:10970800CDE90C20A5E6520842EAC3725B08B3F122
:10971800333F59460BF1010BF5D201F1020B012140
:1097280000FB03FCA2FB0023013F63441BF1020F73
:10973800E9DB09B1CDE90C23DDE90C32BBF1000FFF
:109748002DDCCBF10401A1F120000BF11C0B02FA76
:109758000BFB22FA00F0CA40CB40079208F0DF0268
:1097680043EA0B03472A43EA00037BD1F91C01DBD8
:10977800BE422ADAA8F10208002E5FFA88F87ADDDC
:109788009DF84820013E920675D4B6F1000B18BF2B
:109798004FF0010B721C26E04FF0000B5FE602331E
:1097A80042F100020CA80BF1FF3B0137CDE90C3266
:1097B8000DF0F1FFDDE90C32DB185241002A0BF104
:1097C800FF3BF9DACDE90C32B6E79DF84820F61BE5
:1097D80090064DD4B6F1000B18BF4FF0010BF219EB
:1097E8004FF066084AD4102AA8BF10229FED487B84
:1097F80010208DED0E7B0B90DDE90E01002A3FD184
:10980800079A1B1842EB0101B1F1805F47D2CDE9FD
:109818000C31069BB8F1660F03F0200240F0C680B9
:10982800002F47DC30238DF85C30002A76D1002EDB
:1098380040F3BD812E238DF85D3087B17B42B34262
:10984800A8BF3346002B1393A6EB0306D4BF00230F
:1098580001239DF84A2063F345128DF84A200DF143
:109868005E0340E0B8F1660F4FF0000BB7D091E708
:109878004FF0000BB3E74FF0000B8BE70022B5E782
:10988800400840EAC1704908CDE90E010EA8CDE9AB
:1098980008230DF080FF089A099B013AACE75B08A2
:1098A80043EAC1730CA84908CDE90C3101370DF022
:1098B80072FFAEE717AB0B9900290BDD0BA90CA8BB
:1098C800CDE906320DF07FFF069B013F079A03F8AA
:1098D800010BF0D11397AAB9002E40F366812E210F
:1098E80003F8011B0027002E21DD0B9A002A1EDD3C
:1098F8000BA90CA806930DF066FF069B013E03F822
:10990800010BF0E72E2203F8012BEBE7AFF3008001
:109918000000000000000008F2E001002E238DF88E
:109928005D30002F9BD0002E88DC0DF15E03BBF16B
:10993800000F4FD114961E4608F0DF03452B24D1A3
:10994800002FBABF7F422D232B23632FC8BF642269
:109958007370C4BFB7FBF2F302FB13774FF00A0230
:10996800C8BF03F13001B7FBF2F3C8BFB17003F110
:10997800300102FB137386F8008003F13003D4BF73
:1099880002360336317073700236139B002B2BDCC2
:10999800149B002BD4BF002301239DF84A2063F3B6
:1099A800861200238DF84A2033708FE60BA90CA885
:1099B80006920DF008FF069A30288DF85C0018BF53
:1099C80007F1FF3712B9002E40F3F1802E238DF8EE
:1099D8005D3044E71E4616F8012C013B302AF9D0C9
:1099E8002E2A08BF1E46A7E70123D6E7714E8146F7
:1099F8000523771F9AE5110748BF01339EE51046F6
:109A080009920399D0470028099A05DA1FB0BDE8E2
:109A1800F08F2022DDF810B0594600290BF1FF3BEA
:109A2800EDDC049BCDF810B02B445D1AB9F1000FA2
:109A380005D048460399D0470028E7DB0135089B45
:109A4800002B77D09DF94930002B28DB3B46DFF807
:109A5800689118789B4619F80020013352073FD4C3
:109A68009DF84A30EF1B98065F4407D44246002A07
:109A780008F1FF383BDC079B3B449F1A9BF800002A
:109A88002E280AD10399D0470028BFDBB8F1000F70
:109A980007F1010731DC0BF1010B5D4638E0B946EF
:109AA80099F80000C846702809F1010913D1EF1B85
:109AB800149D47443D44EB1B002B33DC33464246A0
:109AC800504603990DF096FE00289FDB3844049E0B
:109AD8000546064464E00399D0470028E0DA95E794
:109AE80006930399D0470028069BB2DA8EE7302008
:109AF8000399D0470028B9DA88E730200399D0477E
:109B080008F1FF38C0E70399D0470028FFF67EAF79
:109B18002878A84619F8003001355907F3D4A7EB7F
:109B28000B07C5E730200399D0470028FFF66EAF32
:109B38000137C0E79DF84A30DA0601D41B0706D57D
:109B480030200399D0470028FFF660AF0135069B07
:109B58003BB103999DF84B00D0470028FFF656AF5C
:109B68000135A84406E030200399D0470028FFF6C5
:109B78004DAF0135A8EB0503002BF4DC33463A461C
:109B8800504603990DF036FE0028FFF63FAF2844F3
:109B98009DE720200399D0470028FFF637AF01350D
:109BA800731B002BF5DCFFF792B91746BFE60DF1E2
:109BB8005D03BCE634CC0100F3E0010000000000C6
:109BC8002DE9F0412DED028B1F4605238AB00C4686
:109BD800014605A89046029305F096FC012101AACA
:109BE80005A80FF037FA054658B101210346404A47
:109BF80040480EF0FDF928460AB0BDEC028BBDE8DE
:109C0800F081019BB3B1042B1DD0052B0CBF092398
:109C1800FF232370032102AB03AA05A80FF01DFA46
:109C2800064690B10346344A012132480EF0E0F965
:109C38003546E0E7DFED317A0023C4ED017A237081
:109C4800C4ED027AD7E70723E3E7029B002BF1D0A4
:109C580003A9404611F0DFFA0222314603A80BF0AF
:109C6800CFFF2378C0B2092B1ED0072B22D19FED3E
:109C7800248A244B33F81000F8B1FEF7B3FB1AA37B
:109C8800D3E90023FEF718FCFEF7EEFE052360601B
:109C98000293042102AB03AA05A80FF0DEF90646D9
:109CA80068B1194A0346BFE79FED188A184B33F885
:109CB8001000E1E79FED128AF8E71648E6E703A9E6
:109CC800384611F0A8FA0222314603A80BF098FF93
:109CD800421C02F0FF0307EE903AF8EEE77A67EECF
:109CE800887AADE7AFF300807B14AE47E17A244071
:109CF80059DB0100F8BD01007BDB0100000000001A
:109D08000AD7A33F40C60100A7DB01000AD72340BA
:109D180020C601000AD7A3402DE9F04F476A97B043
:109D28008346209E08910C92129355EC104B8DEDB2
:109D3800000B7FB910200BF02BF80246CBF824005B
:109D480020B9A74BEA21A7480CF004F9C0E901772C
:109D58000760C760DBF82430196859B15A680123D5
:109D6800584693404A608B600CF09EFADBF824302A
:109D780000221A602B1EB7BF23F0004300230122E4
:109D88000193A8BF3360019F974BB8BF3260BB43B4
:109D980019D142F20F73129A1360C7F313032343C6
:109DA80000F0DB85219B53B9904B21E0904B039346
:109DB8000833219A1360039817B0BDE8F08F8B4BD6
:109DC80003930333F5E79DED007B0022002351EC5C
:109DD800170B8DED0A7BFEF7D7FD804650B10123A6
:109DE800129A1360219B13B1824B219A1360824B04
:109DF8000393E0E7C7F30A5614AA15A958469DED40
:109E08000A0B0CF0D9FC0290002E76D00B9BA6F220
:109E1800FF36CDF84C80C3F3130343F07F53DDE9DD
:109E28000A0143F4401319460022744BFEF78CF9DB
:109E380065A3D3E90023FEF73FFB65A3D3E900231D
:109E4800FEF784F904460D463046FEF7CBFA62A3C6
:109E5800D3E90023FEF730FB02460B46204629468D
:109E6800FEF774F904460D46FEF7D6FD00220746B4
:109E7800002320462946FEF791FD40B13846FEF7FB
:109E8800B1FA22462B46FEF77FFD00B9013F162F97
:109E980052D85B4B03EBC703DDE90A01D3E9002382
:109EA800FEF77CFD002849D0013F00231193149B45
:109EB8009B1B5A1E4CBFC3F101030023079245BFE9
:109EC8000693002306930793002F39DB079B10970F
:109ED8003B44079300230993089B092B66D8052B5D
:109EE800C5BF043B002401240893089B023B032BB5
:109EF80067D8DFE803F02D3A3859DDE914631E44CA
:109F080006F23243202BC9BFC3F14003C3F120033B
:109F18009F4006F21243D8BF04FA03F006F1FF3659
:109F2800C4BF24FA03F347EA0300FEF74BFA012201
:109F3800A1F1F873139276E70123B7E71190B6E71A
:109F4800069BDB1B06937B42099300231093C3E710
:109F580000230D930C9B002B56DC012399461A46CF
:109F680004930C920CE00123F3E700230D930C9B60
:109F7800FB1803F1010904934B46012BB8BF0123D9
:109F8800DBF824000021042202F114059D423FD988
:109F9800416058460CF048F9039000283BD1194B12
:109FA80002464FF4D571CEE60123DFE701240023F2
:109FB8000D9408934FF0FF3300229946049312231F
:109FC800CFE701230D93F5E761436F63A787D23F7E
:109FD800B3C8608B288AC63FFB799F501344D33F90
:109FE8007BE2010092E201000000F07F77E20100CD
:109FF8006EE20100F9DA0100F8DA01000000F83F2A
:10A0080000BF0100EEE201000C9B99460493B7E7FC
:10A0180001315200B8E7DBF82430B9F10E0F039A8A
:10A028001A606FD8002C6DD0002F36DD07F00F02B4
:10A03800A04BF8054FEA271403EBC20393ED007B0E
:10A048008DED0E7B17D59C4B04F00F044FF00308E1
:10A05800D3E90823DDE90A01FEF758FBCDE9000141
:10A06800954D5CB9DDE90E23DDE90001FEF74EFBF5
:10A07800CDE900012BE04FF00208F1E7E10709D52F
:10A0880008F10108DDE90E01D5E90023FEF714FA0D
:10A09800CDE90E0164100835E3E700F007817C4242
:10A0A800844B854D4FF0020804F00F02241103EB96
:10A0B800C203DDE90A01D3E90023FEF7FDF9002315
:10A0C800CDE90001002C40F0E580002BD0D1119B98
:10A0D800DDE90045002B00F04C810022774B20463B
:10A0E8002946FEF75BFC002800F04381B9F1000F18
:10A0F80000F03F81049B002B00F3E480DDE90A3483
:10A10800CDE90034159B002B02DB0E2F40F3428271
:10A118000D9A002A40F06782099C0025DDF8188016
:10A12800B8F1000F0DD0079B002B0ADD4345069AB6
:10A13800A8BF4346D21AA8EB03080692079AD31A77
:10A148000793099B0BB30D9B002B00F0A682002CF4
:10A1580000F0A1822946224658460CF0CFF9029A0F
:10A168000146054658460CF01FF90299064658461E
:10A178000CF09AF8099B1B1B099300F09182099A2D
:10A18800314658460CF0BAF90290012158460CF0B5
:10A19800F5F8109B0446002B00F084821A4601460D
:10A1A80058460CF0ABF9089B0446012B03DC009BD6
:10A1B800002B00F07C820026236904EB83031869D6
:10A1C80011F02BFAC0F120001096079B184410F0EC
:10A1D8001F0000F09182C0F12003042B40F381821C
:10A1E800C0F11C00069B034480440693079B03446C
:10A1F8000793069B002B05DD1A46029958460CF07A
:10A20800D7F90290079B002B05DD21461A465846D0
:10A218000CF0CEF90446119B002B00F07682214603
:10A22800029811F049FA002880F26F8200230A226E
:10A23800029958460CF05AF80D9B7E1E0290002B8E
:10A2480000F05C82002329460A2258460CF04EF89A
:10A25800049B0546002B03DC089B022B00F35E825F
:10A26800B8F1000F05DD2946424658460CF0A0F922
:10A278000546109B002B00F0D082696858460BF009
:10A28800D3FF0746002840F07F820D4B024640F27C
:10A29800EA2158E5E20706D508F10108D5E90023C7
:10A2A800FEF70AF90123641008350BE74FF002089E
:10A2B8000DE700BF00BF0100D8BE01000000F03F5D
:10A2C800EEE2010020460022AC4B2946FEF7F4F8E6
:10A2D8007E1E08F10108049CCDE900014046FEF706
:10A2E80081F8DDE90023FEF7E7F8A54B0022FDF72A
:10A2F8002DFFA1F15073CDE90E010F93002C3BD136
:10A308000022A04BDDE90001FDF71EFF02460B46C7
:10A31800CDE90023DDE90E23FEF75EFB002840F0BF
:10A328005781DDE90E2101F10043DDE90001FEF767
:10A3380035FB00283FF4E2AE002425460C9BDDF8EF
:10A348000CA0DE434FF00008214658460BF0ACFF46
:10A35800002D00F0A980B8F1000F05D0A84503D062
:10A36800414658460BF0A0FF294658460BF09CFF83
:10A378009AE03E464C46B1E7834B03EBC40353E9EE
:10A388000201039B1C440D9B002B4AD002460B463E
:10A3980000207E49FEF7BAF9DDE90E23FDF7D4FE69
:10A3A800DDF80CA0CDE90E01DDE90001FEF734FB74
:10A3B8000546FEF717F8024630350B46DDE9000181
:10A3C800FDF7C2FE0AF8015B02460B46CDE9000123
:10A3D800DDE90E01FEF700FB002865D100206C497D
:10A3E800DDE90023FDF7B0FE02460B46DDE90E016C
:10A3F800FEF7F2FA002840F00D81A24500F0EA804D
:10A4080000225E4BDDE90E01FEF756F800225B4B99
:10A41800CDE90E01DDE90001FEF74EF8CDE90001B6
:10A42800C2E7DDE90E23FEF747F8A046DDF80CA0E9
:10A43800CDE90E01DDE90001FEF7EEFA0546FDF76C
:10A44800D1FF024630350B46DDE90001FDF77CFE01
:10A458000AF8015B02460B46A245CDE900234FF0FE
:10A46800000223D1494BDDE90E01FDF76FFE0246DC
:10A478000B46DDE90001FEF7AFFA002840F0CA807C
:10A4880000204249DDE90E23FDF75EFE02460B4639
:10A49800DDE90001FEF782FA70B1C24608F1FF3823
:10A4A8001AF8013C302BF8D0374655E0334BFEF70D
:10A4B80003F8CDE90001BDE7DDE90A34CDE9003450
:10A4C800159B002BFFF628AE0E2F3FF725AE2E4B1F
:10A4D80003EBC70393ED007B0C9B002B8DED047BF6
:10A4E80002DAB9F1000F64D0DDF80CA0DDE900450F
:10A4F800DDE9042320462946FEF708F9FEF78CFA21
:10A508000646FDF76FFFDDE90423FDF7D5FF024698
:10A51800204606F130040B462946FDF715FE0AF8D9
:10A52800014B039C02460B46AAEB0404A14540F0EC
:10A538008280FDF70BFE04460D46DDE90423FEF795
:10A548004BFA002865D120462946DDE90423FEF7A9
:10A558001BFA08B1F3075CD4029958460BF0A4FE25
:10A56800002301378AF80030129B1F60219B002BC3
:10A578003FF421ACC3F800A01DE400BF0000244054
:10A5880000001C400000144000BF01000000E03F34
:10A598000000F03FA24B03EBC70393ED007B0C9B3D
:10A5A800002B8DED047B9FDAB9F1000F9CDC7FF462
:10A5B800C3AE00229B4BDDE90401FDF77DFFDDE919
:10A5C8000023FEF7FFF9044600287FF4B5AE3E46A7
:10A5D8002546B4E0DDE90A34CDE90034159B002BAB
:10A5E80001DB0E2FD6DD089A012A36DC139A82B3D6
:10A5F80003F23343099CDDF81880069A0121584676
:10A608001A440692079A1A4407920BF0B7FE0546B9
:10A6180086E53E4653469A4613F8012D392A06D157
:10A62800039A9A42F7D13022039901360A701A78B0
:10A6380001321A7038E700227B4BFDF73DFF0022FC
:10A64800002304460D46FEF79FF900283FF450AF5B
:10A6580082E7149BC3F13603CCE709F1FF34099B69
:10A66800A34208DBB9F1000FA3EB04040EDBDDF80D
:10A6780018804B46C1E7099B109AE31A0994DDF844
:10A68800188000241A444B461092B6E7069BA3EBA9
:10A6980009080023B1E7029E71E5099A029970E55D
:10A6A800029672E5089B012B17DC009BABB9019B56
:10A6B800C3F313039BB9019B23F00046360D3605FF
:10A6C80036B1069B012601330693079B0133079396
:10A6D800109B002B7FF470AD1096012075E50026C5
:10A6E800F6E73FF486AD1C33069A1A44984406925E
:10A6F800079A1A4407927CE50346F4E7049B002B6B
:10A708002BDC089B022B09DC27E0B9F1000F1DDCCC
:10A71800089B022B1ADD3E46CDF81090049B002BB7
:10A728007FF40CAE2146052258460BF0DFFD0146AA
:10A738000446029810F0C0FF00287FF7FFADDDF84F
:10A748000CA0312301360AF8013BFBE50D9B3E4680
:10A75800CDF81090002B7FF483AD039F214602981B
:10A7680010F0D7FD039B00F13009049A07F8019B0C
:10A77800FB1A9A4240F3CB8000230A2202995846DA
:10A788000BF0B4FD0290E9E72A6905F10C010C30E1
:10A798000232920010F0E1FB0122394658460BF0D4
:10A7A80007FF039BA846054603F1010ADDE90323D9
:10A7B80013440793009B03F0010309930AF1FF3345
:10A7C80021460298049310F0A4FD4146069000F13A
:10A7D8003009029810F070FF2A462146074658466D
:10A7E8000BF052FFC268014602B358460BF05CFDFD
:10A7F800002F3ADA0122029958460BF0D9FE214679
:10A80800029010F059FF002803DC29D119F0010F3C
:10A8180026D0B9F1390F1DD132E02846C1E700BF73
:10A8280000BF010000001440000024400A90029874
:10A8380010F042FF0A990C9058460BF035FD0C9A1F
:10A848005ABB089B53B9099B43B9B9F1390F17D0C3
:10A85800002F05DD069B03F1310901E0002F2ADAFC
:10A86800DDF810A00AF8019B6EE5089B3B4304D174
:10A87800009B03F00103002BBCD0B9F1390F36D18E
:10A88800049F392307F8013BBA46013F1AF8013CF7
:10A89800392B5AD001333B7056E5002F06DB089B55
:10A8A8003B4306D1009B03F0010313B9002AA1DC46
:10A8B800D6E7002AE1DC079B57460AF8019C534576
:10A8C8002ED000230A22029958460BF00FFDA84506
:10A8D80002904FF000034FF00A02414658460BD150
:10A8E8000BF004FD804605460AF1010A66E7DDF82B
:10A8F80010A009F10109B5E70BF0F8FC29468046DC
:10A9080000230A2258460BF0F1FC0546ECE7049BAD
:10A918004FF00008002BCCBF1F460127039B1F44A4
:10A928000122029958460BF043FE2146029010F08E
:10A93800C3FE0028A8DC02D119F0010FA4D1BA4641
:10A9480017F8013D302BFAD0FEE4039BBB429BD1A4
:10A958003123039A01361370F6E4219B002B7FF410
:10A9680025AA014BFFF744BA6EE201002DE9904396
:10A9780083B00378044602AF032B21D8DFE803F045
:10A98800023E4F24037A012B03D0052B18D1344BF8
:10A9980000E0344B6C4688B002AA3349C2E905137B
:10A9A8004FF400739383314B42F8103F00234FF468
:10A9B800E6512F4801F05EFCA5462E4809F01AFA28
:10A9C8000437BD46BDE89083017A2B4A2B4B6C4671
:10A9D80088B0012908BF134602AA2949C2E905130C
:10A9E8004FF400739383214B42F8103F00234FF438
:10A9F800E6511F4801F03EFCA546E1E7D0E90232E6
:10AA0800032100921A481F4A0DF0FCFAE36801334B
:10AA1800D6D101211C4A16480CF05BFBD0E7C06870
:10AA2800FDF7F2FC00220023FDF790FB8046206929
:10AA38008946FDF7E9FC00220023FDF787FB6C46F9
:10AA48008AB002AA114BC2E9068953610623C2E9FA
:10AA5800080142F8103F00234FF44351C9E700BFF3
:10AA68007FC6010066C60100A2C6010003000001FE
:10AA7800B8BD010074CD002093C601009DC6010039
:10AA8800C2C60100CFC601000BC7010041C70100C3
:10AA980000235A4A2DE9F0471946164684B004AFF8
:10AAA80092F8540000B1013301310C2902F10C0273
:10AAB800F6D10321524A53480CF00DFB0122E8213C
:10AAC8004E4808F01FFB044628B101214E4A4D4864
:10AAD8000CF0FFFA7FE096F85030D90740F18480F7
:10AAE800D6E9000100220023FDF730FBE94688B0D3
:10AAF80004AD4FF0040AA846444BC5E906016B6152
:10AB080048F810AF4FF40351234642463D4801F040
:10AB1800B1FBD6E90201CD4600220023FDF716FB62
:10AB280088B03B4BC5E906016B61C5F810A04FF42E
:10AB3800035123464246334801F09CFBD6E90223E1
:10AB4800CD46CDE902234FF48071D6E90023314880
:10AB5800CDE90023304A0AF065FE02462F48234615
:10AB68002C4900680DF0D1FB002837DA0DF0B1FB55
:10AB7800012103682A4A23480CF0ADFA294C2578AC
:10AB88004DBB10F0C6F84FF47A72A0FB020302FB2B
:10AB98000131C00B244A40EA4140D2E90032C90BD6
:10ABA800C01A61EB020100234FF47A72FDF7ACFF83
:10ABB8006E4688B004AA1D4BD161C2E90530042352
:10ABC80042F8103F4FF403512B460E4801F052FB58
:10ABD8000123B5462370BD46BDE8F0870321144A1A
:10ABE80008480CF076FAC9E71A0702D5114A03217A
:10ABF8006DE7DB06EFD5104AF9E700BF20CE00204D
:10AC08006AC70100B8BD01008CC70100A7C70100D1
:10AC1800C8C7010078E80020B7C7010058DE002047
:10AC2800D9C7010078E9002018CE002010C801001B
:10AC3800F5C701002DC801004AC80100072805D042
:10AC4800092808D0012808D1FFF722BF034A0321A9
:10AC580003480CF03EBA034AF9E7704768C8010098
:10AC6800B8BD01007AC801002DE9F0479AB000AFDD
:10AC780003F03CFE034638B18B4A01218B480CF0A7
:10AC88002AFA8B4A01213DE001200EF037FB0346EA
:10AC980008B1884AF1E701200EF034FB034608B1F9
:10ACA800854AEAE7854804F081FC044610B103466A
:10ACB800834AE2E701254FF002084FF0FF334FF0D7
:10ACC800FF32804809F0BCF803217F4A77480CF02E
:10ACD80000FA2146542207F1140010F04BF93B46C4
:10ACE8007A497B4807F11402C7E907580DF001FBC0
:10ACF800044678B103460321764A6C480CF0EBF918
:10AD0800754A032169480CF0E4F900206837BD460C
:10AD1800BDE8F0873B682BB90321704A63480CF003
:10AD2800D8F9EDE7DB696E4E5A6807F1040A7260DC
:10AD38005B88311D7380524610232846E9463580CA
:10AD48000DF0D3FA88B06946664B0A46C1E9053A60
:10AD58004FF400738B83644B42F8103F4FF4E65175
:10AD68002346524801F086FACD4638680DF0BFFAFE
:10AD78001122414628460DF0D0FA5C4C002820608C
:10AD88000EDA0DF0A6FA5A4A0368294647480CF02D
:10AD9800A2F90DF09EFA03685B428BB1554AB0E701
:10ADA800082231460DF0A7FA002804DA0DF091FACE
:10ADB800514A0368E9E70321504A3C480CF089F9F5
:10ADC80001200EF0A3FA28B14D4A012137480CF0B2
:10ADD80080F90FE04B4808F0D9FB08B14A4AF4E77C
:10ADE8000A2008F077FB034630B1484A01212F4872
:10ADF8000CF071F9464A45E708F09AFB034608B19A
:10AE0800444AF3E708F00EFB034608B1424AEDE76F
:10AE1800012008F033FB08B1404AD6E708F092FA5F
:10AE280008B13F4AD1E70FF074FF4FF47A72A0FBE4
:10AE3800020302FB01313B4DC00B40EA4140C90B04
:10AE4800C5E90001384A032118480CF042F9374D8A
:10AE5800DFF8E080244E0023FF22344920680DF0FB
:10AE68004CFA00280BDA0DF034FA01210368304A55
:10AE78000E480CF030F920680DF02DFA45E7FAD0AD
:10AE88000023E94688B06A462B544FF40071C2E9A2
:10AE98000585918342F8106F4FF4E651034801F09D
:10AEA800E9F9CD46D7E700BF95C80100B8BD010054
:10AEB80048C90100BCC80100D5C8010075A9000037
:10AEC800EFC8010074CD00200EC9010027C9010098
:10AED8002CC90100E1C9010095C9010066C901003A
:10AEE8005CE700207FC901000300000158DE002054
:10AEF800B3C9010005CA0100D0C90100E4C90100B5
:10AF080021CA010045AC000049CA01006ACA010013
:10AF18000ACB010089CA0100A5CA0100CBCA0100F9
:10AF2800E7CA010018CE0020FCCA010078E700201B
:10AF38002ECB010045CB01002DE9F04F91B00093D5
:10AF480002F004030293C2F3C203013384070546E7
:10AF58000E46DDF868900392059340F0BB81041D0E
:10AF680030B1072909D86FF01B0011B0BDE8F08F88
:10AF780001F00706341DC6F10806009B4FF00008D3
:10AF88004FF0040A591E4FF0FF3347460193C3465A
:10AF98005346CDF810800DB1009820600598002820
:10AFA80000F3E8809848009A824203D39748824287
:10AFB800C0F0E080039AA4EB050E92074FEA9E00CA
:10AFC80000F103810F2F00F2B180002D00F0058100
:10AFD80007F140020DEB020C019A0CF8200C0CF85A
:10AFE800102C049801300490E7E07A285DD84B28AB
:10AFF8000ED8472859D829282DD8252852D054D8D2
:10B0080020287AD02338D0F1000B4BEB000B74E0EA
:10B018004C382E2849D8DFE800F07048484848489E
:10B028004848484848484B48484848484848485984
:10B03800484B4B595959704B6D487048184B184834
:10B0480048827F4B48484B487F0000204FF0000B58
:10B058004FF0040A38E001222A38C0B202FA00F0A0
:10B0680010EA0E0F49D110F0625C2FD110EA020BE2
:10B0780043D06046013C5444B4FBFAF40AFB04F4A0
:10B08800002D61D0A3EB050CA444B4453FF66BAF8B
:10B09800002868D1042B47D159F8043B23600423C6
:10B0A80004342AE0019A013A01924FF0000B24E09F
:10B0B80011F8010C6C2834D1002011F8023C8346A9
:10B0C8006C2BC5D14FF0080A5346D3E709F107099D
:10B0D80029F00709073424F00704F9E802AB35B171
:10B0E80006982044B0423FF63EAFC4E900AB4FF0AB
:10B0F800000B08344FF0080A534611F8010F0028D6
:10B1080078D0BBF1000F7FF470AF2528F5D14FF050
:10B11800010B019B013301934FF0040AECE75846F9
:10B1280094E700208346A5E7082B02D06FF01500AE
:10B138001BE709F1070929F00709B9EC027B84ED3F
:10B14800007B08230834D8E768B9042B02D109F139
:10B158000409A4E7082BE9D109F1070929F007092F
:10B1680009F10809EDE705980138059059F8040B2D
:10B17800009010E7039A900720D54FF0010CA4EB3C
:10B18800050E4FEA9E00BEF5007FCFD20F2FCDD817
:10B19800F5B107F140020DEB020E019AC0B20EF8AC
:10B1A800200C0EF8102CBCF1000F3FF41AAF60F021
:10B1B8007F000EF8200C08F101080137C5F10802DC
:10B1C8004FF6DA7E0434069297E74FF0000CDAE780
:10B1D800BCF1000F01D00136EFE7029A0236002ACF
:10B1E800EBD10098CDE90631FDF702FDDDE9063126
:10B1F8000644E2E7631BB3F5806F97D245B9A6F121
:10B208000804E018B1E600BF84BA0100A4E3010015
:10B21800029A9B0828602B709DF81030C2B1EB7021
:10B2280085F80280B8F1000F05D0002208A8C5F102
:10B23800010C97420ED14FF0000AC5F101030DF140
:10B24800200901930DF1300B574512D1601B8CE694
:10B258006B70E5E710F8013B190608D504EB0C0EF6
:10B26800B64503F07F033FF67EAE04F8013B01329A
:10B27800DFE7B8F1000F03D099F90020002A17DBA7
:10B28800029BD3B11AF80B2004F8012B0022019B72
:10B2980098182044B0423FF666AE99F8000000992D
:10B2A80004F8010B204603920FF057FE039A14444A
:10B2B8000AF1010A09F10109C6E799F8002055F8D1
:10B2C80022300093029B009845F82230FDF790FC4D
:10B2D800421CDCE76FF00D0047E600BF2DE9F04F98
:10B2E80097B000AFD7F880B03B62CBF3C0030446F9
:10B2F800894690F802A0FA62BB6141B945780078A6
:10B308000AEB800020444D4517D8A0EB0409E378E8
:10B31800FB61BAF1000F02D01BF0010F16D1FB69D7
:10B3280053BBFB6A1BB1494620463A6A98474D46CB
:10B3380028465C37BD46BDE8F08F461C3046FDF711
:10B3480057FC0130304409F10109DCE762682378D1
:10B358007A62FA6A9900796104EB8301002A40F065
:10B3680001810E464FF000084D4601EB0A094E4593
:10B378004CD101EB0A0610E01BF0020FD1D0237864
:10B388009A007A61626804EB83017A62FA6A002A99
:10B3980077D14D46904601EB0A061BF0050F0CBF0E
:10B3A80002230123FB62FB6906EB430A0BF002034D
:10B3B800BB625645BCD016F8021B16F8013C54F87F
:10B3C8002390AF4B994502D3AE4B994536D3BB6911
:10B3D800002B40D0786A0CF05EF900283BD0E94693
:10B3E8008AB06A46A84B53617B6AC2E906314FF4BA
:10B3F80000731384A54B42F8103F00234FF41251F9
:10B40800A34800F037FF023DCD46D2E716F8013BCE
:10B41800F96254F82300FDF7EBFBD7F88430F96A9A
:10B4280001304BB1D7F8883098453EBFD7F8843003
:10B4380023F8180008F10108054498E7BB6923B10F
:10B44800786A0CF028F90028C9D11BF0010F05D142
:10B45800FB6AED1AADE7BB6A002BAAD04846FDF798
:10B46800C7FBD7F8843053B1D7F8883098453FBF29
:10B47800D7F88420431C22F8183008F10108054445
:10B4880097E7BAF1000F73D01BF0040673D0D046CB
:10B49800002607F1480052463B61B9620FF05DFD96
:10B4A800B96A3B6901EB0A02BA62FA69F9695200A2
:10B4B800FA60BA6A02EB41023A610BF00202BA6022
:10B4C8003A69B96A8A4258D162781BF0020F18BFEC
:10B4D80000217A6208BF4FEA5801B2181BF0010F29
:10B4E800D2B240F09F801BF0040F14BF40460020EA
:10B4F800BB616270A070E17020463A6A7969FB6AA4
:10B508009847051EFFF614AFBB69414623707B6A56
:10B518003A6A6370FB6984F802A0E37007F1480097
:10B52800FB6A9847B0F10008C0F2B4807B69A9EBC8
:10B538000A01C91AFB683A6AC91AD7E90A0398477F
:10B548000028C0F2A9804FF0000BA84408EB0005C2
:10B5580007F1380AB34567D300213A6A0846FB6AFF
:10B568009847E5E656464FF0000807F1380092E79D
:10B578005646D04696E7B04694E7BA6A12F8021BD8
:10B5880012F8015CBA6254F825003D4A904202D391
:10B598003C4A90421ED3BA6932B1786A7B600CF09B
:10B5A8007AF87B6800288BD1BA6802BB08F12802B8
:10B5B80007F1300C08F10100944407F1580208F132
:10B5C800020852FA80F00CF8101C5FFA88F800F8AC
:10B5D800105C75E7BA693AB1786A7B600CF05BF881
:10B5E8007B6800287FF46CAF1BF0010F09D006F1CF
:10B5F800280207F13000711C161806F8205CCEB23C
:10B608005EE71BF0040F3FF45BAF08F1280207F177
:10B61800300008F1010102EB000808F8105C5FFA3D
:10B6280081F84DE7002063E71BF80A3054F82390AF
:10B6380087F83730D7F88430FBB133F81B80012105
:10B648003A6AFB6A07F137009847002824DB05446B
:10B65800B8F1000F06D14846FDF7CAFA00F1010813
:10B668001FFA88F8414648463A6AFB6A9847002814
:10B6780012DB05440BF1010B6CE7D7F88480DEE799
:10B6880084BA0100A4E301007BCB0100040000019F
:10B69800C8BD010045464BE6054649E6014B186022
:10B6A800704700BF80C5002030B5002587B0CDE9C0
:10B6B80003010446009503A905480595FDF7F0FB2D
:10B6C800DDE904309842B8BF255407B030BD00BF4B
:10B6D800ED7601000F2808B506D90CF0FAFD09230C
:10B6E80003604FF0FF3008BD3022044B02FB0033EB
:10B6F800D3E8AF3F002BF0D00020F4E78CC5002042
:10B708000EB42DE9F741302545431B4C05F10C06D5
:10B7180026444FF0FF324FF0FF3304EB050807468D
:10B7280030460CF032F8D8F8043060590AAA40F2D2
:10B738000111DB6801929847051E10DBD8F82C3000
:10B7480003F47042B2F5E04F05D011D803F450432A
:10B75800B3F5804F03D1302303FB0744A56230467D
:10B768000CF015F8284603B0BDE8F04103B0704767
:10B77800B2F5004FEEE700BF84C5002030234343F5
:10B7880030B50D4908330B44D3E8AF2F92B1541E9E
:10B79800D3E8EF5F954204D1C3E8EC4FBCF1000F4A
:10B7A800F6D1F1D1012A05D13023584300230A18D4
:10B7B8000B50536030BD00BF84C5002070B50446EF
:10B7C8000E461546FFF786FF00280DDB302363433E
:10B7D800064AD1184968316015B10C3313442B60FF
:10B7E80030235C43105970BD0020FCE784C500205D
:10B7F80070B500254FF0FF334FF0FF3217480BF0BC
:10B80800C4FF174BD3E8AF2F7AB10135102D03F1E0
:10B818003003F7D10CF05DFD17234FF0FF350360BF
:10B828000E480BF0B4FF284670BD30246C43D3E8B3
:10B83800EF0F0130C3E8E10F0029F8D1094E3319A1
:10B8480032515A6004F10C0030440FF045F804F10D
:10B85800200030440FF009F9E2E700BFE0CC0020F7
:10B868008CC5002084C5002030B40446302510461D
:10B878006C43084A151911516860EB6240B1C368FE
:10B8880033B10C34131940F2051230BC0BF06EBF03
:10B8980030BC704784C500202DE9F84F074689461B
:10B8A8009246FFF717FF002836DB30257D431C4CF6
:10B8B80005F10C06264404EB05084FF0FF324FF063
:10B8C800FF3330460BF061FFD8F804306059D3F8E5
:10B8D80000B052464946D8F82830D847051E12DD30
:10B8E800D8F82C3003F47042B2F5E04F05D010D8E8
:10B8F80003F45043B3F5804F05D1302303FB0744CD
:10B90800A36A2B44A36230460BF041FF2846BDE8EA
:10B91800F88FB2F5004FEFE74FF0FF35F6E700BFBD
:10B9280084C500202DE9F84F074689469246FFF75F
:10B93800D1FE002836DB30257D431C4C05F10C0672
:10B94800264404EB05084FF0FF324FF0FF33304632
:10B958000BF01BFFD8F804306059D3F804B05246F6
:10B968004946D8F82830D847051E12DDD8F82C30BB
:10B9780003F47042B2F5E04F05D010D803F45043F9
:10B98800B3F5804F05D1302303FB0744A36A2B444A
:10B99800A36230460BF0FBFE2846BDE8F88FB2F5EF
:10B9A800004FEFE74FF0FF35F6E700BF84C50020F2
:10B9B800F8B50546FFF78EFE00281ADB30246C43E5
:10B9C8000D4F04F10C063E444FF0FF324FF0FF33A9
:10B9D80030460BF0DAFE3B195B6838599B6898478C
:10B9E800044630460BF0D3FE2846FFF7C7FE204634
:10B9F800F8BD4FF0FF34FAE784C5002070B504465F
:10BA08000D46FFF767FE00280DDB302303FB04F02B
:10BA180006492B460C184FF4837209586068BDE834
:10BA280070400BF0A3BE4FF0FF3070BD84C50020FE
:10BA380073B504460D461646FFF74CFE00280EDB8C
:10BA48003022084B40F2011102FB04339B6A2A465C
:10BA5800009320463346FFF753FE02B070BD4FF007
:10BA6800FF30FAE784C50020F0B5024601680A27CE
:10BA78000020074E0B461C780131355D6D0701D457
:10BA88001360F0BD07FB0043A3F13000F2E700BFED
:10BA9800F3E001002DE9F84F15469A46D378234A7A
:10BAA8006F2B12F803B081460F460BF0030B2BD017
:10BAB80026D8582B0CBF10260A26DDF828803246D7
:10BAC800002348463946FDF76FF8092A08F1FF3880
:10BAD800D4B21ED83034B145E4B277F1000788F803
:10BAE800004001D3D04511D82B789B0605D5082EE8
:10BAF80015D1AB7843F00803AB704046BDE8F88F2A
:10BB080003F0F703702BD5E70826D6E781460F46E2
:10BB1800D5E7BBF1010F0CBF37345734DBE7102EE4
:10BB2800EBD1AB7843F01003E6E700BFF3E0010088
:10BB38002DE9F047058B04462807904611D40229C1
:10BB480005F0070540F0CC8020460CF0CAF878B123
:10BB58000138218B042811D8DFE800F0C2106D8568
:10BB6800950001290CBF45F0100545F020052583F7
:10BB780088F31188BFF36F8FBDE8F08701F0070ADB
:10BB8800AA4500F0A5800027B9463E46A368002BC9
:10BB980000F0BC8041F00801218388F31188BFF3CD
:10BBA8006F8FA168002900F0BA800D68002900F0A5
:10BBB800B680334652462046D1F80480C047002D4F
:10BBC80076D02B6829461D46F0E701F007035A1F77
:10BBD800012A1BD8002221F00701062B276889B209
:10BBE800C4E9002209D13B4603E0628B013262833B
:10BBF8001B68002BF9D141F00201204621830CF08B
:10BC080070F800287AD041F0200176E0042B0AD1A0
:10BC180021F0070189B2204621830CF062F810B1A7
:10BC280041F020012183218B01F0070AAA454FD05A
:10BC38000027B946AAE7236921F0070141F0060168
:10BC4800062DD3F8009021832DD1B9F1000F3FD0F4
:10BC580041F00801218388F31188BFF36F8F2046D4
:10BC68003949C84729E021F00701236941F0040157
:10BC780089B2042DD3F804902183E6D000274FF031
:10BC8800040A3E4682E721F00701236941F00501D5
:10BC980089B2052DD3F808902183D6D000274FF01C
:10BCA800050A3E4672E700274FF0060A3E466DE752
:10BCB8002B4687E7B9F1000FD1D1EFF31188202384
:10BCC80083F31288BFF36F8F238B23F0080323833A
:10BCD800258BEA062ED525F01003238305F00705EA
:10BCE8006669218B002EBFF670AF00232768C4E970
:10BCF800003321F0070141F001012183218B4FF02E
:10BD0800000901F0070AAA457FF440AF002F9CD034
:10BD180041F00801218388F31188BFF36F8F002F4A
:10BD2800C8D03D6839463346524620460CF005F8DF
:10BD38002F46F4E7AB067FF51BAF25F020032383DE
:10BD480005F0070500E700BF6F7D01002DE9F0470A
:10BD5800044607464FF00109DFF8508014B9384609
:10BD6800BDE8F08794FAA4F5B5FA85F509FA05F364
:10BD78002E0108EB05156FEA030A24EA03042B7B5E
:10BD8800002BEBD058F806301B694BB94644736852
:10BD980004222846196807EA0A0700F057FADDE77F
:10BDA800284698470028D9D1F0E700BF78BE01009F
:10BDB80030B5002289B00F490F480EF0F1FF00227C
:10BDC80000230024CDE906230E230C4DCDE90334CE
:10BDD8004FF440722846CDE90144094B09490094C3
:10BDE80008F0FAF9084928460EF049FE204609B03D
:10BDF80030BD00BF15BE0000E8D3002008CF0020EA
:10BE080001C1000018EF002035CC0100014807F0FF
:10BE1800F1BF00BF5CCD00202DE9F04780461F48E8
:10BE28000F460CF05AF80646002830D00025284660
:10BE3800BDE8F087237B6BB12368DB680BB1204634
:10BE4800984723681B69D3B9636804222046196898
:10BE580000F0FCF9013610344C45EBD3B8F1000F73
:10BE6800E5D0002DE2D02846FFF770FF0546002FE9
:10BE7800F7D000214FF4A47008F06AFCF1E72046DF
:10BE880098470028E0D00AFA06F31D43E2E7054682
:10BE98004FF0010A024CDFF80C90DDE76CDE002061
:10BEA80078BE010088BE0100014B53F8200070479E
:10BEB800ECBF010008B5034608462BB1044A1360DD
:10BEC80000F072FC002008BD6FF01500FBE700BF12
:10BED80084C8002010B5044C237813B9034807F030
:10BEE80089FF0123237010BD79E900205CCD002073
:10BEF80010B5044609480BF0F0FF3CB1084BD3E8F5
:10BF0800EF1F0139C3E8E21F002AF8D105480EF0F7
:10BF180053FFBDE81040044807F06CBF64DE002002
:10BF280068DE0020E8D300205CCD00200020014618
:10BF3800034BD3E8EF0FC3E8E21F002AF9D170479B
:10BF480064DE002070B5FFF7F1FF0546074C084E88
:10BF5800B44200D370BD63685B792BB123685B681A
:10BF680013B12946204698471034F1E778BE0100FE
:10BF780088BE010010B5044C044920460BF04DFD65
:10BF8800034B1C6010BD00BF24CC0020D8BF0100AB
:10BF98005CDE002008B50023074A4FF40041137007
:10BFA800064A07481360074A1360FFF783FFBDE896
:10BFB8000840FFF7DFBF00BF7AE9002064DE0020F9
:10BFC800DF7E010068DE00200146002200230148D0
:10BFD8000BF044BD24CC002001480BF0DABD00BFB3
:10BFE80024CC0020024B014618680BF026BE00BF87
:10BFF8005CDE002001480BF05BBE00BF24CC0020B3
:10C0080070B5264B1878002847D0FFF7E5FF05469E
:10C0180070B1234BD3E8EF1F0139C3E8E21F002AB0
:10C02800F8D1204C204EB4422DD32846FFF7DAFF32
:10C038001E4B1F4C1B68002B19DD0EF06AFE4FF4D7
:10C048007A72A0FB020302FB0131C30B43EA4143AE
:10C05800D4E900209B1A40F2E9324FEAD13161EB72
:10C068000001934271F1000101D3FFF76BFFD4E99E
:10C07800003213F57A7342F10002C4E90032BDE8D8
:10C088007040FFF7B7BF63685B7923B1236829461F
:10C0980020461B6898471034C5E770BD79E9002031
:10C0A80068DE002078BE010088BE010064DE002042
:10C0B800E0D3002070B50D4D297861B90120FFF754
:10C0C800ABFE0B4C0B4EB44206D3FFF799FF00288A
:10C0D800FBD101232B7070BD63685B791BB12368AA
:10C0E80020469B6898471034EDE700BF7AE90020A6
:10C0F80078BE010088BE010000212DE9F0470846FE
:10C10800FFF78AFE044648B340F267684FF000091B
:10C1180008F03CFB1A4B186030B11A4B1B68092B0E
:10C1280002DD194807F066FE0025184FDFF858A011
:10C1380044B12046FFF70AFE044618B94FF0FF380D
:10C148004FF0FF39FFF75CFF064628B9B5B94246FC
:10C158004B46504607F074FE3546E9E74FF0FF3886
:10C168004FF0FF39D4E72B689B691BB100222846A2
:10C17800114698471035BD42F5D3E8E7044DFAE774
:10C1880060DE002068DE00205CCD002088BE010053
:10C1980078BE010013B518480BF09FFE174B1B78AB
:10C1A80073B1EFF31184202383F31288BFF36F8FE9
:10C1B800FFF726FF84F31188BFF36F8F02B010BD1D
:10C1C8000F4B1B68002BF9D050B9002200230D48F3
:10C1D800CDE900234FF40042002308F03FFDEDE7CE
:10C1E8000928EBD107480EF0E7FD074802B0BDE883
:10C1F800104007F0FFBD00BF68DE00207AE900208C
:10C2080060DE0020E8D300205CCD002010B5064B8E
:10C2180004461B6898472146A06004480BF09AFC26
:10C22800BDE81040FFF7B6BF84C8002024CC00202A
:10C23800044A054B9B1AB1EBD30F34BF52F83100B7
:10C2480000207047B8BD010078BE0100084B10B44B
:10C25800C31A44681B110133237143689A71012280
:10C268004368196043685A715DF8044BFFF732BEA2
:10C2780078BE01002DE9F04F8FB0C1F34A2804AF12
:10C288000D469146B8607B600C0DB8F1000F63D085
:10C2980000264FF0040B4FF00A0A07F11403C7F801
:10C2A8000C80C7E907667E620193CDF808B0CDF827
:10C2B80000A007F11C0332464846F968FFF70EF85C
:10C2C800B0F5006F03461CD36C468AB0D9F8041049
:10C2D80004AB26481A46C3E9050140F2FF71D9614B
:10C2E8004FF400711984224B42F8103F4FF4125159
:10C2F80033462048FFF7BEFFA5462C37BD46BDE8AC
:10C30800F08FC0F30A0804F11700184420F0070062
:10C3180080083B60FFF758FE68F35325044690B148
:10C328003B6800F11001C7E9083607F11403F96109
:10C33800CDE900A3CDF808B048460F4AF96807F1DF
:10C348001C03FEF7CBFF68F353252A4620467B687B
:10C35800B9680BF0F4FDD0E704F1170020F00700EE
:10C368008008FFF731FE0446EDE700BF4ACC010024
:10C3780004000001E0BD01001B7F01002DE9F04F22
:10C3880087B00446DDE9105ADDE9127993469846EC
:10C398000391BFB13B46524610210020CDF80090D2
:10C3A800CDF81490FEF7C8FDB0F5006F06460AD325
:10C3B80040F2FF730221174A174807B0BDE8F04F53
:10C3C8000BF016BE3E4605F11700304420F007007A
:10C3D8008008FFF7F9FD04F007040BF0070BE400F1
:10C3E80044EA8B1444EA462444EA0554054640B11D
:10C3F8003FB13B4652463146CDF800901030FEF72B
:10C408009BFD434622462846039907B0BDE8F04FF6
:10C418000BF095BD89CC0100E0BD0100406820B15A
:10C42800034BC01A40F3CF0070474FF0FF307047FE
:10C43800B8BD01000EB403B503AB53F8042B014695
:10C44800044801930BF005FE02B05DF804EB03B05D
:10C45800704700BF69800100CA0605D48B064CBF2F
:10C4680002490349FFF7E6BF704700BF2BDA010016
:10C478002ADA01002DE9F04F8BB09A46169B9DF8F9
:10C4880054B00693179B04460593189B0D46904697
:10C49800199E0493BBF1000F00F09E8006F0010383
:10C4A800089306F00803079306F4807309930BF0CA
:10C4B8002EFD06F00209024600283BD020468F498F
:10C4C800FFF7B8FF0746B9F1000F08D016F0440F80
:10C4D80032D12A4620468A49FFF7ACFF0744089B19
:10C4E80053B1884B204653F82B20874B8749002AA5
:10C4F80008BF1A46FFF79EFF099B002B48D0079BF1
:10C50800002B62D1B8F1000F64D042462046804922
:10C51800FFF790FF0546069B3D44002B6BD1049B1B
:10C52800002B71D1F30700F1E38031462046FFF775
:10C5380093FFD7E00746C6E7764B18680028CDD0AA
:10C54800754B4FF47A791B684FF46161B5FBF3F5CD
:10C55800B5FBF0F300FB135509FB05F5B3FBF1F24E
:10C56800B5FBF0FE4FF03C0C01FB123100FB1E55F1
:10C57800B1FBFCF309FB05F5B5FBF0F50CFB13115A
:10C5880020460091CDE901E56449FFF753FFA5E78F
:10C59800079BEBB1624B204653F82B206149FFF70C
:10C5A80049FF0546B8F1000F05D0424620465849D4
:10C5B800FFF740FF0544BAF1000FACD052462046C1
:10C5C8005949FFF737FF0544A5E74FF0000AE1E7AF
:10C5D800079DE7E745469EE7BAF1010F069B06D19E
:10C5E800002B65D1049B002B7CD000250CE0002B90
:10C5F800F8D04E485DE04E48069B22464D490BF068
:10C6080019F8049B002B69D0DFF83C81DFF83C91D6
:10C61800049F3146102F204628BF10274FF0000AEC
:10C62800FFF71AFF554546DC059B494620461A7810
:10C63800FFF700FF4FF0010A1AF0070F03D1414638
:10C648002046FFF7F7FE57453CD9059B494620464B
:10C6580013F80A20FFF7EEFE0AF1010ABAF1100FEB
:10C66800EAD14FF0000A20463349FFF7E3FE52466D
:10C67800059B20469A5C314B995C11F0970F08BFD7
:10C688002E222F49FFF7D6FE0AF1010ABAF1100F40
:10C698001DD01AF0070F03D141462046FFF7CAFE06
:10C6A80057455246E4D841462046FFF7C3FEEBE71C
:10C6B8001F485D46A0E741462046FFF7BBFE0AF14A
:10C6C800010AAFE720461F49FFF7B4FEC4E7059B00
:10C6D8003B440593049BDB1B049399D1BBF1000FEA
:10C6E8007FF420AF20460BB0BDE8F04F0BF0A4BCA0
:10C6F8002046054A0549FFF79DFE16E7C6CC01000E
:10C70800CACC0100FCBF0100C1CC0100E7D6010082
:10C71800EFCC010074DE002070DE0020D3CC0100D5
:10C7280010C00100F3CC0100F9CC01009780010092
:10C73800698001005B80010008CD0100F3E0010081
:10C74800C7DA010004CD010006CD0100FECC0100CE
:10C7580042F20F7373B58B4228BF0B460568044637
:10C76800052168460D4A0AF0DCFF0646636828463C
:10C778000B225B680A490BF051FC63683246694634
:10C7880028465B680BF04AFC63681B2228465B68F6
:10C7980004490BF043FC02B070BD00BFE1C90100C1
:10C7A80026CD01000ACD010000210123064A90424E
:10C7B80006D8064A01B901231360054B1860704773
:10C7C800012140085B00F2E740420F0070DE0020C4
:10C7D80074DE0020F8B50D460446064F4618B442EC
:10C7E80001D12846F8BD14F8011BBB6801485B68F5
:10C7F8009847F4E78CBB0100014B036000207047A9
:10C8080058C0010008B504480AF07EFFBDE808409A
:10C8180002480AF079BF00BF6CCD0100A1CD01002C
:10C828002DE9F84F80460C4600AF002965D0D1E9C4
:10C838000012E9468AB0A3686D464FF0050A2E46F5
:10C848003748C5E90723C5E9050146F810AF0023B5
:10C8580032464FF421513348FFF70CFDD4E9031257
:10C86800CD466369AD463048C5E90723C5E90501EA
:10C87800C5F810A0002332464FF421512948FFF78C
:10C88800F9FCCD46E3690121284A26480BF0B0FBA4
:10C89800264600254FF00A0ADFF8A0B0E946D6E997
:10C8A80008E0D6E90A138EB06A46C2F81CE005F122
:10C8B800010EC2E908E0A81CC2E90A01E91CC2E9A4
:10C8C80005B5C2E90C1342F810AF002345F2400148
:10C8D80014480435FFF7CEFC102DCD4606F110069E
:10C8E800DCD1236E0121124A0E480BF081FBA369AB
:10C8F8000121104A0B480BF07BFBB8F1010F07D15F
:10C90800EFF305830C4A41460648103B0BF070FBD9
:10C918002146404606F0C6FFBD46BDE8F88F00BF79
:10C92800CFCD010028BE0100FECD01002DCE0100B3
:10C938007FCE01008ECE0100BCCE01003CCE0100AE
:10C9480030BFFFF7FDBF00BF074A936893F90E1089
:10C95800002907DB926993421FBF044A536843F0DA
:10C9680080535360704700BF10E7002000ED00E0DF
:10C9780070B52A4C06460D4629482A490BF00EFC8C
:10C98800A36ADB0647D5264827490BF007FC112088
:10C99800A36A1C0704D5224824490BF0FFFB122088
:10C9A8001E4CA36A990712D521491D480BF0F6FBC6
:10C9B800636BA26A120609D501211E4A18480BF0BA
:10C9C80017FB1EB1A36A23F08003A3621320134C44
:10C9D800A36ADE0704D5124817490BF0DFFB1420C1
:10C9E800A36A9C0604D50E4814490BF0D7FB152002
:10C9F8000A4B9A6AD10658BF9A6A9A6A920642BF47
:10CA08005A6A22F400525A629A6A42F0FF029A6203
:10CA180000232B7070BD1020BAE700BF00ED00E0C6
:10CA280028BE0100CFCE0100E5CE010018CF0100DD
:10CA38002BCF010043CF010059CF010078CF01006F
:10CA480010B5244C244925480BF0A8FBA36A99018A
:10CA58003ED5224822490BF0A1FB1E20A36ADA0129
:10CA680004D51E481F490BF099FB1F20194CA36AD7
:10CA7800DB0204D519481C490BF090FB0220A36A7D
:10CA88001C0304D5154819490BF088FB2120114CCB
:10CA9800A36A590304D5114815490BF07FFB2220DE
:10CAA800A36A9A0304D50D4812490BF077FB23209B
:10CAB800084CA36ADB0304D508480F490BF06EFB4A
:10CAC8002420A36A6FEA03436FEA1343A36210BDED
:10CAD8001D20C3E700ED00E0A7CF010028BE01003C
:10CAE800BFCF0100D2CF0100ECCF010016D001006A
:10CAF80034D0010059D0010073D0010070B5294C21
:10CB080006460D46284829490BF048FBA36AD90474
:10CB18003CD5254826490BF041FB1720A36A1A0586
:10CB280004D5214823490BF039FB18201D4CA36A72
:10CB38009B0512D51C4820490BF030FBA36BA26A59
:10CB4800100409D501211D4A17480BF051FA1EB1EE
:10CB5800A36A23F40043A3621920124CA36A59055F
:10CB680004D5114816490BF019FB1A20A36ADA05F7
:10CB78000ED50D4813490BF011FB1B20094A936A87
:10CB880043F47F43936200232B7070BD1620C5E7E2
:10CB9800A36A9B04F2D504480B490BF0FFFA1C204A
:10CBA800ECE700BF00ED00E028BE01009ED00100C8
:10CBB800B4D0010018CF0100C5D00100DED00100BB
:10CBC800F3D001000ED1010078CF01002DE9F04724
:10CBD8009CB0664B0546D3F804A089461446002647
:10CBE80000AFCAF3080886F31188BFF36F8F02F00D
:10CBF8007F43B3F17F4F1DD1D3071BD4500603D415
:10CC0800110708D4012608E059495A480BF0C6FA1A
:10CC180014F0040400D04D4600260023FB71A8F14F
:10CC28000303092B7FD8DFE803F0077679737E7E4C
:10CC38007E7E7E7C3546F0E74F494E480BF0AEFAD3
:10CC480000234A4CFB71E36A9A0705D54B494948CA
:10CC58000BF0A4FA002429E0E36A002B01DA484922
:10CC6800F5E7E36A5B00F5D5464942480BF096FACA
:10CC78006369AA6943F480736361BFF34F8FBFF39D
:10CC88006F8F636932F8022C23F480736361BFF3FA
:10CC98004F8FBFF36F8F4DF602739A4222D12B68E4
:10CCA8000121394A33480BF0A3F92C68FB79ABB959
:10CCB8006822294607F108000EF04FF97B6A002E1A
:10CCC8004ED0C3F3080222B96FEA53236FEA432315
:10CCD8007B62204607F10801FFF7A2FD7037BD46C9
:10CCE800BDE8F087A36ADBB22BB10120F91DFFF77D
:10CCF8003FFE0446DAE7A36A13F47F4F04D001200D
:10CD0800F91DFFF7FBFEF4E7A36AB3F5803FA1D353
:10CD1800FFF796FEEDE70020F91DE8E70020F91D72
:10CD2800EFE71A4993E71A4A6C461AF4F87F8AB073
:10CD3800184B18BF13466A461749C2E90513A8F1EC
:10CD48001003D3614FF400731384144B42F8103F5F
:10CD580000234FF411510748FFF78CFAA54679E7ED
:10CD680023F4FF7323F00103B2E700BF00ED00E0F6
:10CD780054D1010028BE010077D101008ED10100F5
:10CD8800AFD10100BDD10100DCD10100F8D1010013
:10CD98003BD1010026D101001CD201000400000192
:10CDA800064B5A6942F010025A615A6942F480628D
:10CDB8005A615A6922F008025A61704700ED00E092
:10CDC800EFF30880EFF3098101B57246FFF7FEFE25
:10CDD80001BD00BF002080F31488BFF36F8F0020CF
:10CDE80080F30A8880F30B8803F052FD00200E4977
:10CDF8000860BFF34F8F0D4880F3088800F02CF8C7
:10CE0800202080F311880A484FF40061401880F30D
:10CE18000988EFF314800221084380F31488BFF3D4
:10CE28006F8F00F027F9000094ED00E05810012002
:10CE380018F70020002318460649D1F89020C2F3BD
:10CE48000722934200DB7047C1F89830C1F8A00070
:10CE58000133F6E700ED00E010B572B6002484F364
:10CE68001388FFF7E7FF23464FF0FF300C4A03F122
:10CE780020010133102B42F82100F8D100234FF094
:10CE8800FF30074A03F160010133102B42F82100FB
:10CE9800F8D162B6BFF34F8FBFF36F8F10BD00BFDD
:10CEA80000E100E0084B9B6883420BD1EFF3058358
:10CEB80043B1064B5A6842F080525A605A6A22F4CB
:10CEC80000425A620DF0C7BE10E7002000ED00E0F6
:10CED8006FF00A01094A9368C3F890100849C3F82B
:10CEE8008C004B6843F080534B60002383F3118818
:10CEF800BFF36F8F9368D3F89000704710E7002056
:10CF080000ED00E00F4A936883F8D500EFF3118332
:10CF1800202383F31288BFF36F8F4FF0006193696A
:10CF280020F0FF009360084A5160002193F8D52053
:10CF38001043D3F88C20C3F88C1082F31188BFF308
:10CF48006F8F704710E7002000ED00E01D498A68E8
:10CF580082F8D5E04FF030001044EFF3098C80E8F8
:10CF6800F01F1EF0100F03D102F1940080EC108A1C
:10CF780074467046FFF7C6FFA64612498A68864679
:10CF88001EF0100F03D00023E1EE103A03E002F187
:10CF9800940090EC108AEFF3148323F0040383F3D6
:10CFA8001488BFF36F8F02F1300090E8F01F8CF304
:10CFB800098802F1000004B50BF026F9BDE8044029
:10CFC8007047000010E700201EF0040F0CBFEFF3BD
:10CFD8000880EFF30980816911F8021C0229FFD04B
:10CFE80001B50BF0D0F801BD40B2002807DB0123E2
:10CFF8004109034A00F01F00834042F8213070477E
:10D0080000E100E040B200280CDB01220649430998
:10D0180000F01F008240203341F82320BFF34F8FD8
:10D02800BFF36F8F704700BF00E100E0054B420976
:10D0380053F82220012300F01F0003FA00F01040EB
:10D04800704700BF00E100E040B2002801F1010193
:10D05800ACBF00F16040064B4FEA4111C9B2ABBF0B
:10D0680000F5614000F00F0080F800131954704774
:10D0780014ED00E0144A08B5144B22F07F029A60C0
:10D08800BFF34F8FBFF36F8FD3F8882022F470025D
:10D09800C3F88820D3F8882042F4A002C3F8882077
:10D0A8004FF04042C3F83422BFF34F8FBFF36F8F66
:10D0B8000023E1EE103A06F0E1FC07F005FC00F071
:10D0C8007DF806F01BFD00BF0080000000ED00E0C9
:10D0D80042F8203C009B0D4942F81C3C019B21F082
:10D0E800010142F8183C029B42F8081C42F8143C23
:10D0F8004FF0807342F8043C0023C0F88C304FF4A2
:10D108003C43203A0265C0F8D430704745770100A7
:10D11800104B9B6883421AD1EFF30580B8B9EFF33F
:10D128001181202282F31288BFF36F8F1A7B22F0BD
:10D1380002021A73EFF3148323F0040383F31488B1
:10D14800BFF36F8F81F31188BFF36F8F70476FF054
:10D158001500704710E700200E461546002300B55D
:10D16800E1EE103AEFF3148323F0040383F31488F9
:10D17800BFF36F8FBFF36F8F0A4B9860836E83F393
:10D188000B882C4686F309884FF00000064B984719
:10D1980020464FF000014FF000024FF00003034C0F
:10D1A800204700BF10E700201982010045770100E1
:10D1B8001022014B1A61704700ED00E00023202186
:10D1C8000348C2180133412B82F80013F9D1704784
:10D1D80000E100E008B5EFF30583064A103B02EBD7
:10D1E800C30152F8330049688847BDE80840FFF793
:10D1F800ABBB00BFA0BB01001FB5094C094A2346C1
:10D208000121094800F012F900230393074B01217B
:10D21800E41A01A80193029400F012F904B010BDB9
:10D228000000042080C5002058C0010018CE00204E
:10D2380010B50C7A0B6804F01F0223F01F031A4381
:10D24800CB68640923F01F03054943EA440343F00C
:10D258000103C1F89800C1F89C20C1F8A03010BDA6
:10D2680000ED00E010B50A4BD3F89030C3F3072364
:10D27800013B984208D901210346064A06480AF0AC
:10D28800B7FE6FF0150010BDFFF7D2FFFBE700BF38
:10D2980000ED00E033D2010008BE01002DE9F04F97
:10D2A8008946144606464FF00008514D85B0C845DA
:10D2B80027DAD6F804A0BAF1000F44D0BAF11F0F4C
:10D2C80017D91AF01F0F14D1D6F800B01BF01F0F92
:10D2D8000FD158460AF0BFFF07460AEB0B0001388A
:10D2E8000AF0B9FF874210D06FF01507414A3B4654
:10D2F80001E04346404A012140480AF079FE6FF0B8
:10D308001504204605B0BDE8F08F17F1160FEDD0D3
:10D31800BC42EBDDC5F89870D5F89C10C5F898703C
:10D32800D5F8A03021F01F0143F01F0BD6E90032D9
:10D338001A44994202F1FF3A1DD1D34507D131462B
:10D34800F8B20AF091FF08F101080C36AFE7314650
:10D35800C5F89870D5F89C3022F01F0203F01F031F
:10D368001343C5F89C30E0B20AF07EFF10F1160FA7
:10D37800C5D0441CE7E7C5F89870D5F8A020013B54
:10D3880023F01F0302F01F021343D3453146E0B2D6
:10D39800C5F8A030E8D00AF067FF10F1160FAED03C
:10D3A800C5F89870D5F89C209DF808300BF1FF3B24
:10D3B80062F304038DF80830D5F8A0309DF80820F2
:10D3C8005B0863F347128DF80820D6E9003213444E
:10D3D800009323F01F035B44A3EB0A03013023F0FF
:10D3E8001F036946C0B20393FFF73CFFBEE700BFC7
:10D3F80000ED00E07CD2010059D2010008BE010016
:10D408000522044BC3F89420BFF34F8FBFF36F8FEF
:10D41800704700BF00ED00E0BFF35F8F0022024BB2
:10D42800C3F89420704700BF00ED00E010B5034C2E
:10D438002278FFF733FF207010BD00BF7CE9002081
:10D448002DE9F74F294D8A4606464FF00008AB46AE
:10D45800274FD0451BDAD6F80490B9F1000F3FD01A
:10D468003168084601910AF0F6FE0199044609EB75
:10D47800010001380AF0EFFE84424FF014021D4B00
:10D4880008D002FB08F36FF015024BF8032003B035
:10D49800BDE8F08F14F1160F2C60F8D01978A1426E
:10D4A800F5DD02FB08B0C7F89840C7F89840D7F8F0
:10D4B8009C4000F10801007B64F304000871D7F870
:10D4C800A0000C79400860F347140C71D7F89C1041
:10D4D80021F01F016960D7F8A01021F01F01296110
:10D4E80008F1010814350C36B3E700BFA4DE0020AC
:10D4F80000ED00E07CE90020F0B54149414CD1F84D
:10D5080090302568C3F307239D4287B075D8002063
:10D51800FFF782FF3C4BC1F8C030854216D13B4C27
:10D5280001A82570FFF768F900250646384FAE4276
:10D5380013D1002023783249D1F89020C2F3072272
:10D54800934254DBFFF75CFF00202FE0616801EB9A
:10D558000011FFF76DFE0130DFE70199280101EBAB
:10D568000513DA683A40B2F5001F21D0B2F5800FF2
:10D578002BD0B2F5801F38D15A689B680958013BF7
:10D5880022F01F0003440120844623F01F0340EAD1
:10D598004C10CDE902218DF8100002A920780593DE
:10D5A800FFF760FE00281DDA6FF0150007B0F0BD28
:10D5B8005A689B680958013B22F01F0003444FF04A
:10D5C800020C012023F01F03E1E75A689B68095801
:10D5D800013B22F01F0003444FF0000C062023F00B
:10D5E8001F03D4E723780133237001359FE7C1F87F
:10D5F8009830C1F8A00001339EE74FF0FF30D5E71F
:10D6080000ED00E064C00100AAFF44007CE90020AE
:10D618000000F0FF014B1860704700BF90C8002061
:10D62800F8B50D46094F461EC0F10104A3199D42E5
:10D6380001DC2846F8BD73780A2B02D10D203B681F
:10D6480098473B6816F8010F9847EFE790C8002005
:10D6580010B5074C2368C2180648C0F1005101F5FF
:10D6680080218A4236BF22604FF0FF30C01810BDBB
:10D67800B8DE0020D824012008B505480AF044F88F
:10D68800002383F31188BFF36F8F0423184602DF4A
:10D69800AED2010038B50025074C20460DF01CF924
:10D6A80004F1140001350DF0E0F9052D04F124040E
:10D6B800F3D1002038BD00BFBCDE002038B50024FF
:10D6C800054D284601340DF0D0F9052C05F1080563
:10D6D800F7D1002038BD00BF70DF002038B5002426
:10D6E800054D284601340DF0F7F8052C05F1140511
:10D6F800F7D1002038BD00BF98DF00200B4B30B5B4
:10D708001C4600250A4A191BB1F5886F01D900206B
:10D7180030BD506803F1E001C3E93820016003F52A
:10D72800887303F8085C5160EDE700BF20D400203F
:10D7380094C800200122024B0020C3F840257047FE
:10D748000090034020B1034B800143F001031847C8
:10D75800704700BFD0BE0100034A044B116892888D
:10D7680019609A80704700BF29D301007DE9002025
:10D778002DE9F04105460E461746124CDFF8488061
:10D78800444507D30AF0A5FD6A2303604FF0FF3034
:10D79800BDE8F0812368AB4200D083B93A463146F0
:10D7A8002846A368984750B10AF093FD0023036008
:10D7B8003A4631462846E368BDE8F0411847103438
:10D7C800DEE700BFA8BD0100B8BD0100014B18602D
:10D7D800704700BFFCDF002010B4034C24682468A5
:10D7E800A4465DF8044B6047FCDF0020014B1B6832
:10D7F8005B681847FCDF00202DE9F0410D4606461E
:10D80800F8B1F1B10846FBF7F3F908281CD8114F15
:10D81800DFF84480441C474508D32246294606F1D0
:10D8280008000DF09AFB0020BDE8F081B74206D051
:10D838002246294607F108000DF07FFB38B1403732
:10D84800E9E76FF01500EFE76FF05A00ECE76FF0CB
:10D858007700E9E7A4CD0020E4CD00202DE9FF41C1
:10D868004FF0FF324FF0FF3324480AF036FE244CC5
:10D87800244E254D254FB44205D3204804B0BDE8B9
:10D88800F0410AF03CBE0022C4E902222368227457
:10D898001B68D3F80880B8F1000F14D0D8F800300E
:10D8A8008BB104F114000DF017F804F128000DF005
:10D8B80013F8D8F800302046984794F83C3023F005
:10D8C800030384F83C30237A83B920460AF092FE99
:10D8D80070B10F4A1368591C11600E4A092101A83A
:10D8E80009F01FFF204601A9FFF786FF4034C2E771
:10D8F8002B685A1C2A603A46F0E700BF08CD002082
:10D90800A4CD0020E4CD002000E0002037D30100A2
:10D9180004E0002030D3010038B5074C074DAC4275
:10D9280000D338BD032120460AF0E0FD10B9204697
:10D938000AF02EFE4034F2E7A4CD0020E4CD00200A
:10D948002DE9F04F00248BB0022882460D46CDE920
:10D95800084405925CD10B68069143B94A68002ACD
:10D968004DD14FF6FF734C89E11A4C424C4108A83F
:10D978000246002305F1100705EB43010E88002E2F
:10D988003FD00133082B02F10102F5D14FF0FF38E7
:10D998004FF0010B002710F8013B5B4588BFB846E4
:10D9A80007F1010788BF9B46082FF4D13A23BBF142
:10D9B800010F02934FF0000308BF4FF0FF380493A4
:10D9C800002105980026042F63D1049B9A5D7ABB39
:10D9D8000346302203F8022B029A42701846013699
:10D9E800B742F0DC059B984214D0BAF1010F4FF012
:10D9F800000340F08A8000F8013C05980BE01C46C3
:10DA0800B5E7167802310136B9421670B6D1B8E7D3
:10DA1800012803D000200BB0BDE8F08F2E23042787
:10DA28004FF0FF3883462546049102930694C7E7D2
:10DA3800039200224FF00909DFF8D4C00190079241
:10DA4800DDF80CE0BEFBFCF20CFB12E3079A039333
:10DA5800914501DBE64509D3BEFBFCFE019B0EF1B7
:10DA6800300E03F801EBCDF81C9001930A2209F15E
:10DA7800FF39B9F1FF3FBCFBF2FCE1D14FF00002E6
:10DA8800019B1A701B1A50FA83F0029B00F8013BA5
:10DA9800A5E76CB1052E0BDD05F10C0304933A23C1
:10DAA80000F8013B2E2304274FF0010A029389E76F
:10DAB800B0450ED111B9B8F1000F02D13A2300F8E0
:10DAC800013B3A2300F8013B0BF1FF3300211E44D0
:10DAD80085E711B13A2300F8013B069B33F816306D
