:10800000100C0120CDDE000051A00100B9DE0000FF
:10801000B9DE0000B9DE0000B9DE0000B9DE000004
:108020000000000000000000000000008DE00000E3
:10803000B9DE00000000000045E00000B9DE0000ED
:1080400011E2000011E2000011E2000011E2000064
:1080500011E2000011E2000011E2000011E2000054
:1080600011E2000011E2000011E2000011E2000044
:1080700011E2000011E2000011E2000011E2000034
:1080800011E2000011E2000011E2000011E2000024
:1080900011E2000011E2000011E2000011E2000014
:1080A00011E2000011E2000011E2000011E2000004
:1080B00011E2000011E2000011E2000011E20000F4
:1080C00011E2000011E2000011E2000011E20000E4
:1080D00011E2000011E2000011E2000011E20000D4
:1080E00011E2000011E2000011E2000011E20000C4
:1080F00011E2000011E2000011E2000011E20000B4
:1081000011E2000011E2000011E2000011E20000A3
:1081100011E2000011E2000011E2000011E2000093
:1081200011E2000011E2000011E2000011E2000083
:1081300011E2000011E2000011E2000011E2000073
:0481400011E2000048
:1081480081F0004102E000BF83F0004330B54FEA00
:1081580041044FEA430594EA050F08BF90EA020F6D
:108168001FBF54EA000C55EA020C7FEA645C7FEA00
:10817800655C00F0E2804FEA5454D4EB5555B8BF23
:108188006D420CDD2C4480EA020281EA030382EA94
:10819800000083EA010180EA020281EA0303362D26
:1081A80088BF30BD11F0004F4FEA01314FF4801CF9
:1081B8004CEA113102D0404261EB410113F0004F0B
:1081C8004FEA03334CEA133302D0524263EB4303C2
:1081D80094EA050F00F0A780A4F10104D5F1200E60
:1081E8000DDB02FA0EFC22FA05F2801841F10001BB
:1081F80003FA0EF2801843FA05F359410EE0A5F18F
:1082080020050EF1200E012A03FA0EFC28BF4CF0BF
:10821800020C43FA05F3C01851EBE37101F0004575
:1082280007D54FF0000EDCF1000C7EEB00006EEB82
:108238000101B1F5801F1BD3B1F5001F0CD349080C
:108248005FEA30004FEA3C0C04F101044FEA445263
:1082580012F5800F80F09A80BCF1004F08BF5FEAEA
:10826800500C50F1000041EB045141EA050130BDCA
:108278005FEA4C0C404141EB0101013C28BFB1F5DC
:10828800801FE9D291F0000F04BF01460020B1FA27
:1082980081F308BF2033A3F10B03B3F120020CDAFA
:1082A8000C3208DD02F1140CC2F10C0201FA0CF0D8
:1082B80021FA02F10CE002F11402D8BFC2F1200C3D
:1082C80001FA02F120FA0CFCDCBF41EA0C019040F3
:1082D800E41AA2BF01EB0451294330BD6FEA04043C
:1082E8001F3C1CDA0C340EDC04F11404C4F1200227
:1082F80020FA04F001FA02F340EA030021FA04F339
:1083080045EA030130BDC4F10C04C4F1200220FA8F
:1083180002F001FA04F340EA0300294630BD21FACD
:1083280004F0294630BD94F0000F83F4801306BF93
:1083380081F480110134013D4EE77FEA645C18BF87
:108348007FEA655C29D094EA050F08BF90EA020F1E
:1083580005D054EA000C04BF1946104630BD91EA16
:10836800030F1EBF0021002030BD5FEA545C05D119
:108378004000494128BF41F0004130BD14F5800458
:108388003CBF01F5801130BD01F0004545F0FE41CC
:1083980041F470014FF0000030BD7FEA645C1ABF01
:1083A800194610467FEA655C1CBF0B46024650EA38
:1083B800013406BF52EA033591EA030F41F4002164
:1083C80030BD00BF90F0000F04BF0021704730B5EA
:1083D8004FF4806404F132044FF000054FF00001BF
:1083E80050E700BF90F0000F04BF0021704730B580
:1083F8004FF4806404F1320410F0004548BF404255
:108408004FF000013EE700BF42004FEAE2014FEAA9
:1084180031014FEA02701FBF12F07F4393F07F4F84
:1084280081F06051704732F07F4208BF704793F087
:108438007F4F04BF41F40021704730B54FF460749A
:1084480001F0004521F000411CE700BF50EA01029D
:1084580008BF704730B54FF000050AE050EA010246
:1084680008BF704730B511F0004502D5404261EBB6
:1084780041014FF4806404F132045FEA915C3FF4F7
:10848800D8AE4FF003025FEADC0C18BF03325FEA94
:10849800DC0C18BF033202EBDC02C2F1200300FA45
:1084A80003FC20FA02F001FA03FE40EA0E0021FA6A
:1084B80002F11444BDE600BF70B54FF0FF0C4CF458
:1084C800E06C1CEA11541DBF1CEA135594EA0C0F0A
:1084D80095EA0C0F00F0DEF82C4481EA030621EA45
:1084E8004C5123EA4C5350EA013518BF52EA033580
:1084F80041F4801143F4801338D0A0FB02CE4FF032
:108508000005E1FB02E506F00042E0FB03E54FF061
:108518000006E1FB03569CF0000F18BF4EF0010E59
:10852800A4F1FF04B6F5007F64F5407404D25FEA55
:108538004E0E6D4146EB060642EAC62141EA555108
:108548004FEAC52040EA5E504FEACE2EB4F1FD0C4A
:1085580088BFBCF5E06F1ED8BEF1004F08BF5FEAC8
:10856800500E50F1000041EB045170BD06F000467A
:1085780046EA010140EA020081EA0301B4EB5C0427
:10858800C2BFD4EB0C0541EA045170BD41F480111F
:108598004FF0000E013C00F3AB8014F1360FDEBF44
:1085A800002001F0004170BDC4F10004203C35DA20
:1085B8000C341BDC04F11404C4F1200500FA05F3A3
:1085C80020FA04F001FA05F240EA020001F0004244
:1085D80021F0004110EBD37021FA04F642EB0601BA
:1085E8005EEA430E08BF20EAD37070BDC4F10C04E4
:1085F800C4F1200500FA04F320FA05F001FA04F2A8
:1086080040EA020001F0004110EBD37041F1000193
:108618005EEA430E08BF20EAD37070BDC4F120059E
:1086280000FA05F24EEA020E20FA04F301FA05F206
:1086380043EA020321FA04F001F0004121FA04F2AE
:1086480020EA020000EBD3705EEA430E08BF20EA7E
:10865800D37070BD94F0000F0FD101F000464000B8
:1086680041EB010111F4801F08BF013CF7D041EA3A
:10867800060195F0000F18BF704703F0004652003E
:1086880043EB030313F4801F08BF013DF7D043EA0F
:108698000603704794EA0C0F0CEA135518BF95EAC5
:1086A8000C0F0CD050EA410618BF52EA4306D1D14C
:1086B80081EA030101F000414FF0000070BD50EA6B
:1086C800410606BF1046194652EA430619D094EAF5
:1086D8000C0F02D150EA013613D195EA0C0F05D1DF
:1086E80052EA03361CBF104619460AD181EA030133
:1086F80001F0004141F0FE4141F470014FF00000EB
:1087080070BD41F0FE4141F4780170BD70B54FF085
:10871800FF0C4CF4E06C1CEA11541DBF1CEA135505
:1087280094EA0C0F95EA0C0F00F0A7F8A4EB0504E7
:1087380081EA030E52EA03354FEA013100F08880DE
:108748004FEA03334FF0805545EA131343EA1263A7
:108758004FEA022245EA111545EA10654FEA00265C
:108768000EF000419D4208BF964244F1FD0404F515
:10877800407402D25B084FEA3202B61A65EB030571
:108788005B084FEA32024FF480104FF4002CB6EB2E
:10879800020E75EB030E22BFB61A754640EA0C00AE
:1087A8005B084FEA3202B6EB020E75EB030E22BFEE
:1087B800B61A754640EA5C005B084FEA3202B6EB2F
:1087C800020E75EB030E22BFB61A754640EA9C00EE
:1087D8005B084FEA3202B6EB020E75EB030E22BFBE
:1087E800B61A754640EADC0055EA060E18D04FEA7C
:1087F800051545EA16754FEA06164FEAC30343EA1C
:1088080052734FEAC2025FEA1C1CC0D111F4801FE8
:108818000BD141EA00014FF000004FF0004CB6E7E1
:1088280011F4801F04BF01430020B4F1FD0C88BF80
:10883800BCF5E06F3FF6AFAEB5EB030C04BFB6EB8B
:10884800020C5FEA500C50F1000041EB045170BD7E
:108858000EF0004E4EEA113114EB5C04C2BFD4EBAB
:108868000C0541EA045170BD41F480114FF0000E2F
:10887800013C90E645EA060E8DE60CEA135594EAAB
:108888000C0F08BF95EA0C0F3FF43BAF94EA0C0FAE
:108898000AD150EA01347FF434AF95EA0C0F7FF423
:1088A80025AF104619462CE795EA0C0F06D152EA77
:1088B80003353FF4FDAE1046194622E750EA41065B
:1088C80018BF52EA43067FF4C5AE50EA41047FF46C
:1088D8000DAF52EA43057FF4EBAE12E74FF0FF3CD1
:1088E80006E000BF4FF0010C02E000BF4FF0010CA2
:1088F8004DF804CD4FEA410C7FEA6C5C4FEA430C1B
:1089080018BF7FEA6C5C1BD001B050EA410C0CBF69
:1089180052EA430C91EA030F02BF90EA020F0020CB
:10892800704710F1000F91EA030F58BF994208BF32
:1089380090422CBFD8176FEAE37040F001007047EF
:108948004FEA410C7FEA6C5C02D150EA013C07D146
:108958004FEA430C7FEA6C5CD6D152EA033CD3D091
:108968005DF8040B704700BF8446104662468C468B
:108978001946634600E000BF01B5FFF7B7FF0028BE
:1089880048BF10F1000F01BD4DF808EDFFF7F4FFE7
:108998000CBF012000205DF808FB00BF4DF808ED72
:1089A800FFF7EAFF34BF012000205DF808FB00BF95
:1089B8004DF808EDFFF7E0FF94BF012000205DF8B7
:1089C80008FB00BF4DF808EDFFF7CEFF94BF01206C
:1089D80000205DF808FB00BF4DF808EDFFF7C4FF65
:1089E80034BF012000205DF808FB00BF4FEA410CAE
:1089F8007FEA6C5C02D150EA013C0AD14FEA430C91
:108A08007FEA6C5C02D152EA033C02D14FF00000CD
:108A180070474FF0010070474FEA410212F500120B
:108A280015D211D56FF47873B3EB625212D94FEAAD
:108A3800C12343F0004343EA505311F0004F23FA97
:108A480002F018BF404270474FF00000704750EAEC
:108A5800013005D111F0004008BF6FF000407047A9
:108A68004FF00000704700BF4A0011D212F5001203
:108A780011D20DD56FF47873B3EB62520ED44FEA6E
:108A8800C12343F0004343EA505323FA02F07047EE
:108A98004FF00000704750EA013002D14FF0FF302C
:108AA80070474FF0000070474FEA4102B2F1E043CF
:108AB80024BFB3F5001CDCF1FE5C0DD901F0004CBD
:108AC8004FEAC0024CEA5070B2F1004F40EB83000D
:108AD80008BF20F00100704711F0804F21D113F139
:108AE8003872BCBF01F00040704741F480114FEA72
:108AF8005252C2F11802C2F1200C10FA0CF320FAFB
:108B080002F018BF40F001004FEAC1234FEAD32317
:108B180003FA0CFC40EA0C0023FA02F34FEA430381
:108B2800CCE77FEA625307D150EA01331EBF4FF00A
:108B3800FE4040F44000704701F0004040F0FE4025
:108B480040F40000704700BF53B94AB9002908BF74
:108B580000281CBF4FF0FF314FF0FF3000F02AB85B
:108B6800ADF1080C6DE904CE00F04FF8DDF804E033
:108B7800DDE9022304B07047D0B500220B4B06464E
:108B88000F46FFF799FCFFF76FFF0446FFF71AFC43
:108B98000022074BFFF790FC02460B463046394649
:108BA800FFF7D2FAFFF760FF2146D0BD0000F03D85
:108BB8000000F041704700BF10F8012B11F8013B8D
:108BC800012A28BF9A42F7D0D01A7047034613F8F3
:108BD800012B002AFBD1181A0138704738B500223A
:108BE800002304460D46FFF7D9FE28B9204629463A
:108BF800BDE83840FFF7C0BF204605F10041FFF748
:108C0800BBFF404261EB410138BD2DE9F047864684
:108C18008C460846089E154674461946002B40F0B7
:108C2800C1808542B2FA82F245D94AB1C2F1200325
:108C380000FA02FC954094402EFA03F343EA0C0C28
:108C48004FEA154EA8B2230CBCFBFEF80EFB18CC5D
:108C580008FB00F943EA0C43994528D9EB1808F1B9
:108C6800FF3704D2994502D9A8F102072B44A3EB98
:108C78000903A4B2B3FBFEFC0EFB1C330CFB00F093
:108C880044EA0344A04214D92C190CF1FF3304D24E
:108C9800A04202D9ACF102032C44241A43EA07404B
:108CA8001EB1D440002334607360BDE8F0874746A6
:108CB800DDE76346F1E792BB431B01214FEA154EFE
:108CC800AFB2200CB3FBFEFC0EFB1C330CFB07F809
:108CD80040EA0343984561D9EB180CF1FF3004D200
:108CE800984502D9ACF102002B44A3EB0803A4B2C7
:108CF800B3FBFEFC0EFB1C330CFB07F744EA0344F2
:108D0800A7424DD92C190CF1FF3304D2A74202D93E
:108D1800ACF102032C44E41B43EA0040C0E7C2F173
:108D280020039540944020FA03F12EFA03F34FEA0A
:108D3800154E9040AFB20343B1FBFEFC0EFB1C1076
:108D4800190C0CFB07F841EA0041884522D969183B
:108D58000CF1FF3004D2884502D9ACF10200294455
:108D6800A1EB08019BB2B1FBFEFC0EFB1C110CFB36
:108D780007F743EA01439F420ED9EB180CF1FF3184
:108D880004D29F4202D9ACF102012B44DB1B41EA19
:108D9800004193E76046E3E76146F7E76046A4E7EA
:108DA8006346B8E7834206D916B9002108467CE72E
:108DB800C6E900E0F9E7B3FA83F78FB9834201D334
:108DC800724508D8BEEB020460EB030301209C4601
:108DD8001EB9002169E73846FAE7C6E9004CF8E70A
:108DE800C7F1200CBB400EFA07F522FA0CF42EFA54
:108DF8000CF1BA401C4320FA0CF3B8404FEA14496E
:108E080001431FFA84FEB3FBF9F809FB18300B0C79
:108E180008FB0EFA43EA00439A4540D9E31808F1E3
:108E2800FF3004D29A4502D9A8F102002344A3EBEB
:108E38000A0389B2B3FBF9F809FB183308FB0EFEE5
:108E480041EA03418E452CD9611808F1FF3304D259
:108E58008E4502D9A8F10203214443EA0040A1EB60
:108E68000E01A0FB02984145CE46434602D306D1E7
:108E78004D4504D20138B9EB020E68EB0403002E0D
:108E8800A7D0B5EB0E0261EB030101FA0CFC22FA44
:108E980007F3F9404CEA0303C6E9003199E7404675
:108EA800C5E74346D9E700002DE9F8431EA3D3E9F7
:108EB8000023274C81468846D4E90001FFF746F98C
:108EC80006460F46C4E900670FF002FD04460D464A
:108ED800304639460FF0B6FC22462B46FFF7ECFA2F
:108EE80000221C4BFFF7E8FA11A3D3E90023FFF790
:108EF8000DFC11A3D3E90023FFF728F90022C9E9E3
:108F08000001144B20462946FFF7D6FA0CA3D3E9F3
:108F18000023FFF7FBFB0CA3D3E90023FFF716F9A7
:108F2800C8E90001BDE8F8839A9999999999A93FE8
:108F380000000000802DFB40C3F5285C8FBA4F402D
:108F48003C921F170951E840BA490C022BC724402C
:108F5800E0CD002000003E402DE9F04FA5B004AF61
:108F680007F0F6FC20B10121A74AA84810F037F80D
:108F78000321A74AA54810F032F806F0C1FE0346BF
:108F880070B1A44A0121A14810F02BF80121A24A8E
:108F98009E4810F024F800208437BD46BDE8F08FC5
:108FA80003219E4A994810F01AF89D4807F05AFF85
:108FB800034608B19B4AE5E74FF0FF334FF0FF3215
:108FC80099480BF0F3FC0321984A904810F007F8F1
:108FD800012012F073FC964807F0EAFC20B1012149
:108FE800944A8A480FF0FBFF934802F06BFB054652
:108FF80030B10346914A012184480FF0F2FFCAE7D5
:10900800DFF83CB2DBF8000014F0A8F818B98D4876
:1090180010F007FBBFE7DBF80000026981681368FE
:10902800DFF824A223F4004313600B68874A0F215A
:109038000FF2CC19D9E9008998477F4811F086FECC
:10904800034690B1824A012170480FF0CAFF0135EA
:10905800F3D03C2303217F4A6C480FF0C2FF002164
:109068004FF4F0100CF08AF9E7E7514672480FF018
:10907800AAFF034608B1784ABDE7DBF80000036998
:109088007B60826807F11C063146526890470446A7
:1090980028B97B68FC691B685C40C4F3C03421466E
:1090A8006E4810F0BEFA012C16D107F1100107F135
:1090B8000800FFF7F9FE6A4B1A7852BB1C7021466C
:1090C8000623684A5C4802F0B3FA034608B3032152
:1090D800654A4E480FF085FF41F28832012150461B
:1090E80011F02CF8002865DA11F024F85F4A0368BB
:1090F800012146480FF075FF03215D4A43480FF0F0
:109108006EFF4D4811F0CEFE034600289FD0594A05
:1091180099E7D7E9020142464B46FFF7CDF9FFF739
:109128007BFC42460446D7E904014B46FFF7C4F9E5
:10913800FFF772FC504A90FBF2F194FBF2F302FB4A
:10914800110002FB13440028B8BF4042002CB8BFEE
:109158006442CDE90110494A6421304600940DF07B
:109168000DFC3046FFF732FD3246034601213248F6
:1091780002F05EFA034650B10321414A23480FF03A
:1091880030FF00214FF480300CF0F8F8A4E76C466B
:1091980088B004AA3B49C2E905164FF400719183CF
:1091A800394942F8101F4FF4E651184804F008F9FD
:1091B800A546E6E7204811F0EDFE034620B110F180
:1091C8000B0F01D0314A93E7BAF80630D90706D514
:1091D800194811F004FF034608B12D4A88E7BAF987
:1091E80006301A0705D52B4A012108480FF0F7FE6B
:1091F80082E79B067FF541AF274AF5E7AFF300808A
:109208000000000080842E4189FB010084ED0100EC
:10921800AEFB0100C9FB010057FC0100FBFB01008C
:109228007DB8000015FC01003CCD00203EFC01008B
:10923800EF8F010075FC0100B0DA00209EFC0100F0
:1092480080C50020C3FC0100A8DA0020100001003E
:10925800F8FC0100DAFC010012FD010028FD010004
:10926800F0E5002036F9010005FB010097FD01003B
:10927800EBFD010005FE010040420F003DFD01002D
:109288005EFD01007FFD010003000001ABFD010050
:10929800C2FD0100DAFD0100E2FD0100000000004E
:1092A8002DE9F04F1F469DB000230C4682460E92D2
:1092B80018934FF00008974B4FF000091D68284697
:1092C800FFF784FC22468346179213782B2B3BD05A
:1092D8002CD80D2B26D8082B26D8002B2FD00023CE
:1092E8000C93179E3378302B72D1737803F0DF0319
:1092F800582B63D10C9B17A9874A5046019318AB8A
:109308000297009319AB0EF011F810F00705044608
:1093180035D0062D1AD10E9B0BB101361E60404682
:10932800494637E0202BDAD10132CDE72D2BD6D1B3
:1093380001230C93531C17935378002BD1D10E9B08
:10934800002BECD01C60EAE70023F2E7189A3AB148
:1093580035211AA815F07CF9189950460EF0A6FA8E
:10936800013D199A042D06D8DFE805F017032023DC
:109378001700DDE91A89210701D549F000490E9B3C
:1093880013B1179B0E9A13600C9B002BC7D0404655
:1093980009F100411DB0BDE8F08FDDE91A8302F242
:1093A800334223F4801343EA0259E4E7DFF86C916F
:1093B800E1E76FF000494FF0FF38DCE7179B5A1CD4
:1093C80017925B78302BF9D0002BD8D0012300E01E
:1093D8000023002704930A22179BCDE905770A93F7
:1093E80017980678A6F13003D9B2092924D95A4624
:1093F800294614F043FD00282DD000203246059D53
:1094080083460346652A01D0452A13D11DB9049A1B
:10941800024394D00025179C621C179262782B2A6D
:109428006ED02D2A72D04FF0000CA2F1300109291C
:109438007AD91794002699E00599013008291790E0
:10944800D7BF069902FB073702FB01330693059B3A
:1094580001330593C4E7179B03EB0B02179213F82C
:109468000B20059BA3B383461D46A2F13003092BAD
:1094780012D90123C6E7179B01305A1C17925A7854
:10948800302AF8D0A2F13103082B00F2EA8483468F
:109498000020179B05460A93303A00F1010311D0CA
:1094A8009B4400EB050C2B460A21634512D12B186F
:1094B8000135082B054419DC06990A2303FB01230F
:1094C80006930023179A1846511C17915278CCE737
:1094D8000598D5E7082B03F1010303DC069E4E43EC
:1094E8000696E2E7102BD8BF4F43DEE70F2BDCBF11
:1094F8000A2303FB0727E4E74FF0000B012386E765
:109508004FF0000CA21C1792A2788EE74FF0010CC6
:10951800F8E700BF88F6010014F601000000F07FAC
:10952800179A511C17915278302AF9D0A2F13101BB
:1095380008293FF67FAF303A0792179A0D92179A8B
:10954800561C17965278A2F1300EBEF1090F38D981
:109558000D99761A082E44F61F6603DC07998E4289
:10956800A8BF0E46BCF1000F00D07642002D4FD1A7
:10957800049908437FF403AF002B7FF4E0AE692A17
:1095880029D026DC492A26D04E2A7FF4D8AE9D4918
:1095980017A814F0C3FE00283FF4D1AE179B1B7820
:1095A800282B2FD11AAA984917A814F0CBFE052802
:1095B80028D11B9BDDF8688043F0FF4949F4E00996
:1095C800DDE6079E0A2101FB0621A1F13002079280
:1095D800B5E76E2AD9E78D4917A814F09FFE002831
:1095E8003FF4ADAE179B17A88949013B179314F0B8
:1095F80095FE10B9179B01331793DFF818924FF0B7
:109608000008BCE684480FF0AFF880468946B6E605
:10961800A6EB0B0306982C460F93059B002B08BF5F
:109628002B46102D0593A8BF1024FEF7CBFE092D5D
:109638008046894614DCA6EB0B03002B3FF49FAE53
:10964800A6EB0B0379DD162B45DC0F9B42467349CD
:1096580001EBC3014B46D1E90001FEF72DFFD4E72A
:109668006E4B03EBC40353E91223FEF725FF804634
:1096780089463846FEF7A6FE02460B46404649464E
:10968800FEF764FD0F2D80468946D4DD2C1BA6EB22
:109698000B031C44002C26DC00F0A380644214F069
:1096A8000F020AD05D4B4046494603EBC203D3E99B
:1096B8000023FFF72BF880468946241100F091809B
:1096C8001F2C40F3B38022234FF000084FF000090D
:1096D800CAF8003053E6C5F12503A6EB0B02934206
:1096E80019DA2C1B144414F00F030AD04B494246D4
:1096F80001EBC3014B46D1E90001FEF7DDFE8046D0
:10970800894634F00F046CD0B4F59A7F41DD2223EA
:10971800CAF8003071E7C5F10F05404C42464B4688
:1097280004EBC501D1E90001FEF7C6FE0F9B5D1BE6
:1097380004EBC504D4E900238FE71633A6DBABEBB3
:109748000602364B4046494603EBC203D3E90023E1
:10975800FEF7DCFF59E7002306932223DFF8B490D5
:109768004FF00008CAF80030189950460EF09EF8DD
:10977800069950460EF09AF8059950460EF096F85C
:10978800109950460EF092F8079950460EF08EF850
:10979800F5E50023241140464946214F0493012C46
:1097A80022DC0BB180468946049BA9F154791C49F7
:1097B800424601EBC3014B46D1E90001FEF77CFEAE
:1097C800144B0A4680460B4016498B429FD8A1F598
:1097D80080118B4286BFDFF850904FF0FF3802F1BE
:1097E8005479002304934CE0E20704D5D7E9002319
:1097F800FEF762FE0123049A6410083701320492CE
:10980800CDE700BF5E12020000F601000C00020066
:10981800C71202000000F07F370D020008EF0100B8
:10982800E0EE01000000A07CFFFFEF7F14F01003C2
:1098380040464946AB4F18BF6A2304930023E2070A
:1098480004D5D7E90023FEF737FE0123641007F19A
:109858000807F4D10BB180468946049B43B1C9F38C
:109868000A524946C2F16B03002B50DC6A23049369
:109878000022002340464946FFF786F800287FF477
:1098880022AF069B5046059A00932B460A990EF084
:1098980077F8109000283FF43AAF0F9BABEB060B1C
:1098A800002BB4BF5B46002311930F9B23EAE3739D
:1098B8001493002307930593109B504659680DF0A5
:1098C800B5FF069000283FF448AF109B0C301A698A
:1098D80003F10C010232920014F06DF91AAB424602
:1098E8005046019319AB00934B46CDE90A890EF017
:1098F80017FB189000283FF430AF012150460EF0B6
:1099080089F803460590D0B90023059325E71F2B56
:109918000EDD342B4FF00008DBBF4FF0FF33C2F1F0
:109928004B024FF05C799340D8BF03EA01099DE7E9
:109938004FF0FF3202FA03F303EA080896E7199C8E
:109948001A9A002CA9BF119B149BE718149EB8BF44
:109958001E1B049BB8BF119FE41A634B1444C2F149
:109968003602013C9C4280F2B0801B1B01251F2B54
:10997800A2EB0302CDBFC4F17F449D40002404F54F
:109988007F04C2BF04F57B44E23405FA04F407EB14
:10999800020B049B16445F451E443B46A8BF5B462A
:1099A800B342A8BF3346002BC2BFABEB030BF61A7A
:1099B800FF1A119B002B16DD1A46059950460EF02A
:1099C800E9F8059000289FD00146189A50460EF0F5
:1099D80037F80D9000283FF4C0AE189950460DF0A6
:1099E80065FF0D9B1893BBF1000F71DC0F9B002BDB
:1099F80008DD149A504606990EF0CCF80690002817
:109A08003FF4A9AE002E08DD3246069950460EF006
:109A18001BF9069000283FF49EAE002F08DD3A4659
:109A2800059950460EF010F9059000283FF495AEC0
:109A3800069A504618990EF073F9079000283FF4DB
:109A48008CAEC36805990D930023C36014F0B5FD6F
:109A580000284BDA0D9B53EA080340F0BC80C9F399
:109A68001303002B40F0B78029F000431B0D1B05A2
:109A7800B3F1D66F40F2AF80079B5B6923B9079BB0
:109A88001B69012B40F3A7800122079950460EF06D
:109A9800DBF80599079014F090FD002840F39B80AF
:109AA80029F00043049A1B0D1B05002A79D0B3F155
:109AB800D66F6DD8B3F15C7F46D84FF000084FF0F1
:109AC80000092223CAF800304EE6002401255EE78B
:109AD8005A46189950460EF0B7F81890002885D1C4
:109AE8003BE600BFB8EE010002FCFFFFCB4640F0AA
:109AF800A3800D9AC9F31303002A40D0964A9342D3
:109B080058D1049B42467BB9B8F1FF3F40F08980A9
:109B1800924B99453FF421AE914BDDF8108009EA4C
:109B2800030303F580191FE68D4B09EA0303B3F11C
:109B3800D46F16D918F101011BD1884A91453FF419
:109B48000CAE03F580198046864B404649460022F4
:109B5800FEF7B2FC0B468046894603437FF404AE09
:109B6800AFE71E0D4FF0FF31C6F16B06B1408845D7
:109B7800E7D0002C5ED014EA0B0FE5D01EE0002BD6
:109B88004AD1B8F1000F8BD064B314EA0B0F2BE065
:109B9800A3F580134FF0FF386FEA13596FEA09599C
:109BA800D2E7A3F580134FF0FF386FEA13596FEA35
:109BB8000959D9E59CB114EA090F0CD0049A40461A
:109BC800494614F0A2F902460B46DDE90A01FEF700
:109BD800BDFA80468946049B002BB5D1C4E515EA39
:109BE800080FEAE718EA050FF5D0049A40464946F7
:109BF80014F08BF902460B46DDE90A01FEF7A4FAD8
:109C08000022002304460D46FEF7BEFE00287FF41E
:109C180054AFA046A946DEE7002CB6D115EA080FD6
:109C2800E2E724B114EA090F3FF49EADC6E718EA4B
:109C3800050FF9E72A42A0E70599079814F0D8FC20
:109C480000224FF0804304460D46FEF7B1FE00287F
:109C58006DD00D9B002B78D1B8F1000F56D1C9F308
:109C68001303002B59D100223F4B20462946FEF70B
:109C780095FE002858D12046294600223B4BFEF786
:109C88001BFC04460D4605F1004308940993344B28
:109C9800334A0BEA03030BEA02021593344B9A4248
:109CA800DDE9086740F09E80ABF1547940464946AB
:109CB8000EF0CCF8DDE90823FEF7FEFB42464B46E2
:109CC800FEF744FA0B46264980462A4A1940914233
:109CD80054D90B9A214B9A4203D10A9B01333FF482
:109CE8003CADDFF878904FF0FF38189950460DF0EA
:109CF800DDFD069950460DF0D9FD059950460DF049
:109D0800D5FD079950460DF0D1FDD5E5B8F1010F05
:109D180003D1B9F1000F3FF4D0AE174C0023124D18
:109D2800CDE908340024B2E70024104DABE70F4B0F
:109D3800204629460022FEF7BFFB0D9B04460D4630
:109D4800002BA0D0CDE90845A1E7074C0023254604
:109D5800CDE908341C469AE7FFFF0F00FFFFEF7FAD
:109D68000000F07F000050390000F03F0000E03FA5
:109D78000000E07FFFFF9F7C0000F0BF03F15479F3
:109D8800049B4E46002BB0D129F00043159A1B0DB9
:109D98001B059A42A9D120462946FEF71FFFC9F3A1
:109DA8001306FEF75BFB0B4602462946204646EAA9
:109DB8000806FEF7C9F90D9B04460D461E434AD016
:109DC8002DA3D3E90023FEF7E9FD00287FF4CCACEE
:109DD800204629462AA3D3E90023FEF7FDFD0028E3
:109DE80083D0C1E4049B13B3159BB3F1D46F1ED881
:109DF8002046294624A3D3E90023FEF7D9FD90B1D4
:109E080029462046FEF730FE012838BF0120FEF71C
:109E1800D9FA0D9B04460D46D3B901F100431290BF
:109E28001393DDE9126707F1D663159A9F1ADDE9E6
:109E38000A010EF00BF802460B4630463946FEF78B
:109E48003BFBDDE90A23FEF781F98046894697E75F
:109E5800CDE91245E5E70EA3D3E90023FEF79EFD01
:109E6800BDE7652A3FF448AB452A3FF445AB0123DB
:109E7800FFF77EBBAFF300809535A094FFFFDF3F6F
:109E880035E5AF350000E03F0000C0FFFFFFDF41D0
:109E98009535A094FFFFCF3F2DE9F04F144697B0BA
:109EA8001D46476A8346239ECDE904457FB91020A5
:109EB8000BF00CFE0246CBF8240020B9A24BEA2195
:109EC800A2480DF019F9C0E901770760C760DBF80F
:109ED8002430196859B15A680123584693404A609A
:109EE8008B600DF0E3FCDBF8243000221A602B1E97
:109EF800B7BF23F00043002301220593A8BF3360B6
:109F0800059F934BB8BF3260BB4319D142F20F7320
:109F1800229A1360C7F31303234300F0E085249BC0
:109F280053B98C4B21E08C4B08930833249A136067
:109F3800089817B0BDE8F08F864B08930333F5E710
:109F4800DDE90423CDE90C23DDE90C01002200231F
:109F5800FEF71AFD804650B10123229A1360249B14
:109F680013B17E4B249A13607D4B0893E0E714AB42
:109F7800C7F30A565846019315AB0093DDE90C2345
:109F88000DF0CEFF0390002E78D00D9BA6F2FF3681
:109F9800CDF84C80C3F3130343F07F53DDE90C0184
:109FA80043F44013194600226E4BFEF7CDF860A328
:109FB800D3E90023FEF780FA5FA3D3E90023FEF775
:109FC800C5F804460D463046FEF70CFA5CA3D3E903
:109FD8000023FEF771FA02460B4620462946FEF793
:109FE800B5F804460D46FEF717FD00220746002384
:109FF80020462946FEF7D2FC40B13846FEF7F2F972
:10A0080022462B46FEF7C0FC00B9013F162F54D854
:10A01800554B03EBC703DDE90C01D3E90023FEF739
:10A02800BDFC00284BD0013F00231293149B9B1BBF
:10A038005A1E4CBFC3F1010300230A9245BF069381
:10A04800002306930A93002F3BDB0A9B0F973B44A0
:10A058000A9300230B93209B092B00F28980052B80
:10A06800C5BF043B002401242093209B023B032B03
:10A0780000F28980DFE803F02D3A3859DDE91463EE
:10A088001E4406F23243202BC9BFC3F14003C3F17B
:10A0980020039F4006F21243D8BF04FA03F006F1EA
:10A0A800FF36C4BF24FA03F347EA0300FEF78AF930
:10A0B8000122A1F1F873139274E70123B5E7129016
:10A0C800B4E7069BDB1B06937B420B9300230F939D
:10A0D800C1E700230E93219B002B57DC01239946EF
:10A0E8001A46099321920CE00123F3E700230E930B
:10A0F800219BFB1803F1010909934B46012BB8BFBB
:10A108000123DBF824000021042202F114059D42FA
:10A1180040D9416058460DF089FB089000283CD191
:10A12800124B02464FF4D571CAE60123DFE700BFA0
:10A1380061436F63A787D23FB3C8608B288AC63F45
:10A14800FB799F501344D33FD1120200E81202005A
:10A158000000F07FCD120200C4120200040E0200BB
:10A16800030E02000000F83F08EF0100421302004E
:10A17800012400230E9420934FF0FF3300229946C8
:10A1880009931223AEE701230E93F5E7219B994625
:10A198000993B6E701315200B7E7DBF82430B9F18B
:10A1A8000E0F089A1A606FD8002C6DD0002F36DD7C
:10A1B80007F00F02A04BF80503EBC203D3E9003404
:10A1C800CDE910344FEA271417D59C4B04F00F043F
:10A1D8004FF00308D3E90823DDE90C01FEF796FAEE
:10A1E800CDE90401954D5CB9DDE91023DDE90401F1
:10A1F800FEF78CFACDE904012BE04FF00208F1E7F5
:10A20800E10709D508F10108DDE91001D5E90023C6
:10A21800FEF752F9CDE9100164100835E3E700F0C4
:10A2280007817C42844B854D4FF0020804F00F02F1
:10A23800241103EBC203DDE90C01D3E90023FEF787
:10A248003BF90023CDE90401002C40F0E580002B08
:10A25800D0D1129BDDE90445002B00F04C8100228F
:10A26800774B20462946FEF799FB002800F04381EA
:10A27800B9F1000F00F03F81099B002B00F3E48047
:10A28800DDE90C34CDE90434159B002B02DB0E2FDD
:10A2980040F342820E9A002A40F067820B9C002508
:10A2A800DDF81880B8F1000F0DD00A9B002B0ADDED
:10A2B8004345069AA8BF4346D21AA8EB030806925C
:10A2C8000A9AD31A0A930B9B0BB30E9B002B00F030
:10A2D800A682002C00F0A1822946224658460DF09D
:10A2E80059FC039A0146054658460DF0A9FB039907
:10A2F800064658460DF0DAFA0B9B1B1B0B9300F031
:10A3080091820B9A314658460DF044FC0390012186
:10A3180058460DF07FFB0F9B0446002B00F084820B
:10A328001A46014658460DF035FC209B0446012B81
:10A3380003DC049B002B00F07C820026236904EBDD
:10A348008303186914F0EAF8C0F120000F960A9BFD
:10A35800184410F01F0000F09182C0F12003042B74
:10A3680040F38182C0F11C00069B0344804406939D
:10A378000A9B03440A93069B002B05DD1A460399A2
:10A3880058460DF061FC03900A9B002B05DD214621
:10A398001A4658460DF058FC0446129B002B00F054
:10A3A80076822146039814F008F9002880F26F821B
:10A3B80000230A22039958460DF09AFA0E9B7E1E36
:10A3C8000390002B00F05C82002329460A2258469D
:10A3D8000DF08EFA099B0546002B03DC209B022B0F
:10A3E80000F35E82B8F1000F05DD29464246584663
:10A3F8000DF02AFC05460F9B002B00F0D0826968FF
:10A4080058460DF013FA0746002840F07F820D4B9E
:10A41800024640F2EA2153E5E20706D508F10108B1
:10A42800D5E90023FEF748F80123641008350BE747
:10A438004FF002080DE700BF08EF0100E0EE010051
:10A448000000F03F4213020020460022AC4B294690
:10A45800FEF732F87E1E08F10108099CCDE90401D7
:10A468004046FDF7BFFFDDE90423FEF725F8A54BBD
:10A478000022FDF76BFEA1F15073CDE91001119395
:10A48800002C3BD10022A04BDDE90401FDF75CFE66
:10A4980002460B46CDE90423DDE91023FEF79CFABA
:10A4A800002840F05781DDE9102101F10043DDE982
:10A4B8000401FEF773FA00283FF4E2AE00242546B3
:10A4C800219BDDF820A0DE434FF0000821465846C6
:10A4D8000DF0ECF9002D00F0A980B8F1000F05D0BF
:10A4E800A84503D0414658460DF0E0F9294658469C
:10A4F8000DF0DCF99AE03E464C46B1E7834B03EB9E
:10A50800C40353E90201089B1C440E9B002B4AD04C
:10A5180002460B4600207E49FEF7F8F8DDE91023D5
:10A52800FDF712FEDDF820A0CDE91001DDE90401F8
:10A53800FEF772FA0546FDF755FF024630350B4621
:10A54800DDE90401FDF700FE0AF8015B02460B464F
:10A55800CDE90401DDE91001FEF73EFA002865D1D6
:10A5680000206C49DDE90423FDF7EEFD02460B46A9
:10A57800DDE91001FEF730FA002840F00D81A24510
:10A5880000F0EA8000225E4BDDE91001FDF794FF40
:10A5980000225B4BCDE91001DDE90401FDF78CFFDA
:10A5A800CDE90401C2E7DDE91023FDF785FFA046E8
:10A5B800DDF820A0CDE91001DDE90401FEF72CFA51
:10A5C8000546FDF70FFF024630350B46DDE904016D
:10A5D800FDF7BAFD0AF8015B02460B46A245CDE934
:10A5E80004234FF0000223D1494BDDE91001FDF7A8
:10A5F800ADFD02460B46DDE90401FEF7EDF9002842
:10A6080040F0CA8000204249DDE91023FDF79CFD97
:10A6180002460B46DDE90401FEF7C0F970B1C246F7
:10A6280008F1FF381AF8013C302BF8D0374655E0CE
:10A63800334BFDF741FFCDE90401BDE7DDE90C34FB
:10A64800CDE90434159B002BFFF628AE0E2F3FF7FB
:10A6580025AE2E4B03EBC703D3E90034CDE906340E
:10A66800219B002B02DAB9F1000F64D0DDF820A09D
:10A67800DDE90445DDE9062320462946FEF746F8CC
:10A68800FEF7CAF90646FDF7ADFEDDE90623FDF73C
:10A6980013FF0246204606F130040B462946FDF713
:10A6A80053FD0AF8014B089C02460B46AAEB04042A
:10A6B800A14540F08280FDF749FD04460D46DDE9DD
:10A6C8000623FEF789F9002865D120462946DDE9E9
:10A6D8000623FEF759F908B1F3075CD403995846E5
:10A6E8000DF0E4F8002301378AF80030229B1F6040
:10A6F800249B002B3FF41CACC3F800A018E400BF57
:10A708000000244000001C400000144008EF010035
:10A718000000E03F0000F03FA24B03EBC703D3E982
:10A728000034CDE90634219B002B9FDAB9F1000FE4
:10A738009CDC7FF4C3AE00229B4BDDE90601FDF7EC
:10A74800BBFEDDE90423FEF73DF9044600287FF44B
:10A75800B5AE3E462546B4E0DDE90C34CDE9043417
:10A76800159B002B01DB0E2FD6DD209A012A36DC43
:10A77800139A82B303F233430B9CDDF81880069AD0
:10A78800012158461A4406920A9A1A440A920DF070
:10A7980041F9054686E53E4653469A4613F8012D8B
:10A7A800392A06D1089A9A42F7D1302208990136F7
:10A7B8000A701A7801321A7038E700227B4BFDF7CD
:10A7C8007BFE0022002304460D46FEF7DDF8002834
:10A7D8003FF450AF82E7149BC3F13603CCE709F18D
:10A7E800FF340B9BA34208DBB9F1000FA3EB040471
:10A7F8000EDBDDF818804B46C1E70B9B0F9AE31A76
:10A808000B94DDF8188000241A444B460F92B6E7E3
:10A81800069BA3EB09080023B1E7039E71E50B9A99
:10A82800039970E5039672E5209B012B17DC049BC6
:10A83800ABB9059BC3F313039BB9059B23F00046F3
:10A84800360D360536B1069B0126013306930A9B61
:10A8580001330A930F9B002B7FF470AD0F960120F4
:10A8680075E50026F6E73FF486AD1C33069A1A44D0
:10A87800984406920A9A1A440A927CE50346F4E739
:10A88800099B002B2BDC209B022B09DC27E0B9F16C
:10A89800000F1DDC209B022B1ADD3E46CDF82490CC
:10A8A800099B002B7FF40CAE2146052258460DF07B
:10A8B8001FF801460446039813F07FFE00287FF72F
:10A8C800FFADDDF820A0312301360AF8013BFBE596
:10A8D8000E9B3E46CDF82490002B7FF483AD089F55
:10A8E8002146039813F061FB089B00F13009099A8F
:10A8F80007F8019BFB1A9A4240F3CB8000230A22F7
:10A90800039958460CF0F4FF0390E9E72A6905F12A
:10A918000C010C300232920013F04DF90122394635
:10A9280058460DF091F9089BA846054603F1010A1F
:10A93800DDE9082313440A93049B03F001030B93F6
:10A948000AF1FF3321460398069313F02EFB414684
:10A95800099000F13009039813F02FFE2A4621468A
:10A96800074658460DF0DCF9C268014602B358465E
:10A978000CF09CFF002F3ADA0122039958460DF09B
:10A9880063F92146039013F018FE002803DC29D14F
:10A9980019F0010F26D0B9F1390F1DD132E0284640
:10A9A800C1E700BF08EF0100000014400000244088
:10A9B8000E90039813F001FE0E990C9058460CF077
:10A9C80075FF0C9A5ABB209B53B90B9B43B9B9F13D
:10A9D800390F17D0002F05DD099B03F1310901E07C
:10A9E800002F2ADADDF818A00AF8019B6EE5209BF3
:10A9F8003B4304D1049B03F00103002BBCD0B9F105
:10AA0800390F36D1069F392307F8013BBA46013F73
:10AA18001AF8013C392B5AD001333B7056E5002F08
:10AA280006DB209B3B4306D1049B03F0010313B9CB
:10AA3800002AA1DCD6E7002AE1DC0A9B57460AF87F
:10AA4800019C53452ED000230A22039958460CF046
:10AA58004FFFA84503904FF000034FF00A0241460C
:10AA680058460BD10CF044FF804605460AF1010A0E
:10AA780066E7DDF818A009F10109B5E70CF038FF21
:10AA88002946804600230A2258460CF031FF054625
:10AA9800ECE7099B4FF00008002BCCBF1F460127AD
:10AAA800089B1F440122039958460DF0CDF8214612
:10AAB800039013F082FD0028A8DC02D119F0010FE1
:10AAC800A4D1BA4617F8013D302BFAD0FEE4089B12
:10AAD800BB429BD13123089A01361370F6E4249BBC
:10AAE800002B7FF420AA014BFFF73FBAC4120200E3
:10AAF8002DE9F04FC44B21F000488DB0064698452B
:10AB08000F461446049107D80023C2E900670022C3
:10AB1800C4E90223002526E0BC4B984576D8049B5F
:10AB2800BB4D002BAAA3D3E9002338DDFDF70CFBAE
:10AB3800A84506460F461AD0A7A3D3E90023FDF778
:10AB480003FB02460B468046894630463946FDF7E8
:10AB5800FBFAA1A3D3E900230125FDF7F5FAC4E91F
:10AB68000089C4E9020128460DB0BDE8F08F9CA316
:10AB7800D3E90023FDF7E8FA06460F469AA3D3E97E
:10AB88000023FDF7E1FA02460B4680468946304627
:10AB98003946FDF7D9FA94A3D3E90023DCE7FDF79A
:10ABA800D5FAA84506460F4618D08BA3D3E900234B
:10ABB800FDF7CCFA02460B468046894630463946B0
:10ABC800FDF7C2FA84A3D3E90023FDF7BFFA4FF0DB
:10ABD800FF35C4E90089C4E90201C4E780A3D3E9C9
:10ABE8000023FDF7B3FA06460F467FA3D3E90023F7
:10ABF800FDF7ACFA02460B46804689463046394690
:10AC0800FDF7A2FA78A3D3E90023DEE7814B984544
:10AC180000F2CF8013F010FF06460F4674A3D3E965
:10AC28000023FDF749FC00227B4BFDF78FFAFDF767
:10AC3800F3FE0546FDF7D6FB02460B46CDE9022397
:10AC480063A3D3E90023FDF737FC02460B463046E1
:10AC58003946FDF779FA82468B465FA3D3E900238C
:10AC6800DDE90201FDF728FC1F2D06460F460CDC26
:10AC78006A1E6A4B53F82230434506D032463B469B
:10AC880050465946FDF760FA0EE03B4632465046BC
:10AC98005946FDF759FA4FEA28530593C1F30A5369
:10ACA800C3EB1853102B02DCC4E9000139E04CA3B4
:10ACB800D3E90023DDE90201FDF7FEFB06460F4656
:10ACC80002460B4650465946FDF73EFA02460B46E9
:10ACD8008046894650465946FDF736FA32463B4685
:10ACE800FDF732FA06460F463FA3D3E90023DDE914
:10ACF8000201FDF7E1FB32463B46FDF725FA024625
:10AD08000B4606460F4640464946FDF71DFA059A8A
:10AD1800C1F30A53D31A312B20DCC246CB46C4E90F
:10AD28000001D4E900895046594642464B46FDF792
:10AD38000BFA3B463246FDF707FA049B002BC4E9A1
:10AD48000201BFF610AF09F10043C4F80080A0600B
:10AD5800636001F10043E3606D4204E726A3D3E991
:10AD68000023DDE90201FDF7A7FB06460F46024670
:10AD78000B4640464946FDF7E7F902460B46824630
:10AD88008B4640464946FDF7DFF932463B46FDF71C
:10AD9800DBF906460F461AA3D3E90023DDE90201D1
:10ADA800FDF78AFB32463B46FDF7CEF906460F46CD
:10ADB80064E71B4B984535D902460B46FDF7C4F9A5
:10ADC800C4E90201C4E90001A4E600BFAFF30080B2
:10ADD80000004054FB21F93F3163621A61B4D03D51
:10ADE8000000601A61B4D03D7370032E8A19A33B2A
:10ADF80083C8C96D305FE43F0000002E8A19A33B69
:10AE0800C14920259A837B39FB21E93F7BD9024040
:10AE1800FB21F93FFB2139410000E03FA0F601008A
:10AE2800FFFFEF7F4FEA28550DF13009A5F21645CF
:10AE3800A8EB05514FF003080F46FDF7EDFDFDF7B0
:10AE4800D1FA02460B4630463946CDE90623FDF7CE
:10AE58007BF900221F4BFDF72FFB0F460646FDF737
:10AE6800DBFDFDF7BFFA02460B46304639460026A1
:10AE78000027CDE90823FDF767F90022154BFDF7F8
:10AE88001BFBCDE90A0132463B46C24608F1FF38B2
:10AE980079E90201FDF778FD0028F4D10E4B2A4626
:10AEA800214606A801930223009353460DF056FD50
:10AEB800049B0546002BBFF656AED4E9002101F1EC
:10AEC8000043C4E90023D4E9022101F10043C4E9A5
:10AED800022341E70000704120F701000000000054
:10AEE8002DE9F74F21F0004680468946B6F1795F93
:10AEF800CDE9002304D2FDF78FFD002800F08680FD
:10AF080042464B4640464946FDF7D6FA04460D46AA
:10AF180000224D4BFDF7D0FA82468B462046294643
:10AF28003DA3D3E90023FDF7C7FA3DA3D3E90023E6
:10AF3800FDF70CF922462B46FDF7BEFA3AA3D3E9F2
:10AF48000023FDF701F922462B46FDF7B5FA38A391
:10AF5800D3E90023FDF7FAF822462B46FDF7ACFAB1
:10AF680035A3D3E90023FDF7EFF822462B46FDF77A
:10AF7800A3FA33A3D3E90023FDF7E8F822462B46CA
:10AF8800FDF79AFA22462B46FDF796FA04460D4637
:10AF980040464946DDE90023FDF78EFA0B46024696
:10AFA80029462046FDF7D0F8284B804689469E4220
:10AFB8000ED802460B4650465946FDF7C5F80246DC
:10AFC8000B4600202249FDF7BFF803B0BDE8F08F1B
:10AFD800204B002400201E499E42224694BFA6F51D
:10AFE80000151D4D2B46FDF7AFF8224606460F46C5
:10AFF8002B4650465946FDF7A7F842464B46FDF703
:10B00800A3F802460B4630463946DCE700201049D3
:10B01800DBE700BFAFF30080D43888BEE9FAA8BDEB
:10B02800C4B1B4BD9EEE213EAD529C804F7E923E8F
:10B038009015CB19A001FA3E7751C1166CC1563F45
:10B048004C5555555555A53F0000E03F3233D33F89
:10B058000000F03F0000E93F0000D23F0000000080
:10B068002DE9F04F1F4621F0004385B00446B3F1A7
:10B07800795F0D46164603D2FDF7CEFC002851D065
:10B0880022462B4620462946FDF716FA82468B466D
:10B0980002460B4620462946FDF70EFA80468946A9
:10B0A800504659463CA3D3E90023FDF705FA3CA3D3
:10B0B800D3E90023FDF748F852465B46FDF7FCF953
:10B0C80039A3D3E90023FDF741F852465B46FDF763
:10B0D800F3F937A3D3E90023FDF736F852465B4668
:10B0E800FDF7EAF934A3D3E90023FDF72FF80E9B07
:10B0F800CDE90001DBB902460B4650465946FDF73B
:10B10800DBF92FA3D3E90023FDF71EF842464B468F
:10B11800FDF7D2F902460B4620462946FDF716F8F8
:10B1280004460D462046294605B0BDE8F08F0022AA
:10B13800254B30463946FDF7BFF9DDE90023CDE957
:10B14800020140464946FDF7B7F902460B46DDE9DC
:10B158000201FCF7F9FF52465B46FDF7ADF93246AE
:10B168003B46FCF7F1FF06460F464046494614A306
:10B17800D3E90023FDF7A0F902460B4630463946CD
:10B18800FCF7E4FF02460B4620462946FCF7DCFFA5
:10B19800C6E700BFAFF300807CD5CF5A3AD9E53D6A
:10B1A800EB9C2B8AE6E55A3E7DFEB157E31DC73E70
:10B1B800D561C119A0012A3FA6F810111111813FCC
:10B1C800495555555555C53F0000E03F0000000062
:10B1D8002DE9F041C1F30A5702460B460C46A7F287
:10B1E800FF3605468046132E36DC002E17DA34A3C8
:10B1F800D3E90023FCF7AAFF00220023FDF7ECFBAC
:10B2080050B1002C58DA24F000442C430025AC42FD
:10B218002D4C08BF4FF0004423462A4625E02B4F0B
:10B22800374101EA070C5CEA000C1ED024A3D3E9DD
:10B238000023FCF78BFF00220023FDF7CDFB00283D
:10B24800EAD0002C4FF00005BEBF4FF48013334105
:10B25800E41824EA0704DFE7332E0ADDB6F5806F29
:10B2680003D1FCF773FF02460B4610461946BDE8AA
:10B27800F081A7F213474FF0FF3C2CFA07F707427B
:10B28800F3D00FA3D3E90023FCF760FF00220023CB
:10B29800FDF7A2FB0028BFD0002C0ADA142E01D13A
:10B2A800013406E0C6F134060123B3401D44454588
:10B2B800F6D325EA0705AFE700252C46ACE700BF23
:10B2C8009C7500883CE4377E0000F0BFFFFF0F004C
:10B2D8002DE9F0481646C1F30A5283468C460B46C0
:10B2E80082B921F00043034335D02D4B0022FDF7EE
:10B2F800E3F82C4B83468C469E420DDA24A3D3E90F
:10B3080000231CE040F2FF77BA4209D10246FCF75D
:10B318001DFF83468C461EE0C1F30A520B46363A9F
:10B32800324440F2FE718A420CDD4FEADC711E485D
:10B3380019A3D3E900231C4661F3DF742146FDF706
:10B34800BBF8E6E7002A0ADD23F0FF4323F4E00315
:10B3580043EA0255AC4658466146BDE8F08812F10A
:10B36800350F09DA0CF00043104843F0D27141F46C
:10B37800B73141F01F01C1E723F0FF433632584689
:10B3880023F4E00343EA02550022094B2946D6E795
:10B3980059F3F8C21F6EA5019C7500883CE4377EFE
:10B3A80000005043B03CFFFF9C75008859F3F8C279
:10B3B8000000903CF8B502F1080323F0070300AF42
:10B3C800ADEB030D05466846144612F0F4FB002366
:10B3D8006E460DF804308AB06A460849D661C2E95B
:10B3E800051507491162074942F8101F4FF4235108
:10B3F800054801F0E5FFBD46F8BD00BF3EF8010075
:10B40800000201030400000284ED01002DE9F0436D
:10B4180089B00B7806460C4602AF092B00F2D6809D
:10B42800DFE813F00A0040004400C000D400D40054
:10B43800D400C700D400CE00CD6935B12B46644A8C
:10B44800012164480DF0BDFD28E00321624A6148EE
:10B458000EF022FD614B07F10C0493E80700604BE6
:10B4680084E807007C606C468AB0BB6002AA5D4B2A
:10B4780053615D4B93611523D3614FF400731384BB
:10B488005A4B42F8103F4FF4135152482B4601F0E3
:10B4980097FF3046A546391D0FF02CFD1C37BD46D9
:10B4A800BDE8F083CB69524A0321CAE74A69CB69F0
:10B4B8000321009247484F4A0EF001FDD4F814804A
:10B4C800B8F1800F12D9DFF8309149463046A8F11B
:10B4D80080020FF0A5FD051E27D028DBA8EB050884
:10B4E800B8F1800FF1D86FF0790901E04FF0000949
:10B4F8004246304640490FF096FD0546B8B9237BD1
:10B50800012B06D1238B3046BB8107F10C010FF0CC
:10B51800A3FCB9F1000F16D06369802201210092C3
:10B528002C48364A0EF0CBFCB8E76FF00405237BB5
:10B53800012B06D1238B3046BB8107F10C010FF09C
:10B548008BFC002D17DB62692B492D48FFF732FF72
:10B5580006222C49284812F091FC10B910F0AEF9D7
:10B568009CE707222849244812F088FC002895D136
:10B5780010F0A7F992E715F17A0FCDD02B460121EB
:10B58800224A14480DF01DFD0321214A11480EF0EE
:10B5980083FC30460FF086FC034600283FF47EAF5C
:10B5A8001C4A4DE7CB690BB11B4A49E78B881B4AFC
:10B5B8007AE7CB690BB11A4A42E78B88194A73E7D5
:10B5C800CB69002B3FF46AAF174A39E7174A6BE794
:10B5D80043F8010084ED01005BF8010060EE010012
:10B5E8000100D20471F801008BF801000400000189
:10B5F800A1F80100BEF8010070E40020DCF80100A9
:10B608002BF9010036F901003DF9010045F9010067
:10B6180065F9010082F901009BF90100B1F9010007
:10B62800C6F90100DCF90100F1F9010009FA01008D
:10B638002DE9F0434FF0150889B0DFF8749000AF9A
:10B64800064614461D46C7E905233974C7F808900D
:10B65800C7F80C800421781803F096F87B682A460E
:10B66800BB83BB7F214623F0030312486C46BB779C
:10B67800FFF7A0FE8AB06A460F4BC2F81C80C2E9E9
:10B6880005394FF4007313840C4B42F8103F002324
:10B698004FF413510A4801F093FE07F10801A5463B
:10B6A80030460FF095FB2437BD46BDE8F08300BF58
:10B6B8008BF8010027FA010034FA010004000001A8
:10B6C80084ED01002DE9F04F01269DB002AF07F18E
:10B6D800140804460FF023FB54220021404612F0C0
:10B6E80077FA3B4642460021C7E9076645480EF00F
:10B6F80033FD054688B103463146434A43480DF0B9
:10B7080060FC434A314641480EF0C6FB6FF009051C
:10B7180028466C37BD46BDE8F08F4FF0080A3E68F2
:10B72800DFF8F09039482EB3B369082B4AD1F36992
:10B7380039495B6801204B6045F607333E1D4B8055
:10B7480008801023324604310EF002FDE94688B025
:10B7580002AB324AC3E905264FF400729A831A46AF
:10B768002F4B42F8103F00234FF4E651274801F0D1
:10B7780027FECD4638680EF0EDFC274B1721636392
:10B78800284B4046A364284A07F04CFC034668B39C
:10B798000121264A1D480DF014FC2548E062FDF7FA
:10B7A80015FA042284F85E20224A0023E2648022EB
:10B7B8002149C4E90E33C4E915122063226584F8CF
:10B7C8002430A5E7EB468AB002AAC2E905931823FC
:10B7D80013620523C2F81CA042F8103F00234FF45F
:10B7E800215101F0EDFDDD4636689BE787F823001F
:10B7F8000F231421114ACDF800800D480BF0BEF834
:10B80800CBE700BF49FA01005CFA010084ED0100B2
:10B8180073FA0100B0FA010040E400209AFA01002E
:10B828000300000115B40000D3FA0100DBFA01009F
:10B838005CE4002070E50020F0E40020FCFA010040
:10B848000623012110B5074A0748FFF7F1FE034612
:10B8580030B1BDE810400321044A05480DF0C1BBD2
:10B8680010BD00BF36F90100B0DA002005FB010069
:10B8780084ED010098B5037800AF1BB1032B20D0ED
:10B88800BD4698BD037A012B19D0052BF8D11A4B68
:10B898006C4688B06A461949C2E905134FF400732B
:10B8A8009383174B42F8103F00234FF4E651154895
:10B8B80001F086FDA546144809F052F8E0E7134B5D
:10B8C800E6E7017A124A134B6C4688B0012908BF93
:10B8D80013466A461049C2E905134FF4007393836F
:10B8E800074B42F8103F00234FF4E651054801F09A
:10B8F80067FDA546C4E700BF39FB01005CFB0100FA
:10B908000300000184ED01003CCD002020FB010074
:10B918004DFB010057FB01007CFB01002DE9F04FB6
:10B9280091B0009302F004030293C2F3C2030133FF
:10B93800840705460E46DDF868900392059340F0AB
:10B94800BB81041D30B1072909D86FF01B0011B065
:10B95800BDE8F08F01F00706341DC6F10806009B0C
:10B968004FF000084FF0040A591E4FF0FF334746C6
:10B978000193C3465346CDF810800DB1009A22605A
:10B988000598002800F3E8809848009A824203D37B
:10B9980097488242C0F0E080039AA4EB050E920714
:10B9A8004FEA9E0000F103810F2F00F2B180002DB5
:10B9B80000F0058107F140020DEB020C019A0CF82A
:10B9C800200C0CF8102C049801300490E7E07A2839
:10B9D8005DD84B280ED8472859D829282DD825288E
:10B9E80052D054D820287AD02338D0F1000B4BEB12
:10B9F800000B74E04C382E2849D8DFE800F0704876
:10BA0800484848484848484848484B4848484848AB
:10BA180048484859484B4B595959704B6D487048DC
:10BA2800184B184848827F4B48484B487F000020F5
:10BA38004FF0000B4FF0040A38E001222A38C0B258
:10BA480002FA00F010EA0E0F49D110F0625C2FD113
:10BA580010EA020B43D06046013C5444B4FBFAF4AC
:10BA68000AFB04F4002D61D0A3EB050CA444B445F3
:10BA78003FF66BAF002868D1042B47D159F8043B37
:10BA88002360042304342AE0019A013A01924FF01A
:10BA9800000B24E011F8010C6C2834D1002011F8B7
:10BAA800023C83466C2BC5D14FF0080A5346D3E7B6
:10BAB80009F1070929F00709073424F00704F9E810
:10BAC80002AB35B106982044B0423FF63EAFC4E918
:10BAD80000AB4FF0000B08344FF0080A534611F83A
:10BAE800010F002878D0BBF1000F7FF470AF252834
:10BAF800F5D14FF0010B019B013301934FF0040A7C
:10BB0800ECE7584694E700208346A5E7082B02D0C7
:10BB18006FF015001BE709F1070929F00709F9E893
:10BB28000223C4E9002308230834D8E768B9042BA2
:10BB380002D109F10409A4E7082BE9D109F10709A1
:10BB480029F0070909F10809EDE7059A013A059274
:10BB580059F8042B009210E7039A900720D54FF06C
:10BB6800010CA4EB050E4FEA9E00BEF5007FCFD274
:10BB78000F2FCDD8F5B107F140020DEB020E019A57
:10BB8800C0B20EF8200C0EF8102CBCF1000F3FF4D8
:10BB98001AAF60F07F000EF8200C08F10108013799
:10BBA800C5F108024FF6DA7E0434069297E74FF0A3
:10BBB800000CDAE7BCF1000F01D00136EFE702987C
:10BBC80002360028EBD10098CDE90631FCF7FEFFDC
:10BBD800DDE906310644E2E7631BB3F5806F97D2CF
:10BBE80045B9A6F10804E018B1E600BF50EA010023
:10BBF80050140200029A9B0828602B709DF81030A0
:10BC0800C2B1EB7085F80280B8F1000F05D00022B0
:10BC180008A8C5F1010C97420ED14FF0000AC5F1F2
:10BC280001030DF1200901930DF1300B574512D195
:10BC3800601B8CE66B70E5E710F8013B190608D528
:10BC480004EB0C0EB64503F07F033FF67EAE04F816
:10BC5800013B0132DFE7B8F1000F03D099F900206A
:10BC6800002A17DB029BD3B11AF80B2004F8012B2A
:10BC78000022019B98182044B0423FF666AE99F81E
:10BC88000000009904F8010B2046039211F093FF7D
:10BC9800039A14440AF1010A09F10109C6E799F85F
:10BCA800002055F822300093029B009845F8223076
:10BCB800FCF78CFF421CDCE76FF00D0047E600BF85
:10BCC8002DE9F04F97B000AFD7F880B03B62CBF3C7
:10BCD800C0030446894690F802A0FA62BB6141B9E4
:10BCE800457800780AEB800020444D4517D8A0EB32
:10BCF8000409E378FB61BAF1000F02D01BF0010FD1
:10BD080016D1FB6953BBFB6A1BB1494620463A6A08
:10BD180098474D4628465C37BD46BDE8F08F461C1F
:10BD28003046FCF753FF0130304409F10109DCE7E4
:10BD3800626823787A62FA6A9900796104EB830170
:10BD4800002A40F001810E464FF000084D4601EBF5
:10BD58000A094E454CD101EB0A0610E01BF0020F10
:10BD6800D1D023789A007A61626804EB83017A6201
:10BD7800FA6A002A77D14D46904601EB0A061BF075
:10BD8800050F0CBF02230123FB62FB6906EB430A84
:10BD98000BF00203BB625645BCD016F8021B16F81E
:10BDA800013C54F82390AF4B994502D3AE4B9945CB
:10BDB80036D3BB69002B40D0786A0DF0F9FB002818
:10BDC8003BD0E9468AB06A46A84B53617B6AC2E910
:10BDD80006314FF400731384A54B42F8103F00233B
:10BDE8004FF41251A34801F0EBFA023DCD46D2E7D9
:10BDF80016F8013BF96254F82300FCF7E7FED7F880
:10BE08008430F96A01304BB1D7F8883098453EBF85
:10BE1800D7F8843023F8180008F10108054498E79A
:10BE2800BB6923B1786A0DF0C3FB0028C9D11BF0A8
:10BE3800010F05D1FB6AED1AADE7BB6A002BAAD04A
:10BE48004846FCF7C3FED7F8843053B1D7F888309A
:10BE580098453FBFD7F88420431C22F8183008F1D2
:10BE68000108054497E7BAF1000F73D01BF00406E8
:10BE780073D0D046002607F1480052463B61B962AC
:10BE880011F099FEB96A3B6901EB0A02BA62FA69D4
:10BE9800F9695200FA60BA6A02EB41023A610BF0A2
:10BEA8000202BA603A69B96A8A4258D162781BF0CC
:10BEB800020F18BF00217A6208BF4FEA5801B21872
:10BEC8001BF0010FD2B240F09F801BF0040F14BF8B
:10BED80040460020BB616270A070E17020463A6A5B
:10BEE8007969FB6A9847051EFFF614AFBB6941469E
:10BEF80023707B6A3A6A6370FB6984F802A0E37076
:10BF080007F14800FB6A9847B0F10008C0F2B48016
:10BF18007B69A9EB0A01C91AFB683A6AC91AD7E909
:10BF28000A0398470028C0F2A9804FF0000BA844E4
:10BF380008EB000507F1380AB34567D300213A6AD0
:10BF48000846FB6A9847E5E656464FF0000807F1B1
:10BF5800380092E75646D04696E7B04694E7BA6A64
:10BF680012F8021B12F8015CBA6254F825003D4A27
:10BF7800904202D33C4A90421ED3BA6932B1786AE1
:10BF88007B600DF015FB7B6800288BD1BA6802BB7B
:10BF980008F1280207F1300C08F10100944407F178
:10BFA800580208F1020852FA80F00CF8101C5FFAE7
:10BFB80088F800F8105C75E7BA693AB1786A7B606E
:10BFC8000DF0F6FA7B6800287FF46CAF1BF0010FC8
:10BFD80009D006F1280207F13000711C161806F87E
:10BFE800205CCEB25EE71BF0040F3FF45BAF08F1B4
:10BFF800280207F1300008F1010102EB000808F8F7
:10C00800105C5FFA81F84DE7002063E71BF80A30FF
:10C0180054F8239087F83730D7F88430FBB133F8D9
:10C028001B8001213A6AFB6A07F13700984700280C
:10C0380024DB0544B8F1000F06D14846FCF7C6FDDD
:10C0480000F101081FFA88F8414648463A6AFB6A37
:10C058009847002812DB05440BF1010B6CE7D7F871
:10C068008480DEE750EA0100501402003CFE010023
:10C078000400000194ED010045464BE6054649E6FB
:10C08800014B1860704700BF84C5002030B50025FB
:10C0980087B0CDE903010446009503A90548059535
:10C0A80000F038FADDE904309842B8BF255407B0EB
:10C0B80030BD00BF079601000F2808B506D90EF05D
:10C0C80039F8092303604FF0FF3008BD3022044BD4
:10C0D80002FB0033D3E8AF3F002BF0D00020F4E799
:10C0E80090C500200EB42DE9F741302545431B4C7F
:10C0F80005F10C0626444FF0FF324FF0FF3304EBF6
:10C108000508074630460DF0CDFAD8F804306059D6
:10C118000AAA40F20111DB6801929847051E10DB5C
:10C12800D8F82C3003F47042B2F5E04F05D011D89E
:10C1380003F45043B3F5804F03D1302303FB074486
:10C14800A56230460DF0B0FA284603B0BDE8F041CC
:10C1580003B07047B2F5004FEEE700BF88C5002076
:10C168003023434330B50D4908330B44D3E8AF2F90
:10C1780092B1541ED3E8EF5F954204D1C3E8EC4F67
:10C18800BCF1000FF6D1F1D1012A05D13023584373
:10C1980000230A180B50536030BD00BF88C500202B
:10C1A80070B504460E461546FFF786FF00280DDBDE
:10C1B80030236343064AD1184968316015B10C33FE
:10C1C80013442B6030235C43105970BD0020FCE7FA
:10C1D80088C5002070B500254FF0FF334FF0FF32BF
:10C1E80017480DF05FFA174BD3E8AF2F7AB1013536
:10C1F800102D03F13003F7D10DF09CFF17234FF0FA
:10C20800FF3503600E480DF04FFA284670BD302404
:10C218006C43D3E8EF0F0130C3E8E10F0029F8D1F0
:10C22800094E331932515A6004F10C00304411F0B0
:10C2380061F804F12000304411F05EF9E2E700BF34
:10C24800A8CC002090C5002088C5002030B4044642
:10C25800302510466C43084A151911516860EB6285
:10C2680040B1C36833B10C34131940F2051230BC25
:10C278000DF009BA30BC704788C500202DE9F84F89
:10C28800074689469246FFF717FF002836DB302518
:10C298007D431C4C05F10C06264404EB05084FF0C1
:10C2A800FF324FF0FF3330460DF0FCF9D8F8043078
:10C2B8006059D3F800B052464946D8F82830D847D4
:10C2C800051E12DDD8F82C3003F47042B2F5E04FA9
:10C2D80005D010D803F45043B3F5804F05D130236F
:10C2E80003FB0744A36A2B44A36230460DF0DCF934
:10C2F8002846BDE8F88FB2F5004FEFE74FF0FF355D
:10C30800F6E700BF88C500202DE9F84F07468946A3
:10C318009246FFF7D1FE002836DB30257D431C4CC2
:10C3280005F10C06264404EB05084FF0FF324FF0E8
:10C33800FF3330460DF0B6F9D8F804306059D3F819
:10C3480004B052464946D8F82830D847051E12DDB1
:10C35800D8F82C3003F47042B2F5E04F05D010D86D
:10C3680003F45043B3F5804F05D1302303FB074452
:10C37800A36A2B44A36230460DF096F92846BDE81F
:10C38800F88FB2F5004FEFE74FF0FF35F6E700BF43
:10C3980088C50020F8B50546FFF78EFE00281ADB91
:10C3A80030246C430D4F04F10C063E444FF0FF322D
:10C3B8004FF0FF3330460DF075F93B195B6838597B
:10C3C8009B689847044630460DF06EF92846FFF7FB
:10C3D800C7FE2046F8BD4FF0FF34FAE788C50020B5
:10C3E80070B504460D46FFF767FE00280DDB3023C5
:10C3F80003FB04F006492B460C184FF483720958C6
:10C408006068BDE870400DF03EB94FF0FF3070BD78
:10C4180088C5002073B504460D461646FFF74CFE46
:10C4280000280EDB3022084B40F2011102FB0433D6
:10C438009B6A2A46009320463346FFF753FE02B014
:10C4480070BD4FF0FF30FAE788C50020F0B502460E
:10C4580001680A270020074E0B461C780131355D1C
:10C468006D0701D41360F0BD07FB0043A3F1300052
:10C47800F2E700BF441102002DE9F84F15469A462D
:10C48800D378234A6F2B12F803B081460F460BF07E
:10C49800030B2BD026D8582B0CBF10260A26DDF804
:10C4A80028803246002348463946FCF74DFB092AC6
:10C4B80008F1FF38D4B21ED83034B145E4B277F170
:10C4C800000788F8004001D3D04511D82B789B0687
:10C4D80005D5082E15D1AB7843F00803AB7040465C
:10C4E800BDE8F88F03F0F703702BD5E70826D6E7E9
:10C4F80081460F46D5E7BBF1010F0CBF37345734DF
:10C50800DBE7102EEBD1AB7843F01003E6E700BF72
:10C51800441102002DE9F04F8A4616461C460025B4
:10C5280097B00390307808B9284655E325280AD0F3
:10C538005146039B98470028C0F24E83731C01356F
:10C548000493049EEEE71822002110A811F040FB86
:10C558007378252B00F0A380002398469E469C46BE
:10C568001846711C0F4611F8012B2B2A00F0C680C3
:10C5780000F2BD80202A00F0C480232A00F0C48085
:10C588002BB19DF8483043F040038DF84830B8F19E
:10C59800000F05D09DF8483043F020038DF848304F
:10C5A800BEF1000F05D09DF8483043F010038DF818
:10C5B8004830BCF1000F05D09DF8483043F008031F
:10C5C8008DF8483028B19DF8483043F004038DF8C1
:10C5D80048309DF8483003F04401442903D16FF3F3
:10C5E80086138DF848309DF848302A2A43F0800396
:10C5F80009978DF8483040F08C809DF8493043F019
:10C6080001038DF849307B1C1A782E2A0CBF0121B2
:10C6180000219DF8492061F341028DF849200CD191
:10C628005A1C09925A782A2A40F083809DF849209A
:10C63800023342F004028DF849201A786C2A00F07F
:10C64800A48000F28680682A00F08C806A2A00F0B4
:10C65800A5804C2A00F0AA801A4612F8013B782BD4
:10C6680004928DF84B309DF8492000F217816D2B0C
:10C6780000F2A980692B00F21181572B00F2BE80CD
:10C68800412B03D0453B022B00F2088104229DF880
:10C698004A3062F302038DF84A300123CAE08DF86C
:10C6A8004B30B31C04939DF84930D90740F1FD8005
:10C6B80054F8048BB8F1000F07DA9DF84820C8F148
:10C6C800000842F004028DF848205A0740F1F6802D
:10C6D80054F804BBBBF1000F80F2F5809DF8493097
:10C6E8006FF341038DF849304FF0FF3BEBE02D2A03
:10C6F8000DD0302A7FF444AF012333E74FF0010C0B
:10C7080030E74FF0010E2DE74FF001082AE701202E
:10C7180028E709A8FFF79AFE099BBB423FF474AFCC
:10C728009DF848201390C00F60F341028DF848200F
:10C738006AE709A8FFF78AFE9DF848301490C3F30A
:10C74800400242EAD07262F341038DF84830099BF7
:10C7580073E7742A26D07A2A7FF47EAF06219DF8E3
:10C7680049200CE05A78682A9DF8492006D1012111
:10C7780061F3C6028DF8492002336DE7022161F3A7
:10C78800C6028DF84920013366E75A786C2A9DF86D
:10C79800492001D10421EBE70321F0E705219DF8A9
:10C7A8004920ECE707219DF84920E8E7BDF8482033
:10C7B80022F4F04222F0020242F4804242F00202E5
:10C7C800ADF84820DFE76E3BD9B201238B4040F239
:10C7D80082410B4238D113F0240F52D1DF075DD5C7
:10C7E80003219DF84A3061F302038DF84A3002F0C4
:10C7F8007803A3F14000434243411BE00120A3F129
:10C808005801C9B200FA01F111F4624F7FF43EAF4A
:10C8180040F6010739421DD111F4043F3ED09DF87E
:10C828004A3060F3020302F07802402A8DF84A3059
:10C8380034D000239DF84820C2F340010B4363F332
:10C8480041028DF848202EE702219DF84A3061F315
:10C858000203E8E702209DF84A1002F0780260F32C
:10C868000201402A8DF84A1002BF9DF8481041F095
:10C8780001018DF84810632BDBD1131E18BF01236B
:10C88800D8E703219DF84A3012F0780F61F30203CC
:10C898008DF84A3014BF01230023CBE79DF84830B8
:10C8A80043F001038DF84830C3E79DF94820002A7A
:10C8B800ACBF4FF0FF38DDF84C8006E79F077FF5E7
:10C8C80013AFDDF850B00023CDE913339DF84A309B
:10C8D8009DF8491003F00703012BC1F3C30132D1BE
:10C8E800CB1E042B04D8DFE803F0204545202000A8
:10C8F800236801294FEAE372CDE910321BD19DF973
:10C908004030DA17CDE9103204349DF8483013F07E
:10C9180003074FD032465146049B03980CF0C8FEDB
:10C928000028C0F2598105440BE654F8043BDA1795
:10C93800CDE91032E9E70229E6D11AB243F3C03350
:10C94800CDE91023E0E7022B24D1CB1E042B04D819
:10C95800DFE803F018101018180001294FF0000242
:10C9680054F8043B14D00229CDE91032CDD19BB242
:10C978001093CAE7073424F00704F4E80223CDE94A
:10C988001023C2E754F8043B109300231193BCE72B
:10C99800DBB2CDE7042B08D1073424F00704D4E92F
:10C9A80000230834CDE91023AFE7032BADD154F8A9
:10C9B800043BDDE79DF84B0078283FF6C2AD6228BE
:10C9C8001ED8252850D058287FF4BBADDDE91001CA
:10C9D8000DF13E03009312AA0AABFFF74DFDBBF120
:10C9E800000F814680F2C180B9F1000F3FF4A9AD74
:10C9F8000DF13E06A6EB0903002F7BD0013379E049
:10CA0800633815283FF69DAD01A252F820F000BF0B
:10CA1800EBCA000049CB00004BC500004BC5000025
:10CA28004BC500004BC5000049CB00004BC50000BA
:10CA38004BC500004BC500004BC5000095CB00005E
:10CA48006DCB0000A9CA00004BC500004BC5000013
:10CA580081CA00004BC500006DCB00004BC500002B
:10CA68004BC500006DCB00005146039B984700283A
:10CA7800C0F2B280013564E5BBF1000FDDF84090EB
:10CA88000ADB5946484611F01EFAB9F1000F3FF487
:10CA980058AD09EB000620E04846FCF797F8F8E7A0
:10CAA8001098002800F086800DF13E060AAB0021A0
:10CAB800009612AAFFF7E0FCBDF84A30BBF1000F60
:10CAC80003F0EF0343F4F04343F010038146ADF85D
:10CAD8004A3049DA00283FF434AD0027A6EB0903B1
:10CAE80008E0109B00278DF8283001230DF1290656
:10CAF8000DF128099DF84A1011F0100206925FD036
:10CB08000233139A134405924A0644BF14995B18DA
:10CB1800B8F1000F6DDDA8EB03089DF84830580701
:10CB2800C3F3800B65D4590659D53FB151463846F1
:10CB3800039B984700284FDB5F46013530234FE0C1
:10CB48001E075ABFC3F300135F012B27DDE910232B
:10CB5800002BBFF63BAF524263EB43032D27CDE9D1
:10CB6800102333E7002731E700279DF848100DF11F
:10CB78003E03A3EB09036FF386119B458DF848101C
:10CB88007FF632AFABEB030313932DE7109B072916
:10CB98003FF6D7ACDFE801F00C04060C08080C0CD3
:10CBA8001D70CEE41D80CCE4EA17C3E90052C8E446
:10CBB8001D60C6E4304E07460523A6F1050999E72E
:10CBC800080748BF01339CE7184607935146039B63
:10CBD80098470028079B04DA17B0BDE8F08F202398
:10CBE800C346594600290BF1FF3BEDDC4544D846C6
:10CBF8006D1A37B151463846039B98470028EBDB3E
:10CC080001359DF84A30DA0601D41B0706D551468E
:10CC18003020039B98470028DEDB0135069B3BB19B
:10CC280051469DF84B00039B98470028D4DB0135FB
:10CC3800059F2F4406E051463020039B9847002863
:10CC4800CADB01357B1B002BF5DC33464A465146CF
:10CC580003980CF02DFD0028BEDB0544A844A8EB82
:10CC68000503002B7FF76DAC51462020039B9847A6
:10CC78000028B1DB0135F2E7F5FE01002DE9F047A8
:10CC8800058B04462807904611D4022905F00705AC
:10CC980040F0CC8020460CF082FF78B10138218B1F
:10CCA800042811D8DFE800F0C2106D85950001292D
:10CCB8000CBF45F0100545F02005258388F3118841
:10CCC800BFF36F8FBDE8F08701F0070AAA4500F0AF
:10CCD800A5800027B9463E46A368002B00F0BC801B
:10CCE80041F00801218388F31188BFF36F8FA16891
:10CCF800002900F0BA800D68002900F0B68033469C
:10CD080052462046D1F80480C047002D76D02B68C3
:10CD180029461D46F0E701F007035A1F012A1BD8D0
:10CD2800002221F00701062B276889B2C4E90022F6
:10CD380009D13B4603E0628B013262831B68002BFA
:10CD4800F9D141F00201204621830CF028FF002888
:10CD58007AD041F0200176E0042B0AD121F00701B6
:10CD680089B2204621830CF01AFF10B141F020014E
:10CD78002183218B01F0070AAA454FD00027B94625
:10CD8800AAE7236921F0070141F00601062DD3F82F
:10CD9800009021832DD1B9F1000F3FD041F0080157
:10CDA800218388F31188BFF36F8F20463949C8471C
:10CDB80029E021F00701236941F0040189B2042D1B
:10CDC800D3F804902183E6D000274FF0040A3E46AA
:10CDD80082E721F00701236941F0050189B2052D99
:10CDE800D3F808902183D6D000274FF0050A3E4695
:10CDF80072E700274FF0060A3E466DE72B4687E7A5
:10CE0800B9F1000FD1D1EFF31188202383F31288F1
:10CE1800BFF36F8F238B23F008032383258BEA0648
:10CE28002ED525F01003238305F007056669218BAD
:10CE3800002EBFF670AF00232768C4E9003321F045
:10CE4800070141F001012183218B4FF0000901F016
:10CE5800070AAA457FF440AF002F9CD041F0080193
:10CE6800218388F31188BFF36F8F002FC8D03D68E6
:10CE780039463346524620460CF0BDFE2F46F4E7AD
:10CE8800AB067FF51BAF25F02003238305F00705CC
:10CE980000E700BF2B9C01002DE9F0470446074638
:10CEA8004FF00109DFF8508014B93846BDE8F08723
:10CEB80094FAA4F5B5FA85F509FA05F32E0108EBFD
:10CEC80005156FEA030A24EA03042B7B002BEBD039
:10CED80058F806301B694BB9464473680422284643
:10CEE800196807EA0A0700F057FADDE72846984765
:10CEF8000028D9D1F0E700BF4CEE010030B5002280
:10CF080089B00F490F4810F09BFC00220023002431
:10CF1800CDE906230E230C4DCDE903344FF44072BE
:10CF28002846CDE90144094B0949009407F074FFEC
:10CF38000849284610F0EAFA204609B030BD00BF7B
:10CF480061CF000088D20020E8CD00204DD200003B
:10CF5800D0EA0020F6FE0100014807F001BD00BF3D
:10CF680024CD00202DE9F04780461F480F460CF0DD
:10CF780011FF0646002830D000252846BDE8F08776
:10CF8800237B6BB12368DB680BB120469847236885
:10CF98001B69D3B9636804222046196800F0FCF9BC
:10CFA800013610344C45EBD3B8F1000FE5D0002D15
:10CFB800E2D02846FFF770FF0546002FF7D0002182
:10CFC8004FF4A47008F0DAF9F1E7204698470028F2
:10CFD800E0D00AFA06F31D43E2E705464FF0010ADE
:10CFE800024CDFF80C90DDE728DB00204CEE010056
:10CFF8005CEE0100014B53F82000704734F001004B
:10D0080008B5034608462BB1044A136000F072FCC9
:10D01800002008BD6FF01500FBE700BF88C800209E
:10D0280010B5044C237813B9034807F099FC012381
:10D03800237010BDF1E5002024CD002010B5044672
:10D0480009480CF0A7FE3CB1084BD3E8EF1F0139A3
:10D05800C3E8E21F002AF8D1054810F0FDFBBDE83F
:10D068001040044807F07CBC20DB002024DB0020B3
:10D0780088D2002024CD002000200146034BD3E8AD
:10D08800EF0FC3E8E21F002AF9D1704720DB002028
:10D0980070B5FFF7F1FF0546074C084EB44200D3C0
:10D0A80070BD63685B792BB123685B6813B129464F
:10D0B800204698471034F1E74CEE01005CEE010081
:10D0C80010B5044C044920460CF005FC034B1C60C9
:10D0D80010BD00BFECCB002020F0010018DB0020C1
:10D0E80008B50023074A4FF400411370064A074861
:10D0F8001360074A1360FFF783FFBDE80840FFF796
:10D10800DFBF00BFF2E5002020DB0020999D010071
:10D1180024DB002001460022002301480CF0FCBB60
:10D12800ECCB002001480CF092BC00BFECCB0020F7
:10D13800024B014618680CF0DEBC00BF18DB00206B
:10D1480001480CF013BD00BFECCB002070B5264B96
:10D158001878002847D0FFF7E5FF054670B1234B44
:10D16800D3E8EF1F0139C3E8E21F002AF8D1204CA9
:10D17800204EB4422DD32846FFF7DAFF1E4B1F4C32
:10D188001B68002B19DD10F014FB4FF47A72A0FB1A
:10D19800020302FB0131C30B43EA4143D4E90020F7
:10D1A8009B1A40F2E9324FEAD13161EB0001934218
:10D1B80071F1000101D3FFF76BFFD4E9003213F5D9
:10D1C8007A7342F10002C4E90032BDE87040FFF70B
:10D1D800B7BF63685B7923B12368294620461B687B
:10D1E80098471034C5E770BDF1E5002024DB002026
:10D1F8004CEE01005CEE010020DB002080D2002014
:10D2080070B50D4D297861B90120FFF7ABFE0B4CC5
:10D218000B4EB44206D3FFF799FF0028FBD1012338
:10D228002B7070BD63685B791BB1236820469B68CF
:10D2380098471034EDE700BFF2E500204CEE0100FE
:10D248005CEE010000212DE9F0470846FFF78AFE51
:10D25800044648B340F267684FF0000908F0ACF89C
:10D268001A4B186030B11A4B1B68092B02DD19489C
:10D2780007F076FB0025184FDFF858A044B1204688
:10D28800FFF70AFE044618B94FF0FF384FF0FF3990
:10D29800FFF75CFF064628B9B5B942464B465046EB
:10D2A80007F084FB3546E9E74FF0FF384FF0FF39C8
:10D2B800D4E72B689B691BB1002228461146984782
:10D2C8001035BD42F5D3E8E7044DFAE71CDB002032
:10D2D80024DB002024CD00205CEE01004CEE010090
:10D2E80013B518480CF056FD174B1B7873B1EFF3C4
:10D2F8001184202383F31288BFF36F8FFFF726FF73
:10D3080084F31188BFF36F8F02B010BD0F4B1B68F9
:10D31800002BF9D050B9002200230D48CDE9002395
:10D328004FF40042002308F0AFFAEDE70928EBD1EB
:10D33800074810F091FA074802B0BDE8104007F01E
:10D348000FBB00BF24DB0020F2E500201CDB00201F
:10D3580088D2002024CD002010B5064B04461B6857
:10D3680098472146A06004480CF052FBBDE81040E5
:10D37800FFF7B6BF88C80020ECCB0020044A054B55
:10D388009B1AB1EBD30F34BF52F83100002070471D
:10D3980084ED01004CEE0100084B10B4C31A446838
:10D3A8001B110133237143689A7101224368196084
:10D3B80043685A7110BCFFF733BE00BF4CEE010042
:10D3C8002DE9F04F8FB0C1F34A2804AF0D469146BE
:10D3D800B8607B600C0DB8F1000F63D000264FF0E9
:10D3E800040B4FF00A0A07F11403C7F80C80C7E9C9
:10D3F80007667E620193CDF808B0CDF800A007F16A
:10D408001C0332464846F968FEF75AFCB0F5006F2F
:10D4180003461CD36C468AB0D9F8041004AB2648DE
:10D428001A46C3E9050140F2FF71D9614FF4007152
:10D438001984224B42F8103F4FF4125133462048CA
:10D44800FFF7BEFFA5462C37BD46BDE8F08FC0F3F9
:10D458000A0804F11700184420F0070080083B6010
:10D46800FFF758FE68F35325044690B13B6800F176
:10D478001001C7E9083607F11403F961CDE900A3E3
:10D48800CDF808B048460F4AF96807F11C03FEF7C3
:10D4980017FC68F353252A4620467B68B9680CF0C8
:10D4A800ABFCD0E704F1170020F007008008FFF775
:10D4B80031FE0446EDE700BF0BFF01000400000148
:10D4C800B4ED0100D59D01002DE9F04F87B0044669
:10D4D800DDE9105ADDE91279934698460391BFB108
:10D4E8003B46524610210020CDF80090CDF814900C
:10D4F800FEF714FAB0F5006F06460AD340F2FF7340
:10D508000221174A174807B0BDE8F04F0CF0CDBC10
:10D518003E4605F11700304420F007008008FFF769
:10D52800F9FD04F007040BF0070BE40044EA8B1440
:10D5380044EA462444EA0554054640B13FB13B4617
:10D5480052463146CDF800901030FEF7E7F94346D1
:10D5580022462846039907B0BDE8F04F0CF04CBCB2
:10D568004AFF0100B4ED0100406820B1034BC01A26
:10D5780040F3CF0070474FF0FF30704784ED010053
:10D588000EB403B503AB53F8042B014604480193CA
:10D598000CF0BCFC02B05DF804EB03B0704700BFB0
:10D5A800239F0100CA0605D48B064CBF02490349D4
:10D5B800FFF7E6BF704700BF360D0200350D0200C9
:10D5C8002DE9F04F89B09A46149B9DF84CB006930C
:10D5D800159B04460593169B0D469046179E04938B
:10D5E800BBF1000F00F09D8006F4807307930CF0E8
:10D5F800EBFB06F00209024600283ED0204692497D
:10D60800FFF7BEFF0746B9F1000F08D016F0440F28
:10D6180035D12A4620468D49FFF7B2FF074406F068
:10D62800010353B18A4B204653F82B20894B8A4972
:10D63800002A08BF1A46FFF7A3FF06F48073002BE1
:10D6480049D006F00803002B63D1B8F1000F66D06B
:10D65800424620468149FFF793FF0546069B3D4415
:10D66800002B6DD1049B002B73D1F30700F1E580EB
:10D6780031462046FFF796FFD9E00746C3E7784BC7
:10D6880018680028CAD0774B4FF47A791B684FF492
:10D698006161B5FBF3F5B5FBF0F300FB135509FB2E
:10D6A80005F5B3FBF1F2B5FBF0FE4FF03C0C01FBC6
:10D6B800123100FB1E55B1FBFCF309FB05F5B5FB68
:10D6C800F0F50CFB131120460091CDE901E5664900
:10D6D800FFF756FFA2E706F00803EBB1634B2046BD
:10D6E80053F82B206249FFF74BFF0546B8F1000FAE
:10D6F80005D0424620465949FFF742FF0544BAF192
:10D70800000FABD0524620465A49FFF739FF05446F
:10D71800A4E74FF0000AE1E706F00805E6E745460A
:10D728009CE7BAF1010F069B06D1002B65D1049B3B
:10D73800002B7CD000250CE0002BF8D04E485DE093
:10D748004E48069B22464E490BF001FF049B002BD6
:10D7580069D0DFF83081DFF83091049F3146102F0F
:10D76800204628BF10274FF0000AFFF71BFF55453A
:10D7780046DC059B494620461A78FFF701FF4FF023
:10D78800010A1AF0070F03D141462046FFF7F8FEB9
:10D7980057453CD9059B4946204613F80A20FFF710
:10D7A800EFFE0AF1010ABAF1100FEAD14FF0000AB0
:10D7B80020463649FFF7E4FE5246059B20469A5C10
:10D7C800334B995C11F0970F08BF2E223149FFF7B0
:10D7D800D7FE0AF1010ABAF1100F1DD01AF0070F8F
:10D7E80003D141462046FFF7CBFE57455246E4D8C1
:10D7F80041462046FFF7C4FEEBE720485D46A0E718
:10D8080041462046FFF7BCFE0AF1010AAFE7204671
:10D818002149FFF7B5FEC4E7059B3B440593049BEC
:10D82800DB1B049399D1BBF1000F7FF41EAF204698
:10D8380009B0BDE8F04F0CF05CBB2046054A06492C
:10D84800FFF79EFE14E700BF87FF01008BFF010072
:10D8580044F0010082FF0100F2090200B0FF01005C
:10D8680030DB00202CDB002094FF010058F0010081
:10D87800B4FF0100BAFF0100519F0100239F01007E
:10D88800159F0100C7FF0100BFFF0100C9FF01008C
:10D8980044110200D20D0200C5FF010042F20F73CD
:10D8A80073B58B4228BF0B460568044605216846B8
:10D8B8000D4A0BF0C3FE0646636828460B225B68D8
:10D8C8000A490CF008FB63683246694628465B68DB
:10D8D8000CF001FB63681B2228465B6804490CF0C6
:10D8E800FAFA02B070BD00BF1DFB0100E7FF01009E
:10D8F800CBFF010000210123064A904206D8064AC0
:10D9080001B901231360054B1860704701214008D5
:10D918005B00F2E740420F002CDB002030DB0020E8
:10D92800F8B50D460446064F4618B44201D12846BC
:10D93800F8BD14F8011BBB6801485B689847F4E719
:10D9480058EB0100014B036000207047A0F0010074
:10D9580008B504480BF065FEBDE8084002480BF026
:10D9680060BE00BF2D000200620002002DE9F047F2
:10D9780006460C4600AF002936D0D1E90012E94628
:10D988008AB06D46A3684FF0050AA8461F48C5E946
:10D998000723C5E9050148F810AF002342464FF4B4
:10D9A80021511B48FFF70CFDD4E90312CD466369EA
:10D9B800AD461848C5E90723C5E90501C5F810A013
:10D9C800002342464FF421511148FFF7F9FCCD4698
:10D9D800E3690121104A0E480CF067FAA369012196
:10D9E8000E4A0B480CF061FA012E07D1EFF30583BC
:10D9F8000B4A31460648103B0CF057FA2146304690
:10DA080006F006FDBD46BDE8F08700BF90000200A5
:10DA1800FCED0100BF000200EE000200FD00020064
:10DA28002B01020030BFFFF7FDBF00BF074A936814
:10DA380093F90E10002907DB526993421FBF044A6D
:10DA4800536843F080535360704700BFFCE30020E5
:10DA580000ED00E070B52A4C06460D4629482A49D3
:10DA68000CF0F9FAA36ADB0647D5264827490CF0DB
:10DA7800F2FA1120A36A1C0704D5224824490CF0A5
:10DA8800EAFA12201E4CA36A990712D521491D48AB
:10DA98000CF0E1FA636BA26A120609D501211E4A4D
:10DAA80018480CF002FA1EB1A36A23F08003A3629F
:10DAB8001320134CA36ADE0704D5124817490CF04B
:10DAC800CAFA1420A36A9C0604D50E4814490CF01F
:10DAD800C2FA15200A4B9A6AD10658BF9A6A9A6AFE
