:10800000B00C0120F9D5000053900100E5D5000027
:10801000E5D50000E5D50000E5D50000E5D5000078
:10802000000000000000000000000000B9D70000C0
:10803000E5D500000000000071D70000E5D5000084
:108040003DD900003DD900003DD900003DD90000D8
:108050003DD900003DD900003DD900003DD90000C8
:108060003DD900003DD900003DD900003DD90000B8
:108070003DD900003DD900003DD900003DD90000A8
:108080003DD900003DD900003DD900003DD9000098
:108090003DD900003DD900003DD900003DD9000088
:1080A0003DD900003DD900003DD900003DD9000078
:1080B0003DD900003DD900003DD900003DD9000068
:1080C0003DD900003DD900003DD900003DD9000058
:1080D0003DD900003DD900003DD900003DD9000048
:1080E0003DD900003DD900003DD900003DD9000038
:1080F0003DD900003DD900003DD900003DD9000028
:108100003DD900003DD900003DD900003DD9000017
:108110003DD900003DD900003DD900003DD9000007
:108120003DD900003DD900003DD900003DD90000F7
:108130003DD900003DD900003DD900003DD90000E7
:048140003DD9000025
:1081480081F0004102E000BF83F0004330B54FEA00
:1081580041044FEA430594EA050F08BF90EA020F6D
:108168001FBF54EA000C55EA020C7FEA645C7FEA00
:10817800655C00F0E2804FEA5454D4EB5555B8BF23
:108188006D420CDD2C4480EA020281EA030382EA94
:10819800000083EA010180EA020281EA0303362D26
:1081A80088BF30BD11F0004F4FEA01314FF4801CF9
:1081B8004CEA113102D0404261EB410113F0004F0B
:1081C8004FEA03334CEA133302D0524263EB4303C2
:1081D80094EA050F00F0A780A4F10104D5F1200E60
:1081E8000DDB02FA0EFC22FA05F2801841F10001BB
:1081F80003FA0EF2801843FA05F359410EE0A5F18F
:1082080020050EF1200E012A03FA0EFC28BF4CF0BF
:10821800020C43FA05F3C01851EBE37101F0004575
:1082280007D54FF0000EDCF1000C7EEB00006EEB82
:108238000101B1F5801F1BD3B1F5001F0CD349080C
:108248005FEA30004FEA3C0C04F101044FEA445263
:1082580012F5800F80F09A80BCF1004F08BF5FEAEA
:10826800500C50F1000041EB045141EA050130BDCA
:108278005FEA4C0C404141EB0101013C28BFB1F5DC
:10828800801FE9D291F0000F04BF01460020B1FA27
:1082980081F308BF2033A3F10B03B3F120020CDAFA
:1082A8000C3208DD02F1140CC2F10C0201FA0CF0D8
:1082B80021FA02F10CE002F11402D8BFC2F1200C3D
:1082C80001FA02F120FA0CFCDCBF41EA0C019040F3
:1082D800E41AA2BF01EB0451294330BD6FEA04043C
:1082E8001F3C1CDA0C340EDC04F11404C4F1200227
:1082F80020FA04F001FA02F340EA030021FA04F339
:1083080045EA030130BDC4F10C04C4F1200220FA8F
:1083180002F001FA04F340EA0300294630BD21FACD
:1083280004F0294630BD94F0000F83F4801306BF93
:1083380081F480110134013D4EE77FEA645C18BF87
:108348007FEA655C29D094EA050F08BF90EA020F1E
:1083580005D054EA000C04BF1946104630BD91EA16
:10836800030F1EBF0021002030BD5FEA545C05D119
:108378004000494128BF41F0004130BD14F5800458
:108388003CBF01F5801130BD01F0004545F0FE41CC
:1083980041F470014FF0000030BD7FEA645C1ABF01
:1083A800194610467FEA655C1CBF0B46024650EA38
:1083B800013406BF52EA033591EA030F41F4002164
:1083C80030BD00BF90F0000F04BF0021704730B5EA
:1083D8004FF4806404F132044FF000054FF00001BF
:1083E80050E700BF90F0000F04BF0021704730B580
:1083F8004FF4806404F1320410F0004548BF404255
:108408004FF000013EE700BF42004FEAE2014FEAA9
:1084180031014FEA02701FBF12F07F4393F07F4F84
:1084280081F06051704732F07F4208BF704793F087
:108438007F4F04BF41F40021704730B54FF460749A
:1084480001F0004521F000411CE700BF50EA01029D
:1084580008BF704730B54FF000050AE050EA010246
:1084680008BF704730B511F0004502D5404261EBB6
:1084780041014FF4806404F132045FEA915C3FF4F7
:10848800D8AE4FF003025FEADC0C18BF03325FEA94
:10849800DC0C18BF033202EBDC02C2F1200300FA45
:1084A80003FC20FA02F001FA03FE40EA0E0021FA6A
:1084B80002F11444BDE600BF70B54FF0FF0C4CF458
:1084C800E06C1CEA11541DBF1CEA135594EA0C0F0A
:1084D80095EA0C0F00F0DEF82C4481EA030621EA45
:1084E8004C5123EA4C5350EA013518BF52EA033580
:1084F80041F4801143F4801338D0A0FB02CE4FF032
:108508000005E1FB02E506F00042E0FB03E54FF061
:108518000006E1FB03569CF0000F18BF4EF0010E59
:10852800A4F1FF04B6F5007F64F5407404D25FEA55
:108538004E0E6D4146EB060642EAC62141EA555108
:108548004FEAC52040EA5E504FEACE2EB4F1FD0C4A
:1085580088BFBCF5E06F1ED8BEF1004F08BF5FEAC8
:10856800500E50F1000041EB045170BD06F000467A
:1085780046EA010140EA020081EA0301B4EB5C0427
:10858800C2BFD4EB0C0541EA045170BD41F480111F
:108598004FF0000E013C00F3AB8014F1360FDEBF44
:1085A800002001F0004170BDC4F10004203C35DA20
:1085B8000C341BDC04F11404C4F1200500FA05F3A3
:1085C80020FA04F001FA05F240EA020001F0004244
:1085D80021F0004110EBD37021FA04F642EB0601BA
:1085E8005EEA430E08BF20EAD37070BDC4F10C04E4
:1085F800C4F1200500FA04F320FA05F001FA04F2A8
:1086080040EA020001F0004110EBD37041F1000193
:108618005EEA430E08BF20EAD37070BDC4F120059E
:1086280000FA05F24EEA020E20FA04F301FA05F206
:1086380043EA020321FA04F001F0004121FA04F2AE
:1086480020EA020000EBD3705EEA430E08BF20EA7E
:10865800D37070BD94F0000F0FD101F000464000B8
:1086680041EB010111F4801F08BF013CF7D041EA3A
:10867800060195F0000F18BF704703F0004652003E
:1086880043EB030313F4801F08BF013DF7D043EA0F
:108698000603704794EA0C0F0CEA135518BF95EAC5
:1086A8000C0F0CD050EA410618BF52EA4306D1D14C
:1086B80081EA030101F000414FF0000070BD50EA6B
:1086C800410606BF1046194652EA430619D094EAF5
:1086D8000C0F02D150EA013613D195EA0C0F05D1DF
:1086E80052EA03361CBF104619460AD181EA030133
:1086F80001F0004141F0FE4141F470014FF00000EB
:1087080070BD41F0FE4141F4780170BD70B54FF085
:10871800FF0C4CF4E06C1CEA11541DBF1CEA135505
:1087280094EA0C0F95EA0C0F00F0A7F8A4EB0504E7
:1087380081EA030E52EA03354FEA013100F08880DE
:108748004FEA03334FF0805545EA131343EA1263A7
:108758004FEA022245EA111545EA10654FEA00265C
:108768000EF000419D4208BF964244F1FD0404F515
:10877800407402D25B084FEA3202B61A65EB030571
:108788005B084FEA32024FF480104FF4002CB6EB2E
:10879800020E75EB030E22BFB61A754640EA0C00AE
:1087A8005B084FEA3202B6EB020E75EB030E22BFEE
:1087B800B61A754640EA5C005B084FEA3202B6EB2F
:1087C800020E75EB030E22BFB61A754640EA9C00EE
:1087D8005B084FEA3202B6EB020E75EB030E22BFBE
:1087E800B61A754640EADC0055EA060E18D04FEA7C
:1087F800051545EA16754FEA06164FEAC30343EA1C
:1088080052734FEAC2025FEA1C1CC0D111F4801FE8
:108818000BD141EA00014FF000004FF0004CB6E7E1
:1088280011F4801F04BF01430020B4F1FD0C88BF80
:10883800BCF5E06F3FF6AFAEB5EB030C04BFB6EB8B
:10884800020C5FEA500C50F1000041EB045170BD7E
:108858000EF0004E4EEA113114EB5C04C2BFD4EBAB
:108868000C0541EA045170BD41F480114FF0000E2F
:10887800013C90E645EA060E8DE60CEA135594EAAB
:108888000C0F08BF95EA0C0F3FF43BAF94EA0C0FAE
:108898000AD150EA01347FF434AF95EA0C0F7FF423
:1088A80025AF104619462CE795EA0C0F06D152EA77
:1088B80003353FF4FDAE1046194622E750EA41065B
:1088C80018BF52EA43067FF4C5AE50EA41047FF46C
:1088D8000DAF52EA43057FF4EBAE12E74FF0FF3CD1
:1088E80006E000BF4FF0010C02E000BF4FF0010CA2
:1088F8004DF804CD4FEA410C7FEA6C5C4FEA430C1B
:1089080018BF7FEA6C5C1BD001B050EA410C0CBF69
:1089180052EA430C91EA030F02BF90EA020F0020CB
:10892800704710F1000F91EA030F58BF994208BF32
:1089380090422CBFD8176FEAE37040F001007047EF
:108948004FEA410C7FEA6C5C02D150EA013C07D146
:108958004FEA430C7FEA6C5CD6D152EA033CD3D091
:108968005DF8040B704700BF8446104662468C468B
:108978001946634600E000BF01B5FFF7B7FF0028BE
:1089880048BF10F1000F01BD4DF808EDFFF7F4FFE7
:108998000CBF012000205DF808FB00BF4DF808ED72
:1089A800FFF7EAFF34BF012000205DF808FB00BF95
:1089B8004DF808EDFFF7E0FF94BF012000205DF8B7
:1089C80008FB00BF4DF808EDFFF7CEFF94BF01206C
:1089D80000205DF808FB00BF4DF808EDFFF7C4FF65
:1089E80034BF012000205DF808FB00BF4FEA410CAE
:1089F8007FEA6C5C02D150EA013C0AD14FEA430C91
:108A08007FEA6C5C02D152EA033C02D14FF00000CD
:108A180070474FF0010070474FEA410212F500120B
:108A280015D211D56FF47873B3EB625212D94FEAAD
:108A3800C12343F0004343EA505311F0004F23FA97
:108A480002F018BF404270474FF00000704750EAEC
:108A5800013005D111F0004008BF6FF000407047A9
:108A68004FF00000704700BF4A0011D212F5001203
:108A780011D20DD56FF47873B3EB62520ED44FEA6E
:108A8800C12343F0004343EA505323FA02F07047EE
:108A98004FF00000704750EA013002D14FF0FF302C
:108AA80070474FF0000070474FEA4102B2F1E043CF
:108AB80024BFB3F5001CDCF1FE5C0DD901F0004CBD
:108AC8004FEAC0024CEA5070B2F1004F40EB83000D
:108AD80008BF20F00100704711F0804F21D113F139
:108AE8003872BCBF01F00040704741F480114FEA72
:108AF8005252C2F11802C2F1200C10FA0CF320FAFB
:108B080002F018BF40F001004FEAC1234FEAD32317
:108B180003FA0CFC40EA0C0023FA02F34FEA430381
:108B2800CCE77FEA625307D150EA01331EBF4FF00A
:108B3800FE4040F44000704701F0004040F0FE4025
:108B480040F40000704700BF53B94AB9002908BF74
:108B580000281CBF4FF0FF314FF0FF3000F02AB85B
:108B6800ADF1080C6DE904CE00F04FF8DDF804E033
:108B7800DDE9022304B07047D0B500220B4B06464E
:108B88000F46FFF799FCFFF76FFF0446FFF71AFC43
:108B98000022074BFFF790FC02460B463046394649
:108BA800FFF7D2FAFFF760FF2146D0BD0000F03D85
:108BB8000000F041704700BF10F8012B11F8013B8D
:108BC800012A28BF9A42F7D0D01A7047034613F8F3
:108BD800012B002AFBD1181A0138704738B500223A
:108BE800002304460D46FFF7D9FE28B9204629463A
:108BF800BDE83840FFF7C0BF204605F10041FFF748
:108C0800BBFF404261EB410138BD2DE9F047864684
:108C18008C460846089E154674461946002B40F0B7
:108C2800C1808542B2FA82F245D94AB1C2F1200325
:108C380000FA02FC954094402EFA03F343EA0C0C28
:108C48004FEA154EA8B2230CBCFBFEF80EFB18CC5D
:108C580008FB00F943EA0C43994528D9EB1808F1B9
:108C6800FF3704D2994502D9A8F102072B44A3EB98
:108C78000903A4B2B3FBFEFC0EFB1C330CFB00F093
:108C880044EA0344A04214D92C190CF1FF3304D24E
:108C9800A04202D9ACF102032C44241A43EA07404B
:108CA8001EB1D440002334607360BDE8F0874746A6
:108CB800DDE76346F1E792BB431B01214FEA154EFE
:108CC800AFB2200CB3FBFEFC0EFB1C330CFB07F809
:108CD80040EA0343984561D9EB180CF1FF3004D200
:108CE800984502D9ACF102002B44A3EB0803A4B2C7
:108CF800B3FBFEFC0EFB1C330CFB07F744EA0344F2
:108D0800A7424DD92C190CF1FF3304D2A74202D93E
:108D1800ACF102032C44E41B43EA0040C0E7C2F173
:108D280020039540944020FA03F12EFA03F34FEA0A
:108D3800154E9040AFB20343B1FBFEFC0EFB1C1076
:108D4800190C0CFB07F841EA0041884522D969183B
:108D58000CF1FF3004D2884502D9ACF10200294455
:108D6800A1EB08019BB2B1FBFEFC0EFB1C110CFB36
:108D780007F743EA01439F420ED9EB180CF1FF3184
:108D880004D29F4202D9ACF102012B44DB1B41EA19
:108D9800004193E76046E3E76146F7E76046A4E7EA
:108DA8006346B8E7834206D916B9002108467CE72E
:108DB800C6E900E0F9E7B3FA83F78FB9834201D334
:108DC800724508D8BEEB020460EB030301209C4601
:108DD8001EB9002169E73846FAE7C6E9004CF8E70A
:108DE800C7F1200CBB400EFA07F522FA0CF42EFA54
:108DF8000CF1BA401C4320FA0CF3B8404FEA14496E
:108E080001431FFA84FEB3FBF9F809FB18300B0C79
:108E180008FB0EFA43EA00439A4540D9E31808F1E3
:108E2800FF3004D29A4502D9A8F102002344A3EBEB
:108E38000A0389B2B3FBF9F809FB183308FB0EFEE5
:108E480041EA03418E452CD9611808F1FF3304D259
:108E58008E4502D9A8F10203214443EA0040A1EB60
:108E68000E01A0FB02984145CE46434602D306D1E7
:108E78004D4504D20138B9EB020E68EB0403002E0D
:108E8800A7D0B5EB0E0261EB030101FA0CFC22FA44
:108E980007F3F9404CEA0303C6E9003199E7404675
:108EA800C5E74346D9E700002DE9F04F1F469DB0BE
:108EB80000230C4682460E9218934FF00008974BF9
:108EC8004FF000091D682846FFF780FE22468346BA
:108ED800179213782B2B3BD02CD80D2B26D8082B88
:108EE80026D8002B2FD000230C93179E3378302BD5
:108EF80072D1737803F0DF03582B63D10C9B17A949
:108F0800874A5046019318AB0297009319AB0DF0AE
:108F1800A3FD10F00705044635D0062D1AD10E9B87
:108F28000BB101361E604046494637E0202BDAD1A6
:108F38000132CDE72D2BD6D101230C93531C179367
:108F48005378002BD1D10E9B002BECD01C60EAE7A4
:108F58000023F2E7189A3AB135211AA814F079FBE0
:108F6800189950460EF038F8013D199A042D06D884
:108F7800DFE805F0170320231700DDE91A89210728
:108F880001D549F000490E9B13B1179B0E9A136047
:108F98000C9B002BC7D0404609F100411DB0BDE82D
:108FA800F08FDDE91A8302F2334223F4801343EA97
:108FB8000259E4E7DFF86C91E1E76FF000494FF000
:108FC800FF38DCE7179B5A1C17925B78302BF9D0D7
:108FD800002BD8D0012300E00023002704930A22A5
:108FE800179BCDE905770A9317980678A6F1300301
:108FF800D9B2092924D95A46294613F040FF002836
:109008002DD000203246059D83460346652A01D0AF
:10901800452A13D11DB9049A024394D00025179C00
:10902800621C179262782B2A6ED02D2A72D04FF0CC
:10903800000CA2F1300109297AD91794002699E089
:109048000599013008291790D7BF069902FB073701
:1090580002FB01330693059B01330593C4E7179B75
:1090680003EB0B02179213F80B20059BA3B383465F
:109078001D46A2F13003092B12D90123C6E7179B1D
:1090880001305A1C17925A78302AF8D0A2F13103CD
:10909800082B00F2EA8483460020179B05460A93B2
:1090A800303A00F1010311D09B4400EB050C2B462C
:1090B8000A21634512D12B180135082B054419DC08
:1090C80006990A2303FB012306930023179A1846DF
:1090D800511C17915278CCE70598D5E7082B03F176
:1090E800010303DC069E4E430696E2E7102BD8BF29
:1090F8004F43DEE70F2BDCBF0A2303FB0727E4E718
:109108004FF0000B012386E74FF0000CA21C1792CA
:10911800A2788EE74FF0010CF8E700BF48E601009F
:10912800D4E501000000F07F179A511C179152787E
:10913800302AF9D0A2F1310108293FF67FAF303A41
:109148000792179A0D92179A561C17965278A2F101
:10915800300EBEF1090F38D90D99761A082E44F64B
:109168001F6603DC07998E42A8BF0E46BCF1000FAC
:1091780000D07642002D4FD1049908437FF403AF05
:10918800002B7FF4E0AE692A29D026DC492A26D0B4
:109198004E2A7FF4D8AE9D4917A814F0C0F80028CD
:1091A8003FF4D1AE179B1B78282B2FD11AAA9849C8
:1091B80017A814F0C8F8052828D11B9BDDF868808B
:1091C80043F0FF4949F4E009DDE6079E0A2101FB67
:1091D8000621A1F130020792B5E76E2AD9E78D4939
:1091E80017A814F09CF800283FF4ADAE179B17A8F9
:1091F8008949013B179314F092F810B9179B013372
:109208001793DFF818924FF00008BCE684480EF078
:1092180041FE80468946B6E6A6EB0B0306982C4627
:109228000F93059B002B08BF2B46102D0593A8BF55
:109238001024FFF7C7F8092D8046894614DCA6EBF1
:109248000B03002B3FF49FAEA6EB0B0379DD162B27
:1092580045DC0F9B4246734901EBC3014B46D1E9FC
:109268000001FFF729F9D4E76E4B03EBC40353E978
:109278001223FFF721F9804689463846FFF7A2F8FE
:1092880002460B4640464946FEF760FF0F2D8046D2
:109298008946D4DD2C1BA6EB0B031C44002C26DCD2
:1092A80000F0A380644214F00F020AD05D4B4046E0
:1092B800494603EBC203D3E90023FFF727FA8046A8
:1092C8008946241100F091801F2C40F3B38022239B
:1092D8004FF000084FF00009CAF8003053E6C5F116
:1092E8002503A6EB0B02934219DA2C1B144414F045
:1092F8000F030AD04B49424601EBC3014B46D1E963
:109308000001FFF7D9F88046894634F00F046CD085
:10931800B4F59A7F41DD2223CAF8003071E7C5F120
:109328000F05404C42464B4604EBC501D1E900010C
:10933800FFF7C2F80F9B5D1B04EBC504D4E90023BB
:109348008FE71633A6DBABEB0602364B40464946A1
:1093580003EBC203D3E90023FFF7D8F959E7002349
:1093680006932223DFF8B4904FF00008CAF80030C3
:10937800189950460DF030FE069950460DF02CFE17
:10938800059950460DF028FE109950460DF024FE20
:10939800079950460DF020FEF5E5002324114046BC
:1093A8004946214F0493012C22DC0BB180468946A3
:1093B800049BA9F154791C49424601EBC3014B4671
:1093C800D1E90001FFF778F8144B0A4680460B40B4
:1093D80016498B429FD8A1F580118B4286BFDFF8D2
:1093E80050904FF0FF3802F15479002304934CE079
:1093F800E20704D5D7E90023FFF75EF80123049AB2
:109408006410083701320492CDE700BFC50002009E
:10941800C0E5010073EE01002E0102000000F07F9C
:109428009EFB010008DF0100E0DE01000000A07CD7
:10943800FFFFEF7F14F0100340464946AB4F18BFBB
:109448006A2304930023E20704D5D7E90023FFF732
:1094580033F80123641007F10807F4D10BB18046F3
:109468008946049B43B1C9F30A524946C2F16B03CA
:10947800002B50DC6A23049300220023404649460F
:10948800FFF782FA00287FF422AF069B5046059A20
:1094980000932B460A990DF009FE109000283FF41E
:1094A8003AAF0F9BABEB060B002BB4BF5B46002318
:1094B80011930F9B23EAE3731493002307930593F7
:1094C800109B504659680DF047FD069000283FF460
:1094D80048AF109B0C301A6903F10C01023292005C
:1094E80013F06AFB1AAB42465046019319AB00933E
:1094F8004B46CDE90A890EF0A9F8189000283FF4E8
:1095080030AF012150460DF01BFE03460590D0B93F
:109518000023059325E71F2B0EDD342B4FF00008A1
:10952800DBBF4FF0FF33C2F14B024FF05C79934041
:10953800D8BF03EA01099DE74FF0FF3202FA03F3AF
:1095480003EA080896E7199C1A9A002CA9BF119BF0
:10955800149BE718149EB8BF1E1B049BB8BF119F2D
:10956800E41A634B1444C2F13602013C9C4280F277
:10957800B0801B1B01251F2BA2EB0302CDBFC4F13A
:109588007F449D40002404F57F04C2BF04F57B445A
:10959800E23405FA04F407EB020B049B16445F451A
:1095A8001E443B46A8BF5B46B342A8BF3346002BC8
:1095B800C2BFABEB030BF61AFF1A119B002B16DD8B
:1095C8001A46059950460DF07BFE059000289FD05D
:1095D8000146189A50460DF0C9FD0D9000283FF439
:1095E800C0AE189950460DF0F7FC0D9B1893BBF1CF
:1095F800000F71DC0F9B002B08DD149A504606996A
:109608000DF05EFE069000283FF4A9AE002E08DD9E
:109618003246069950460DF0ADFE069000283FF4FC
:109628009EAE002F08DD3A46059950460DF0A2FE81
:10963800059000283FF495AE069A504618990DF00B
:1096480005FF079000283FF48CAEC36805990D9379
:109658000023C36013F0B2FF00284BDA0D9B53EAD6
:10966800080340F0BC80C9F31303002B40F0B78017
:1096780029F000431B0D1B05B3F1D66F40F2AF80F4
:10968800079B5B6923B9079B1B69012B40F3A780E4
:109698000122079950460DF06DFE0599079013F0C9
:1096A8008DFF002840F39B8029F00043049A1B0D8E
:1096B8001B05002A79D0B3F1D66F6DD8B3F15C7F62
:1096C80046D84FF000084FF000092223CAF80030AE
:1096D8004EE6002401255EE75A46189950460DF0DB
:1096E80049FE1890002885D13BE600BFB8DE01008E
:1096F80002FCFFFFCB4640F0A3800D9AC9F3130389
:10970800002A40D0964A934258D1049B42467BB9DE
:10971800B8F1FF3F40F08980924B99453FF421AE64
:10972800914BDDF8108009EA030303F580191FE661
:109738008D4B09EA0303B3F1D46F16D918F101016F
:109748001BD1884A91453FF40CAE03F58019804639
:10975800864B404649460022FEF7AEFE0B46804641
:10976800894603437FF404AEAFE71E0D4FF0FF3187
:10977800C6F16B06B1408845E7D0002C5ED014EAEC
:109788000B0FE5D01EE0002B4AD1B8F1000F8BD0AB
:1097980064B314EA0B0F2BE0A3F580134FF0FF38E6
:1097A8006FEA13596FEA0959D2E7A3F580134FF00E
:1097B800FF386FEA13596FEA0959D9E59CB114EAE1
:1097C800090F0CD0049A4046494613F09FFB024605
:1097D8000B46DDE90A01FEF7B9FC80468946049B81
:1097E800002BB5D1C4E515EA080FEAE718EA050F1A
:1097F800F5D0049A4046494613F088FB02460B46CA
:10980800DDE90A01FEF7A0FC0022002304460D460C
:10981800FFF7BAF800287FF454AFA046A946DEE760
:10982800002CB6D115EA080FE2E724B114EA090FB3
:109838003FF49EADC6E718EA050FF9E72A42A0E70C
:109848000599079813F0D5FE00224FF0804304468F
:109858000D46FFF7ADF800286DD00D9B002B78D191
:10986800B8F1000F56D1C9F31303002B59D10022C8
:109878003F4B20462946FFF791F8002858D120464B
:10988800294600223B4BFEF717FE04460D4605F11C
:10989800004308940993344B334A0BEA03030BEA59
:1098A80002021593344B9A42DDE9086740F09E8026
:1098B800ABF15479404649460DF05EFEDDE90823D8
:1098C800FEF7FAFD42464B46FEF740FC0B4626499A
:1098D80080462A4A1940914254D90B9A214B9A4200
:1098E80003D10A9B01333FF43CADDFF878904FF089
:1098F800FF38189950460DF06FFB069950460DF049
:109908006BFB059950460DF067FB079950460DF023
:1099180063FBD5E5B8F1010F03D1B9F1000F3FF4AE
:10992800D0AE174C0023124DCDE908340024B2E71D
:109938000024104DABE70F4B204629460022FEF7C6
:10994800BBFD0D9B04460D46002BA0D0CDE9084574
:10995800A1E7074C00232546CDE908341C469AE7C1
:10996800FFFF0F00FFFFEF7F0000F07F000050397E
:109978000000F03F0000E03F0000E07FFFFF9F7C19
:109988000000F0BF03F15479049B4E46002BB0D180
:1099980029F00043159A1B0D1B059A42A9D12046B0
:1099A8002946FFF71BF9C9F31306FEF757FD0B46C7
:1099B80002462946204646EA0806FEF7C5FB0D9BE7
:1099C80004460D461E434AD02DA3D3E90023FEF7D3
:1099D800E5FF00287FF4CCAC204629462AA3D3E92A
:1099E8000023FEF7F9FF002883D0C1E4049B13B3DA
:1099F800159BB3F1D46F1ED82046294624A3D3E97A
:109A08000023FEF7D5FF90B129462046FFF72CF832
:109A1800012838BF0120FEF7D5FC0D9B04460D46F2
:109A2800D3B901F1004312901393DDE9126707F1EE
:109A3800D663159A9F1ADDE90A010DF09DFD0246CD
:109A48000B4630463946FEF737FDDDE90A23FEF7B7
:109A58007DFB8046894697E7CDE91245E5E70EA3E9
:109A6800D3E90023FEF79AFFBDE7652A3FF448AB28
:109A7800452A3FF445AB0123FFF77EBBAFF30080D7
:109A88009535A094FFFFDF3F35E5AF350000E03F97
:109A98000000C0FFFFFFDF419535A094FFFFCF3FD7
:109AA8002DE9F04F144697B01D46476A8346239E1A
:109AB800CDE904457FB910200BF09EFB0246CBF898
:109AC800240020B9A24BEA21A2480CF0ABFEC0E961
:109AD80001770760C760DBF82430196859B15A6804
:109AE8000123584693404A608B600DF075FADBF805
:109AF800243000221A602B1EB7BF23F00043002336
:109B080001220593A8BF3360059F934BB8BF32600D
:109B1800BB4319D142F20F73229A1360C7F31303A0
:109B2800234300F0E085249B53B98C4B21E08C4BF8
:109B380008930833249A1360089817B0BDE8F08F8B
:109B4800864B08930333F5E7DDE90423CDE90C23BD
:109B5800DDE90C0100220023FEF716FF804650B114
:109B68000123229A1360249B13B17E4B249A13601D
:109B78007D4B0893E0E714ABC7F30A5658460193A8
:109B880015AB0093DDE90C230DF060FD0390002E6A
:109B980078D00D9BA6F2FF36CDF84C80C3F31303A3
:109BA80043F07F53DDE90C0143F4401319460022CA
:109BB8006E4BFEF7C9FA60A3D3E90023FEF77CFCDD
:109BC8005FA3D3E90023FEF7C1FA04460D463046E9
:109BD800FEF708FC5CA3D3E90023FEF76DFC024600
:109BE8000B4620462946FEF7B1FA04460D46FEF715
:109BF80013FF00220746002320462946FEF7CEFE23
:109C080040B13846FEF7EEFB22462B46FEF7BCFE77
:109C180000B9013F162F54D8554B03EBC703DDE9B4
:109C28000C01D3E90023FEF7B9FE00284BD0013F11
:109C380000231293149B9B1B5A1E4CBFC3F10103B4
:109C480000230A9245BF0693002306930A93002F28
:109C58003BDB0A9B0F973B440A9300230B93209B03
:109C6800092B00F28980052BC5BF043B0024012481
:109C78002093209B023B032B00F28980DFE803F04E
:109C88002D3A3859DDE914631E4406F23243202B7D
:109C9800C9BFC3F14003C3F120039F4006F212433A
:109CA800D8BF04FA03F006F1FF36C4BF24FA03F361
:109CB80047EA0300FEF786FB0122A1F1F87313922D
:109CC80074E70123B5E71290B4E7069BDB1B069304
:109CD8007B420B9300230F93C1E700230E93219B34
:109CE800002B57DC012399461A46099321920CE070
:109CF8000123F3E700230E93219BFB1803F10109CD
:109D080009934B46012BB8BF0123DBF8240000213F
:109D1800042202F114059D4240D9416058460DF0D5
:109D28001BF9089000283CD1124B02464FF4D5711C
:109D3800CAE60123DFE700BF61436F63A787D23F0D
:109D4800B3C8608B288AC63FFB799F501344D33F22
:109D5800380102004F0102000000F07F34010200C8
:109D68002B0102006BFC01006AFC01000000F83FB7
:109D780008DF0100A9010200012400230E942093AA
:109D88004FF0FF330022994609931223AEE70123CF
:109D98000E93F5E7219B99460993B6E701315200E6
:109DA800B7E7DBF82430B9F10E0F089A1A606FD8BC
:109DB800002C6DD0002F36DD07F00F02A04BF80500
:109DC80003EBC203D3E90034CDE910344FEA27147A
:109DD80017D59C4B04F00F044FF00308D3E9082370
:109DE800DDE90C01FEF792FCCDE90401954D5CB963
:109DF800DDE91023DDE90401FEF788FCCDE9040163
:109E08002BE04FF00208F1E7E10709D508F1010856
:109E1800DDE91001D5E90023FEF74EFBCDE910017D
:109E280064100835E3E700F007817C42844B854DD8
:109E38004FF0020804F00F02241103EBC203DDE91E
:109E48000C01D3E90023FEF737FB0023CDE9040119
:109E5800002C40F0E580002BD0D1129BDDE90445B1
:109E6800002B00F04C810022774B20462946FEF754
:109E780095FD002800F04381B9F1000F00F03F8103
:109E8800099B002B00F3E480DDE90C34CDE90434B0
:109E9800159B002B02DB0E2F40F342820E9A002AFC
:109EA80040F067820B9C0025DDF81880B8F1000FA0
:109EB8000DD00A9B002B0ADD4345069AA8BF4346EE
:109EC800D21AA8EB030806920A9AD31A0A930B9B94
:109ED8000BB30E9B002B00F0A682002C00F0A18291
:109EE8002946224658460DF0EBF9039A01460546E5
:109EF80058460DF03BF90399064658460DF06CF8A4
:109F08000B9B1B1B0B9300F091820B9A3146584612
:109F18000DF0D6F90390012158460DF011F90F9B69
:109F28000446002B00F084821A46014658460DF07C
:109F3800C7F9209B0446012B03DC049B002B00F08F
:109F48007C820026236904EB8303186913F0E7FA7F
:109F5800C0F120000F960A9B184410F01F0000F073
:109F68009182C0F12003042B40F38182C0F11C00D0
:109F7800069B0344804406930A9B03440A93069B6A
:109F8800002B05DD1A46039958460DF0F3F90390A6
:109F98000A9B002B05DD21461A4658460DF0EAF9C2
:109FA8000446129B002B00F076822146039813F09A
:109FB80005FB002880F26F8200230A220399584685
:109FC8000DF02CF80E9B7E1E0390002B00F05C8297
:109FD800002329460A2258460DF020F8099B054619
:109FE800002B03DC209B022B00F35E82B8F1000FEC
:109FF80005DD2946424658460DF0BCF905460F9B3B
:10A00800002B00F0D082696858460CF0A5FF07467F
:10A01800002840F07F820D4B024640F2EA2153E5CA
:10A02800E20706D508F10108D5E90023FEF744FA4E
:10A038000123641008350BE74FF002080DE700BF55
:10A0480008DF0100E0DE01000000F03FA901020086
:10A0580020460022AC4B2946FEF72EFA7E1E08F158
:10A068000108099CCDE904014046FEF7BBF9DDE98A
:10A078000423FEF721FAA54B0022FEF767F8A1F1A9
:10A088005073CDE910011193002C3BD10022A04B55
:10A09800DDE90401FEF758F802460B46CDE9042332
:10A0A800DDE91023FEF798FC002840F05781DDE930
:10A0B800102101F10043DDE90401FEF76FFC0028DF
:10A0C8003FF4E2AE00242546219BDDF820A0DE43C4
:10A0D8004FF00008214658460CF07EFF002D00F096
:10A0E800A980B8F1000F05D0A84503D041465846CD
:10A0F8000CF072FF294658460CF06EFF9AE03E4677
:10A108004C46B1E7834B03EBC40353E90201089BB8
:10A118001C440E9B002B4AD002460B4600207E4969
:10A12800FEF7F4FADDE91023FEF70EF8DDF820A0BB
:10A13800CDE91001DDE90401FEF76EFC0546FEF7E6
:10A1480051F9024630350B46DDE90401FDF7FCFF05
:10A158000AF8015B02460B46CDE90401DDE910016E
:10A16800FEF73AFC002865D100206C49DDE904239C
:10A17800FDF7EAFF02460B46DDE91001FEF72CFC6D
:10A18800002840F00D81A24500F0EA8000225E4BD5
:10A19800DDE91001FEF790F900225B4BCDE91001D3
:10A1A800DDE90401FEF788F9CDE90401C2E7DDE93C
:10A1B8001023FEF781F9A046DDF820A0CDE91001B3
:10A1C800DDE90401FEF728FC0546FEF70BF9024617
:10A1D80030350B46DDE90401FDF7B6FF0AF8015BEF
:10A1E80002460B46A245CDE904234FF0000223D1D5
:10A1F800494BDDE91001FDF7A9FF02460B46DDE9F1
:10A208000401FEF7E9FB002840F0CA80002042491B
:10A21800DDE91023FDF798FF02460B46DDE904014E
:10A22800FEF7BCFB70B1C24608F1FF381AF8013CD2
:10A23800302BF8D0374655E0334BFEF73DF9CDE9E2
:10A248000401BDE7DDE90C34CDE90434159B002B8E
:10A25800FFF628AE0E2F3FF725AE2E4B03EBC703B4
:10A26800D3E90034CDE90634219B002B02DAB9F199
:10A27800000F64D0DDF820A0DDE90445DDE9062300
:10A2880020462946FEF742FAFEF7C6FB0646FEF7C9
:10A29800A9F8DDE90623FEF70FF90246204606F184
:10A2A80030040B462946FDF74FFF0AF8014B089C7E
:10A2B80002460B46AAEB0404A14540F08280FDF754
:10A2C80045FF04460D46DDE90623FEF785FB002819
:10A2D80065D120462946DDE90623FEF755FB08B17E
:10A2E800F3075CD4039958460CF076FE0023013737
:10A2F8008AF80030229B1F60249B002B3FF41CAC83
:10A30800C3F800A018E400BF0000244000001C406F
:10A318000000144008DF01000000E03F0000F03FAB
:10A32800A24B03EBC703D3E90034CDE90634219BE4
:10A33800002B9FDAB9F1000F9CDC7FF4C3AE00223A
:10A348009B4BDDE90601FEF7B7F8DDE90423FEF7CC
:10A3580039FB044600287FF4B5AE3E462546B4E0F6
:10A36800DDE90C34CDE90434159B002B01DB0E2FFD
:10A37800D6DD209A012A36DC139A82B303F23343DE
:10A388000B9CDDF81880069A012158461A4406925B
:10A398000A9A1A440A920CF0D3FE054686E53E4610
:10A3A80053469A4613F8012D392A06D1089A9A423B
:10A3B800F7D13022089901360A701A7801321A70DA
:10A3C80038E700227B4BFEF777F80022002304468B
:10A3D8000D46FEF7D9FA00283FF450AF82E7149BE8
:10A3E800C3F13603CCE709F1FF340B9BA34208DB2A
:10A3F800B9F1000FA3EB04040EDBDDF818804B461F
:10A40800C1E70B9B0F9AE31A0B94DDF81880002420
:10A418001A444B460F92B6E7069BA3EB09080023A4
:10A42800B1E7039E71E50B9A039970E5039672E50F
:10A43800209B012B17DC049BABB9059BC3F31303CB
:10A448009BB9059B23F00046360D360536B1069BB1
:10A458000126013306930A9B01330A930F9B002BB5
:10A468007FF470AD0F96012075E50026F6E73FF4FE
:10A4780086AD1C33069A1A44984406920A9A1A44DE
:10A488000A927CE50346F4E7099B002B2BDC209B12
:10A49800022B09DC27E0B9F1000F1DDC209B022B01
:10A4A8001ADD3E46CDF82490099B002B7FF40CAEB4
:10A4B8002146052258460CF0B1FD01460446039892
:10A4C80013F07CF800287FF7FFADDDF820A03123DA
:10A4D80001360AF8013BFBE50E9B3E46CDF8249079
:10A4E800002B7FF483AD089F2146039812F05EFD90
:10A4F800089B00F13009099A07F8019BFB1A9A4258
:10A5080040F3CB8000230A22039958460CF086FDBD
:10A518000390E9E72A6905F10C010C300232920038
:10A5280012F04AFB0122394658460CF023FF089BDB
:10A53800A846054603F1010ADDE9082313440A93F6
:10A54800049B03F001030B930AF1FF3321460398A0
:10A55800069312F02BFD4146099000F1300903984B
:10A5680013F02CF82A462146074658460CF06EFF91
:10A57800C268014602B358460CF02EFD002F3ADAA5
:10A588000122039958460CF0F5FE2146039013F07A
:10A5980015F8002803DC29D119F0010F26D0B9F1EC
:10A5A800390F1DD132E02846C1E700BF08DF01009E
:10A5B80000001440000024400E90039812F0FEFFA3
:10A5C8000E990C9058460CF007FD0C9A5ABB209B2C
:10A5D80053B90B9B43B9B9F1390F17D0002F05DDDB
:10A5E800099B03F1310901E0002F2ADADDF818A0F0
:10A5F8000AF8019B6EE5209B3B4304D1049B03F0C2
:10A608000103002BBCD0B9F1390F36D1069F39238D
:10A6180007F8013BBA46013F1AF8013C392B5AD0DA
:10A6280001333B7056E5002F06DB209B3B4306D1E8
:10A63800049B03F0010313B9002AA1DCD6E7002A22
:10A64800E1DC0A9B57460AF8019C53452ED00023AB
:10A658000A22039958460CF0E1FCA84503904FF0F4
:10A6680000034FF00A02414658460BD10CF0D6FCC5
:10A67800804605460AF1010A66E7DDF818A009F1E7
:10A688000109B5E70CF0CAFC2946804600230A22D6
:10A6980058460CF0C3FC0546ECE7099B4FF0000850
:10A6A800002BCCBF1F460127089B1F44012203999A
:10A6B80058460CF05FFE2146039012F07FFF0028F9
:10A6C800A8DC02D119F0010FA4D1BA4617F8013D50
:10A6D800302BFAD0FEE4089BBB429BD13123089A69
:10A6E80001361370F6E4249B002B7FF420AA014B5B
:10A6F800FFF73FBA2B010200F8B502F1080323F077
:10A70800070300AFADEB030D05466846144612F08B
:10A7180053FA00236E460DF804308AB06A46084999
:10A72800D661C2E9051507491162074942F8101FA9
:10A738004FF42351054802F0D9F9BD46F8BD00BFD2
:10A7480066E60100000201030400000280DD01004A
:10A758002DE9F04389B00B7806460C4602AF092B69
:10A7680000F2D680DFE813F00A0040004400C00081
:10A77800D400D400D400C700D400CE00CD6935B1D0
:10A788002B46644A012164480DF0F3FB28E00321BD
:10A79800624A61480EF081FB614B07F10C0493E8B3
:10A7A8000700604B84E807007C606C468AB0BB6099
:10A7B80002AA5D4B53615D4B93612123D3614FF432
:10A7C800007313845A4B42F8103F4FF41351524808
:10A7D8002B4602F08BF93046A546391D0FF08BFB4E
:10A7E8001C37BD46BDE8F083CB69524A0321CAE74E
:10A7F8004A69CB690321009247484F4A0EF060FB33
:10A80800D4F81480B8F1800F12D9DFF83091494696
:10A818003046A8F180020FF004FC051E27D028DB83
:10A82800A8EB0508B8F1800FF1D86FF0790901E0BD
:10A838004FF000094246304640490FF0F5FB054607
:10A84800B8B9237B012B06D1238B3046BB8107F196
:10A858000C010FF002FBB9F1000F16D063698022DA
:10A86800012100922C48364A0EF02AFBB8E76FF017
:10A878000405237B012B06D1238B3046BB8107F1CE
:10A888000C010FF0EAFA002D17DB62692B492D48FD
:10A89800FFF732FF06222C49284812F0F0FA10B9C7
:10A8A80010F00DF89CE707222849244812F0E7FA2F
:10A8B800002895D110F006F892E715F17A0FCDD05F
:10A8C8002B460121224A14480DF053FB0321214A4B
:10A8D80011480EF0E2FA30460FF0E5FA0346002878
:10A8E8003FF47EAF1C4A4DE7CB690BB11B4A49E7E1
:10A8F8008B881B4A7AE7CB690BB11A4A42E78B88E7
:10A90800194A73E7CB69002B3FF46AAF174A39E756
:10A91800174A6BE76BE6010080DD010083E6010062
:10A9280060DE01000100D20499E60100B3E60100EF
:10A9380004000001D5E60100F2E6010010E5002060
:10A9480010E701005FE701006AE7010071E7010015
:10A9580079E7010099E70100B6E70100CFE70100B8
:10A96800E5E70100FAE7010010E8010025E8010029
:10A978003DE801002DE9F0434FF0210889B0DFF8E8
:10A98800749000AF064614461D46C7E9052339747E
:10A99800C7F80890C7F80C800421781803F08AFAE1
:10A9A8007B682A46BB83BB7F214623F003031248FA
:10A9B8006C46BB77FFF7A0FE8AB06A460F4BC2F819
:10A9C8001C80C2E905394FF4007313840C4B42F81C
:10A9D800103F00234FF413510A4802F087F807F19B
:10A9E8000801A54630460FF0F4F92437BD46BDE806
:10A9F800F08300BFB3E601005BE8010068E80100EE
:10AA08000400000180DD01002DE9F04F01269DB012
:10AA180002AF07F1140804460FF082F9542200210E
:10AA2800404612F0D6F83B4642460021C7E9076681
:10AA380045480EF092FB054688B103463146434A25
:10AA480043480DF096FA434A314641480EF025FA3C
:10AA58006FF0090528466C37BD46BDE8F08F4FF00A
:10AA6800080A3E68DFF8F09039482EB3B369082B1E
:10AA78004AD1F36939495B6801204B6045F60733D1
:10AA88003E1D4B8008801023324604310EF061FBD6
:10AA9800E94688B002AB324AC3E905264FF4007292
:10AAA8009A831A462F4B42F8103F00234FF4E65181
:10AAB800274802F01BF8CD4638680EF04CFB274BB0
:10AAC80017216363284B4046A364284A07F040FED9
:10AAD800034668B30121264A1D480DF04AFA254865
:10AAE800E062FEF773F8042284F85E20224A00230D
:10AAF800E26480222149C4E90E33C4E915122063B7
:10AB0800226584F82430A5E7EB468AB002AAC2E998
:10AB18000593182313620523C2F81CA042F8103FBE
:10AB280000234FF4215101F0E1FFDD4636689BE731
:10AB380087F823000F231421114ACDF800800D480F
:10AB48000BF0B2FACBE700BF7DE8010090E8010006
:10AB580080DD0100A7E80100E4E80100E0E400204E
:10AB6800CEE801000300000159A7000007E9010031
:10AB78000FE90100FCE4002010E6002090E5002029
:10AB880030E9010070B50446C8070D4610D5E10745
:10AB98000ED5062301210D4A0D48FFF7EBFE0346AB
:10ABA80030B1BDE8704003210A4A0B480DF001BAE4
:10ABB800AA070AD5A30708D507230121074A04488D
:10ABC800FFF7D8FE03460028EBD170BD6AE7010005
:10ABD80050DB002039E9010080DD010071E7010048
:10ABE800042101480DF0E7B92CDB0100024B1021CC
:10ABF80018680DF0E0B900BF80C50020024B0F2196
:10AC080018680DF0D8B900BF80C5002098B5037842
:10AC180000AF1BB1032B20D0BD4698BD037A012B92
:10AC280019D0052BF8D11A4B6C4688B06A461949D9
:10AC3800C2E905134FF400739383174B42F8103F92
:10AC480000234FF4E651154801F050FFA54614487B
:10AC580009F01CFAE0E7134BE6E7017A124A134BB6
:10AC68006C4688B0012908BF13466A461049C2E9F4
:10AC780005134FF400739383074B42F8103F0023EA
:10AC88004FF4E651054801F031FFA546C4E700BF7F
:10AC98006DE9010090E901000300000180DD010079
:10ACA8003CCD002054E9010081E901008BE9010055
:10ACB800B0E901002DE9F04786B005F0DFF920B1D1
:10ACC80001219A4A9A480DF072F90321994A984845
:10ACD8000DF06DF904F0AAFB034668B1964A01210C
:10ACE80093480DF066F90121944A91480DF05FF9F7
:10ACF800002006B0BDE8F0870321914A8C480DF08A
:10AD080056F9904805F044FC034608B18E4AE6E738
:10AD18004FF0FF334FF0FF328C4809F0DDF9032183
:10AD28008B4A83480DF043F901200FF0C8FD89488C
:10AD380005F0D4F920B10121874A7D480DF037F993
:10AD4800864D286811F00BFA18B985480DF06AFC91
:10AD5800CEE78448FFF758FE044630B10346824ADE
:10AD6800012173480DF025F9C2E74FF4B0120F2105
:10AD780028680DF026F94FF4B012102128680DF05C
:10AD880020F97A4F77480EF0E2FF034690B1784AEF
:10AD9800012167480DF00DF90134F3D03C2303215C
:10ADA800744A63480DF005F900214FF4F01009F0DA
:10ADB8007BFEE7E739466B480DF0DDF8064610B133
:10ADC80003466D4ACCE74FF4403202216B480DF040
:10ADD800F8F832466A496B4811F033FD32466A4941
:10ADE8006A4811F02EFD324669496A4811F029FD7A
:10ADF800DFF870A141F28832012138460EF09FF940
:10AE0800002814DA0EF097F9634A036801214848CC
:10AE18000DF0CFF80321614A45480DF0C8F85148B4
:10AE28000FF041F803460028B6D05D4AB0E7504617
:10AE38000FF0B1F8034620B110F10B0F01D0594AB9
:10AE4800E4E7FB88D90706D550460FF0C9F8034652
:10AE580008B1554ADAE7B7F906301A0705D5534A53
:10AE6800012133480DF0A3F8D4E79B0601D5504AD9
:10AE7800F6E7DFF80891D9F810300393D9F80830CD
:10AE880048465B6805A998470646002845D1039BB4
:10AE980005991B684748594001F00406C1F3800131
:10AEA8000DF0C0FB002E00F08D80434B1A78002A6D
:10AEB800A0D101220F2128681A700DF068F8021E2F
:10AEC80003DA0F213D480DF0ADFB0122102128685F
:10AED8000DF05DF8021E03DA102138480DF0A2FBD0
:10AEE800112200232748CDE900230AF063F842F233
:10AEF80067684FF00009254842464B46CDE900896E
:10AF08000AF058F8234842464B46CDE900890AF032
:10AF180051F82B480DF086FB6CE7014625480DF0EB
:10AF280081FB012E7FF466AFBFE700BFBDE90100DA
:10AF380080DD0100E2E90100FDE901008BEA010082
:10AF48002FEA010015AC000049EA01003CCD0020C1
:10AF580072EA01008DAB0000A9EA010080C500205B
:10AF6800D2EA010050DB0020EAEA010048DB0020B9
:10AF78002DEB01000FEB010047EB01002CDB01007A
:10AF880005AC000018CE0020E9AB000050CE002030
:10AF9800F5AB0000E0CD00205DEB010052EC0100B4
:10AFA8006CEC010071EB010088EB0100A0EB0100E3
:10AFB800A8EB0100B1EB010090E60020C2EB010014
:10AFC800E8EB01001A4B1A78002A3FF413AF324617
:10AFD8000F2128681E700CF0DAFF3246102128680D
:10AFE8000CF0D5FF3246042148460CF0D0FF32461B
:10AFF8000F2128680CF0CBFF021E03DD0F210D483E
:10B008000DF010FB0022102128680CF0C0FF021E72
:10B0180003DD102107480DF005FB074811F01DFC62
:10B02800064811F01AFC064811F017FC054871E7AC
:10B0380090E600200BEC010050CE002018CE002036
:10B04800E0CD002030EC01002DE9F04F91B00093E5
:10B0580002F004030293C2F3C203013384070546D6
:10B068000E46DDF868900392059340F0BB81041DFD
:10B0780030B1072909D86FF01B0011B0BDE8F08F77
:10B0880001F00706341DC6F10806009B4FF00008C2
:10B098004FF0040A591E4FF0FF3347460193C34649
:10B0A8005346CDF810800DB1009A2260059800280B
:10B0B80000F3E8809848009A824203D39748824276
:10B0C800C0F0E080039AA4EB050E92074FEA9E00B9
:10B0D80000F103810F2F00F2B180002D00F00581EF
:10B0E80007F140020DEB020C019A0CF8200C0CF849
:10B0F800102C049801300490E7E07A285DD84B289A
:10B108000ED8472859D829282DD8252852D054D8C0
:10B1180020287AD02338D0F1000B4BEB000B74E0D9
:10B128004C382E2849D8DFE800F07048484848488D
:10B138004848484848484B48484848484848485973
:10B14800484B4B595959704B6D487048184B184823
:10B1580048827F4B48484B487F0000204FF0000B47
:10B168004FF0040A38E001222A38C0B202FA00F08F
:10B1780010EA0E0F49D110F0625C2FD110EA020BD1
:10B1880043D06046013C5444B4FBFAF40AFB04F48F
:10B19800002D61D0A3EB050CA444B4453FF66BAF7A
:10B1A800002868D1042B47D159F8043B23600423B5
:10B1B80004342AE0019A013A01924FF0000B24E08E
:10B1C80011F8010C6C2834D1002011F8023C834698
:10B1D8006C2BC5D14FF0080A5346D3E709F107098C
:10B1E80029F00709073424F00704F9E802AB35B160
:10B1F80006982044B0423FF63EAFC4E900AB4FF09A
:10B20800000B08344FF0080A534611F8010F0028C4
:10B2180078D0BBF1000F7FF470AF2528F5D14FF03F
:10B22800010B019B013301934FF0040AECE75846E8
:10B2380094E700208346A5E7082B02D06FF015009D
:10B248001BE709F1070929F00709F9E80223C4E90E
:10B25800002308230834D8E768B9042B02D109F180
:10B268000409A4E7082BE9D109F1070929F007091E
:10B2780009F10809EDE7059A013A059259F8042BF6
:10B28800009210E7039A900720D54FF0010CA4EB29
:10B29800050E4FEA9E00BEF5007FCFD20F2FCDD806
:10B2A800F5B107F140020DEB020E019AC0B20EF89B
:10B2B800200C0EF8102CBCF1000F3FF41AAF60F010
:10B2C8007F000EF8200C08F101080137C5F10802CB
:10B2D8004FF6DA7E0434069297E74FF0000CDAE76F
:10B2E800BCF1000F01D00136EFE7029802360028C2
:10B2F800EBD10098CDE90631FDF768FCDDE90631B0
:10B308000644E2E7631BB3F5806F97D245B9A6F10F
:10B318000804E018B1E600BF4CDA0100B8020200E8
:10B32800029A9B0828602B709DF81030C2B1EB7010
:10B3380085F80280B8F1000F05D0002208A8C5F1F1
:10B34800010C97420ED14FF0000AC5F101030DF12F
:10B35800200901930DF1300B574512D1601B8CE683
:10B368006B70E5E710F8013B190608D504EB0C0EE5
:10B37800B64503F07F033FF67EAE04F8013B013289
:10B38800DFE7B8F1000F03D099F90020002A17DB96
:10B39800029BD3B11AF80B2004F8012B0022019B61
:10B3A80098182044B0423FF666AE99F8000000991C
:10B3B80004F8010B2046039211F0FEFB039A144493
:10B3C8000AF1010A09F10109C6E799F8002055F8C0
:10B3D80022300093029B009845F82230FDF7F6FBD7
:10B3E800421CDCE76FF00D0047E600BF2DE9F04F87
:10B3F80097B000AFD7F880B03B62CBF3C0030446E8
:10B40800894690F802A0FA62BB6141B94578007894
:10B418000AEB800020444D4517D8A0EB0409E378D7
:10B42800FB61BAF1000F02D01BF0010F16D1FB69C6
:10B4380053BBFB6A1BB1494620463A6A98474D46BA
:10B4480028465C37BD46BDE8F08F461C3046FDF700
:10B45800BDFB0130304409F10109DCE7626823785B
:10B468007A62FA6A9900796104EB8301002A40F054
:10B4780001810E464FF000084D4601EB0A094E4582
:10B488004CD101EB0A0610E01BF0020FD1D0237853
:10B498009A007A61626804EB83017A62FA6A002A88
:10B4A80077D14D46904601EB0A061BF0050F0CBFFD
:10B4B80002230123FB62FB6906EB430A0BF002033C
:10B4C800BB625645BCD016F8021B16F8013C54F86E
:10B4D8002390AF4B994502D3AE4B994536D3BB6900
:10B4E800002B40D0786A0DF064F800283BD0E9467C
:10B4F8008AB06A46A84B53617B6AC2E906314FF4A9
:10B5080000731384A54B42F8103F00234FF41251E7
:10B51800A34801F0EBFA023DCD46D2E716F8013B0D
:10B52800F96254F82300FDF751FBD7F88430F96A23
:10B5380001304BB1D7F8883098453EBFD7F88430F2
:10B5480023F8180008F10108054498E7BB6923B1FE
:10B55800786A0DF02EF80028C9D11BF0010F05D12B
:10B56800FB6AED1AADE7BB6A002BAAD04846FDF787
:10B578002DFBD7F8843053B1D7F8883098453FBFB2
:10B58800D7F88420431C22F8183008F10108054434
:10B5980097E7BAF1000F73D01BF0040673D0D046BA
:10B5A800002607F1480052463B61B96211F004FBDE
:10B5B800B96A3B6901EB0A02BA62FA69F969520091
:10B5C800FA60BA6A02EB41023A610BF00202BA6011
:10B5D8003A69B96A8A4258D162781BF0020F18BFDB
:10B5E80000217A6208BF4FEA5801B2181BF0010F18
:10B5F800D2B240F09F801BF0040F14BF40460020D9
:10B60800BB616270A070E17020463A6A7969FB6A92
:10B618009847051EFFF614AFBB69414623707B6A45
:10B628003A6A6370FB6984F802A0E37007F1480086
:10B63800FB6A9847B0F10008C0F2B4807B69A9EBB7
:10B648000A01C91AFB683A6AC91AD7E90A0398476E
:10B658000028C0F2A9804FF0000BA84408EB0005B1
:10B6680007F1380AB34567D300213A6A0846FB6AEE
:10B678009847E5E656464FF0000807F1380092E78C
:10B688005646D04696E7B04694E7BA6A12F8021BC7
:10B6980012F8015CBA6254F825003D4A904202D380
:10B6A8003C4A90421ED3BA6932B1786A7B600CF08A
:10B6B80080FF7B6800288BD1BA6802BB08F128029A
:10B6C80007F1300C08F10100944407F1580208F121
:10B6D800020852FA80F00CF8101C5FFA88F800F89B
:10B6E800105C75E7BA693AB1786A7B600CF061FF63
:10B6F8007B6800287FF46CAF1BF0010F09D006F1BE
:10B70800280207F13000711C161806F8205CCEB22A
:10B718005EE71BF0040F3FF45BAF08F1280207F166
:10B72800300008F1010102EB000808F8105C5FFA2C
:10B7380081F84DE7002063E71BF80A3054F823909E
:10B7480087F83730D7F88430FBB133F81B800121F4
:10B758003A6AFB6A07F137009847002824DB05445A
:10B76800B8F1000F06D14846FDF730FA00F101089C
:10B778001FFA88F8414648463A6AFB6A9847002803
:10B7880012DB05440BF1010B6CE7D7F88480DEE788
:10B798004CDA0100B8020200A3EC01000400000129
:10B7A80090DD010045464BE6054649E6014B186029
:10B7B800704700BF84C5002030B5002587B0CDE9AB
:10B7C80003010446009503A90548059500F038FAD9
:10B7D800DDE904309842B8BF255407B030BD00BF3A
:10B7E800098601000F2808B506D90DF0A4FC092325
:10B7F80003604FF0FF3008BD3022044B02FB0033DA
:10B80800D3E8AF3F002BF0D00020F4E790C500202C
:10B818000EB42DE9F741302545431B4C05F10C06C4
:10B8280026444FF0FF324FF0FF3304EB050807467C
:10B8380030460CF038FFD8F8043060590AAA40F2B4
:10B848000111DB6801929847051E10DBD8F82C30EF
:10B8580003F47042B2F5E04F05D011D803F4504319
:10B86800B3F5804F03D1302303FB0744A56230466C
:10B878000CF01BFF284603B0BDE8F04103B0704749
:10B88800B2F5004FEEE700BF88C5002030234343E0
:10B8980030B50D4908330B44D3E8AF2F92B1541E8D
:10B8A800D3E8EF5F954204D1C3E8EC4FBCF1000F39
:10B8B800F6D1F1D1012A05D13023584300230A18C3
:10B8C8000B50536030BD00BF88C5002070B50446DA
:10B8D8000E461546FFF786FF00280DDB302363432D
:10B8E800064AD1184968316015B10C3313442B60EE
:10B8F80030235C43105970BD0020FCE788C5002048
:10B9080070B500254FF0FF334FF0FF3217480CF0A9
:10B91800CAFE174BD3E8AF2F7AB10135102D03F1CA
:10B928003003F7D10DF007FC17234FF0FF35036004
:10B938000E480CF0BAFE284670BD30246C43D3E89C
:10B94800EF0F0130C3E8E10F0029F8D1094E331990
:10B9580032515A6004F10C00304410F0CCFC04F170
:10B968002000304410F0C9FDE2E700BFA8CC002059
:10B9780090C5002088C5002030B404463025104604
:10B988006C43084A151911516860EB6240B1C368ED
:10B9980033B10C34131940F2051230BC0CF074BEEC
:10B9A80030BC704788C500202DE9F84F0746894606
:10B9B8009246FFF717FF002836DB30257D431C4CE5
:10B9C80005F10C06264404EB05084FF0FF324FF052
:10B9D800FF3330460CF067FED8F804306059D3F8CE
:10B9E80000B052464946D8F82830D847051E12DD1F
:10B9F800D8F82C3003F47042B2F5E04F05D010D8D7
:10BA080003F45043B3F5804F05D1302303FB0744BB
:10BA1800A36A2B44A36230460CF047FE2846BDE8D3
:10BA2800F88FB2F5004FEFE74FF0FF35F6E700BFAC
:10BA380088C500202DE9F84F074689469246FFF74A
:10BA4800D1FE002836DB30257D431C4C05F10C0661
:10BA5800264404EB05084FF0FF324FF0FF33304621
:10BA68000CF021FED8F804306059D3F804B05246DF
:10BA78004946D8F82830D847051E12DDD8F82C30AA
:10BA880003F47042B2F5E04F05D010D803F45043E8
:10BA9800B3F5804F05D1302303FB0744A36A2B4439
:10BAA800A36230460CF001FE2846BDE8F88FB2F5D7
:10BAB800004FEFE74FF0FF35F6E700BF88C50020DD
:10BAC800F8B50546FFF78EFE00281ADB30246C43D4
:10BAD8000D4F04F10C063E444FF0FF324FF0FF3398
:10BAE80030460CF0E0FD3B195B6838599B68984775
:10BAF800044630460CF0D9FD2846FFF7C7FE20461D
:10BB0800F8BD4FF0FF34FAE788C5002070B5044649
:10BB18000D46FFF767FE00280DDB302303FB04F01A
:10BB280006492B460C184FF4837209586068BDE823
:10BB380070400CF0A9BD4FF0FF3070BD88C50020E3
:10BB480073B504460D461646FFF74CFE00280EDB7B
:10BB58003022084B40F2011102FB04339B6A2A464B
:10BB6800009320463346FFF753FE02B070BD4FF0F6
:10BB7800FF30FAE788C50020F0B5024601680A27B9
:10BB88000020074E0B461C780131355D6D0701D446
:10BB98001360F0BD07FB0043A3F13000F2E700BFDC
:10BBA800ABFF01002DE9F84F15469A46D378234A92
:10BBB8006F2B12F803B081460F460BF0030B2BD006
:10BBC80026D8582B0CBF10260A26DDF828803246C6
:10BBD800002348463946FCF7B7FF092A08F1FF3821
:10BBE800D4B21ED83034B145E4B277F1000788F8F2
:10BBF800004001D3D04511D82B789B0605D5082ED7
:10BC080015D1AB7843F00803AB704046BDE8F88F18
:10BC180003F0F703702BD5E70826D6E781460F46D1
:10BC2800D5E7BBF1010F0CBF37345734DBE7102ED3
:10BC3800EBD1AB7843F01003E6E700BFABFF0100A0
:10BC48002DE9F04F8A4616461C46002597B003900A
:10BC5800307808B9284655E325280AD05146039B71
:10BC680098470028C0F24E83731C01350493049E44
:10BC7800EEE71822002110A810F0ABFF7378252BEF
:10BC880000F0A380002398469E469C461846711CE7
:10BC98000F4611F8012B2B2A00F0C68000F2BD8058
:10BCA800202A00F0C480232A00F0C4802BB19DF81C
:10BCB800483043F040038DF84830B8F1000F05D004
:10BCC8009DF8483043F020038DF84830BEF1000F4E
:10BCD80005D09DF8483043F010038DF84830BCF18A
:10BCE800000F05D09DF8483043F008038DF8483020
:10BCF80028B19DF8483043F004038DF848309DF88A
:10BD0800483003F04401442903D16FF386138DF8BA
:10BD180048309DF848302A2A43F0800309978DF867
:10BD2800483040F08C809DF8493043F001038DF88D
:10BD380049307B1C1A782E2A0CBF012100219DF85E
:10BD4800492061F341028DF849200CD15A1C09920F
:10BD58005A782A2A40F083809DF84920023342F01D
:10BD680004028DF849201A786C2A00F0A48000F2A9
:10BD78008680682A00F08C806A2A00F0A5804C2A08
:10BD880000F0AA801A4612F8013B782B04928DF82D
:10BD98004B309DF8492000F217816D2B00F2A980E5
:10BDA800692B00F21181572B00F2BE80412B03D082
:10BDB800453B022B00F2088104229DF84A3062F3C9
:10BDC80002038DF84A300123CAE08DF84B30B31CCA
:10BDD80004939DF84930D90740F1FD8054F8048B4D
:10BDE800B8F1000F07DA9DF84820C8F1000842F0C2
:10BDF80004028DF848205A0740F1F68054F804BB35
:10BE0800BBF1000F80F2F5809DF849306FF34103D4
:10BE18008DF849304FF0FF3BEBE02D2A0DD0302A4A
:10BE28007FF444AF012333E74FF0010C30E74FF0C4
:10BE3800010E2DE74FF001082AE7012028E709A89D
:10BE4800FFF79AFE099BBB423FF474AF9DF8482068
:10BE58001390C00F60F341028DF848206AE709A8E3
:10BE6800FFF78AFE9DF848301490C3F3400242EA77
:10BE7800D07262F341038DF84830099B73E7742A46
:10BE880026D07A2A7FF47EAF06219DF849200CE05F
:10BE98005A78682A9DF8492006D1012161F3C60223
:10BEA8008DF8492002336DE7022161F3C6028DF84F
:10BEB8004920013366E75A786C2A9DF8492001D158
:10BEC8000421EBE70321F0E705219DF84920ECE781
:10BED80007219DF84920E8E7BDF8482022F4F04200
:10BEE80022F0020242F4804242F00202ADF84820F9
:10BEF800DFE76E3BD9B201238B4040F282410B420F
:10BF080038D113F0240F52D1DF075DD503219DF8F6
:10BF18004A3061F302038DF84A3002F07803A3F146
:10BF28004000434243411BE00120A3F15801C9B23C
:10BF380000FA01F111F4624F7FF43EAF40F60107B9
:10BF480039421DD111F4043F3ED09DF84A3060F3C8
:10BF5800020302F07802402A8DF84A3034D00023D8
:10BF68009DF84820C2F340010B4363F341028DF86A
:10BF780048202EE702219DF84A3061F30203E8E7E2
:10BF880002209DF84A1002F0780260F30201402A6C
:10BF98008DF84A1002BF9DF8481041F001018DF854
:10BFA8004810632BDBD1131E18BF0123D8E70321E8
:10BFB8009DF84A3012F0780F61F302038DF84A3089
:10BFC80014BF01230023CBE79DF8483043F0010359
:10BFD8008DF84830C3E79DF94820002AACBF4FF0E0
:10BFE800FF38DDF84C8006E79F077FF513AFDDF8D3
:10BFF80050B00023CDE913339DF84A309DF849101D
:10C0080003F00703012BC1F3C30132D1CB1E042B6C
:10C0180004D8DFE803F020454520200023680129E3
:10C028004FEAE372CDE910321BD19DF94030DA179F
:10C03800CDE9103204349DF8483013F003074FD08F
:10C0480032465146049B03980CF033FB0028C0F29B
:10C05800598105440BE654F8043BDA17CDE9103250
:10C06800E9E70229E6D11AB243F3C033CDE9102338
:10C07800E0E7022B24D1CB1E042B04D8DFE803F021
:10C0880018101018180001294FF0000254F8043B4A
:10C0980014D00229CDE91032CDD19BB21093CAE752
:10C0A800073424F00704F4E80223CDE91023C2E79B
:10C0B80054F8043B109300231193BCE7DBB2CDE79F
:10C0C800042B08D1073424F00704D4E900230834EA
:10C0D800CDE91023AFE7032BADD154F8043BDDE7DE
:10C0E8009DF84B0078283FF6C2AD62281ED8252857
:10C0F80050D058287FF4BBADDDE910010DF13E03A7
:10C10800009312AA0AABFFF74DFDBBF1000F814661
:10C1180080F2C180B9F1000F3FF4A9AD0DF13E06E0
:10C12800A6EB0903002F7BD0013379E0633815288B
:10C138003FF69DAD01A252F820F000BF17C20000E3
:10C1480075C2000077BC000077BC000077BC000017
:10C1580077BC000075C2000077BC000077BC000007
:10C1680077BC000077BC0000C1C2000099C2000083
:10C17800D5C1000077BC000077BC0000ADC100004D
:10C1880077BC000099C2000077BC000077BC0000B3
:10C1980099C200005146039B98470028C0F2B2801C
:10C1A800013564E5BBF1000FDDF840900ADB594624
:10C1B800484610F089FEB9F1000F3FF458AD09EB7D
:10C1C800000620E04846FCF701FDF8E71098002833
:10C1D80000F086800DF13E060AAB0021009612AAF7
:10C1E800FFF7E0FCBDF84A30BBF1000F03F0EF03A6
:10C1F80043F4F04343F010038146ADF84A3049DA7E
:10C2080000283FF434AD0027A6EB090308E0109B93
:10C2180000278DF8283001230DF129060DF1280992
:10C228009DF84A1011F0100206925FD00233139A5B
:10C23800134405924A0644BF14995B18B8F1000FDD
:10C248006DDDA8EB03089DF848305807C3F3800B51
:10C2580065D4590659D53FB151463846039B98478E
:10C2680000284FDB5F46013530234FE01E075ABFD9
:10C27800C3F300135F012B27DDE91023002BBFF662
:10C288003BAF524263EB43032D27CDE9102333E73D
:10C29800002731E700279DF848100DF13E03A3EB76
:10C2A80009036FF386119B458DF848107FF632AF6E
:10C2B800ABEB030313932DE7109B07293FF6D7AC8D
:10C2C800DFE801F00C04060C08080C0C1D70CEE425
:10C2D8001D80CCE4EA17C3E90052C8E41D60C6E437
:10C2E800304E07460523A6F1050999E7080748BF18
:10C2F80001339CE7184607935146039B984700284B
:10C30800079B04DA17B0BDE8F08F2023C3465946CF
:10C3180000290BF1FF3BEDDC4544D8466D1A37B1D7
:10C3280051463846039B98470028EBDB01359DF8BA
:10C338004A30DA0601D41B0706D551463020039B44
:10C3480098470028DEDB0135069B3BB151469DF836
:10C358004B00039B98470028D4DB0135059F2F44E9
:10C3680006E051463020039B98470028CADB013578
:10C378007B1B002BF5DC33464A46514603980CF0EC
:10C3880098F90028BEDB0544A844A8EB0503002B58
:10C398007FF76DAC51462020039B98470028B1DBFE
:10C3A8000135F2E75CED01002DE9F047058B044605
:10C3B8002807904611D4022905F0070540F0CC80E3
:10C3C80020460CF0EDFB78B10138218B042811D8F8
:10C3D800DFE800F0C2106D85950001290CBF45F01B
:10C3E800100545F02005258388F31188BFF36F8F6A
:10C3F800BDE8F08701F0070AAA4500F0A5800027EC
:10C40800B9463E46A368002B00F0BC8041F0080105
:10C41800218388F31188BFF36F8FA168002900F08A
:10C42800BA800D68002900F0B6803346524620468F
:10C43800D1F80480C047002D76D02B6829461D46C8
:10C44800F0E701F007035A1F012A1BD8002221F048
:10C458000701062B276889B2C4E9002209D13B46A7
:10C4680003E0628B013262831B68002BF9D141F033
:10C478000201204621830CF093FB00287AD041F07A
:10C48800200176E0042B0AD121F0070189B2204669
:10C4980021830CF085FB10B141F020012183218B11
:10C4A80001F0070AAA454FD00027B946AAE7236931
:10C4B80021F0070141F00601062DD3F800902183F1
:10C4C8002DD1B9F1000F3FD041F00801218388F345
:10C4D8001188BFF36F8F20463949C84729E021F0FA
:10C4E8000701236941F0040189B2042DD3F80490AF
:10C4F8002183E6D000274FF0040A3E4682E721F068
:10C508000701236941F0050189B2052DD3F8089088
:10C518002183D6D000274FF0050A3E4672E7002750
:10C528004FF0060A3E466DE72B4687E7B9F1000F44
:10C53800D1D1EFF31188202383F31288BFF36F8FD3
:10C54800238B23F008032383258BEA062ED525F0B9
:10C558001003238305F007056669218B002EBFF6BB
:10C5680070AF00232768C4E9003321F0070141F0C8
:10C5780001012183218B4FF0000901F0070AAA4528
:10C588007FF440AF002F9CD041F00801218388F34D
:10C598001188BFF36F8F002FC8D03D6839463346E6
:10C5A800524620460CF028FB2F46F4E7AB067FF5F1
:10C5B8001BAF25F02003238305F0070500E700BF24
:10C5C8002D8C01002DE9F047044607464FF001097C
:10C5D800DFF8508014B93846BDE8F08794FAA4F51E
:10C5E800B5FA85F509FA05F32E0108EB05156FEA8A
:10C5F800030A24EA03042B7B002BEBD058F80630FF
:10C608001B694BB94644736804222846196807EA2F
:10C618000A0700F057FADDE7284698470028D9D1DD
:10C62800F0E700BF48DE010030B5002289B00F49AD
:10C638000F4810F006F9002200230024CDE9062354
:10C648000E230C4DCDE903344FF440722846CDE952
:10C658000144094B0949009407F074FF084928462A
:10C668000FF055FF204609B030BD00BF8DC6000051
:10C6780028D3002088CE002079C9000070EB002064
:10C688005DED0100014807F001BD00BF24CD002089
:10C698002DE9F04780461F480F460CF07CFB064604
:10C6A800002830D000252846BDE8F087237B6BB1F1
:10C6B8002368DB680BB12046984723681B69D3B908
:10C6C800636804222046196800F0FCF9013610342A
:10C6D8004C45EBD3B8F1000FE5D0002DE2D0284649
:10C6E800FFF770FF0546002FF7D000214FF4A47024
:10C6F80008F0DAF9F1E7204698470028E0D00AFA6E
:10C7080006F31D43E2E705464FF0010A024CDFF845
:10C718000C90DDE7C8DB002048DE010058DE010090
:10C72800014B53F820007047F4DF010008B50346B9
:10C7380008462BB1044A136000F072FC002008BDC3
:10C748006FF01500FBE700BF88C8002010B5044C47
:10C75800237813B9034807F099FC0123237010BD0F
:10C7680091E6002024CD002010B5044609480CF0BD
:10C7780012FB3CB1084BD3E8EF1F0139C3E8E21FB5
:10C78800002AF8D1054810F068F8BDE810400448C0
:10C7980007F07CBCC0DB0020C4DB002028D30020CD
:10C7A80024CD002000200146034BD3E8EF0FC3E857
:10C7B800E21F002AF9D17047C0DB002070B5FFF7EF
:10C7C800F1FF0546074C084EB44200D370BD6368BC
:10C7D8005B792BB123685B6813B1294620469847DB
:10C7E8001034F1E748DE010058DE010010B5044CB2
:10C7F800044920460CF070F8034B1C6010BD00BFC4
:10C80800ECCB0020E0DF0100B8DB002008B50023F6
:10C81800074A4FF400411370064A07481360074A55
:10C828001360FFF783FFBDE80840FFF7DFBF00BFD5
:10C8380092E60020C0DB00209B8D0100C4DB0020B5
:10C8480001460022002301480CF067B8ECCB002019
:10C8580001480CF0FDB800BFECCB0020024B0146AC
:10C8680018680CF049B900BFB8DB002001480CF08B
:10C878007EB900BFECCB002070B5264B1878002895
:10C8880047D0FFF7E5FF054670B1234BD3E8EF1F0C
:10C898000139C3E8E21F002AF8D1204C204EB442E7
:10C8A8002DD32846FFF7DAFF1E4B1F4C1B68002BC1
:10C8B80019DD0FF07FFF4FF47A72A0FB020302FB31
:10C8C8000131C30B43EA4143D4E900209B1A40F2EB
:10C8D800E9324FEAD13161EB0001934271F1000175
:10C8E80001D3FFF76BFFD4E9003213F57A7342F1F5
:10C8F8000002C4E90032BDE87040FFF7B7BF6368C3
:10C908005B7923B12368294620461B689847103471
:10C91800C5E770BD91E60020C4DB002048DE0100B9
:10C9280058DE0100C0DB002020D3002070B50D4D7B
:10C93800297861B90120FFF7ABFE0B4C0B4EB442CE
:10C9480006D3FFF799FF0028FBD101232B7070BD98
:10C9580063685B791BB1236820469B68984710344D
:10C96800EDE700BF92E6002048DE010058DE010036
:10C9780000212DE9F0470846FFF78AFE044648B330
:10C9880040F267684FF0000908F0ACF81A4B1860DD
:10C9980030B11A4B1B68092B02DD194807F076FBEA
:10C9A8000025184FDFF858A044B12046FFF70AFECB
:10C9B800044618B94FF0FF384FF0FF39FFF75CFF16
:10C9C800064628B9B5B942464B46504607F084FB9F
:10C9D8003546E9E74FF0FF384FF0FF39D4E72B68C9
:10C9E8009B691BB100222846114698471035BD4265
:10C9F800F5D3E8E7044DFAE7BCDB0020C4DB0020F0
:10CA080024CD002058DE010048DE010013B5184887
:10CA18000CF0C1F9174B1B7873B1EFF31184202385
:10CA280083F31288BFF36F8FFFF726FF84F3118813
:10CA3800BFF36F8F02B010BD0F4B1B68002BF9D0EE
:10CA480050B9002200230D48CDE900234FF40042DD
:10CA5800002308F0AFFAEDE70928EBD107480FF0FB
:10CA6800FCFE074802B0BDE8104007F00FBB00BF4E
:10CA7800C4DB002092E60020BCDB002028D3002085
:10CA880024CD002010B5064B04461B689847214664
:10CA9800A06004480BF0BDFFBDE81040FFF7B6BF2B
:10CAA80088C80020ECCB0020044A054B9B1AB1EB48
:10CAB800D30F34BF52F831000020704780DD0100E9
:10CAC80048DE0100084B10B4C31A44681B11013337
:10CAD800237143689A7101224368196043685A7147
:10CAE80010BCFFF733BE00BF48DE01002DE9F04F50
:10CAF8008FB0C1F34A2804AF0D469146B8607B60F9
:10CB08000C0DB8F1000F63D000264FF0040B4FF066
:10CB18000A0A07F11403C7F80C80C7E907667E62A2
:10CB28000193CDF808B0CDF800A007F11C033246F8
:10CB38004846F968FEF75AFCB0F5006F03461CD367
:10CB48006C468AB0D9F8041004AB26481A46C3E9E3
:10CB5800050140F2FF71D9614FF400711984224B2D
:10CB680042F8103F4FF4125133462048FFF7BEFFFA
:10CB7800A5462C37BD46BDE8F08FC0F30A0804F17E
:10CB88001700184420F0070080083B60FFF758FEA4
:10CB980068F35325044690B13B6800F11001C7E9DA
:10CBA800083607F11403F961CDE900A3CDF808B000
:10CBB80048460F4AF96807F11C03FEF717FC68F3AB
:10CBC80053252A4620467B68B9680CF016F9D0E749
:10CBD80004F1170020F007008008FFF731FE044633
:10CBE800EDE700BF72ED010004000001B0DD0100B7
:10CBF800D78D01002DE9F04F87B00446DDE9105AC2
:10CC0800DDE91279934698460391BFB13B465246F7
:10CC180010210020CDF80090CDF81490FEF714FAFA
:10CC2800B0F5006F06460AD340F2FF730221174A97
:10CC3800174807B0BDE8F04F0CF038B93E4605F18B
:10CC48001700304420F007008008FFF7F9FD04F0D2
:10CC580007040BF0070BE40044EA8B1444EA46246B
:10CC680044EA0554054640B13FB13B465246314679
:10CC7800CDF800901030FEF7E7F9434622462846E3
:10CC8800039907B0BDE8F04F0CF0B7B8B1ED01005B
:10CC9800B0DD0100406820B1034BC01A40F3CF005B
:10CCA80070474FF0FF30704780DD01000EB403B5C8
:10CCB80003AB53F8042B0146044801930CF027F901
:10CCC80002B05DF804EB03B0704700BF258F010088
:10CCD800CA0605D48B064CBF02490349FFF7E6BFD5
:10CCE800704700BF9DFB01009CFB01002DE9F04F40
:10CCF80089B09A46149B9DF84CB00693159B044640
:10CD08000593169B0D469046179E0493BBF1000FA2
:10CD180000F09D8006F4807307930CF056F806F037
:10CD28000209024600283ED020469249FFF7BEFF7E
:10CD38000746B9F1000F08D016F0440F35D12A463E
:10CD480020468D49FFF7B2FF074406F0010353B1AF
:10CD58008A4B204653F82B20894B8A49002A08BF62
:10CD68001A46FFF7A3FF06F48073002B49D006F09C
:10CD78000803002B63D1B8F1000F66D04246204665
:10CD88008149FFF793FF0546069B3D44002B6DD173
:10CD9800049B002B73D1F30700F1E5803146204650
:10CDA800FFF796FFD9E00746C3E7784B18680028D5
:10CDB800CAD0774B4FF47A791B684FF46161B5FBA1
:10CDC800F3F5B5FBF0F300FB135509FB05F5B3FBD1
:10CDD800F1F2B5FBF0FE4FF03C0C01FB123100FB09
:10CDE8001E55B1FBFCF309FB05F5B5FBF0F50CFB93
:10CDF800131120460091CDE901E56649FFF756FF7A
:10CE0800A2E706F00803EBB1634B204653F82B204A
:10CE18006249FFF74BFF0546B8F1000F05D04246BF
:10CE280020465949FFF742FF0544BAF1000FABD03D
:10CE3800524620465A49FFF739FF0544A4E74FF008
:10CE4800000AE1E706F00805E6E745469CE7BAF17F
:10CE5800010F069B06D1002B65D1049B002B7CD0CB
:10CE680000250CE0002BF8D04E485DE04E48069BAC
:10CE780022464E490BF06CFB049B002B69D0DFF86F
:10CE88003081DFF83091049F3146102F204628BFAB
:10CE980010274FF0000AFFF71BFF554546DC059B9E
:10CEA800494620461A78FFF701FF4FF0010A1AF0A9
:10CEB800070F03D141462046FFF7F8FE57453CD9F6
:10CEC800059B4946204613F80A20FFF7EFFE0AF1B2
:10CED800010ABAF1100FEAD14FF0000A204636498C
:10CEE800FFF7E4FE5246059B20469A5C334B995C5B
:10CEF80011F0970F08BF2E223149FFF7D7FE0AF12C
:10CF0800010ABAF1100F1DD01AF0070F03D14146DC
:10CF18002046FFF7CBFE57455246E4D84146204607
:10CF2800FFF7C4FEEBE720485D46A0E741462046F0
:10CF3800FFF7BCFE0AF1010AAFE720462149FFF7D7
:10CF4800B5FEC4E7059B3B440593049BDB1B049398
:10CF580099D1BBF1000F7FF41EAF204609B0BDE8A0
:10CF6800F04F0BF0C7BF2046054A0649FFF79EFE63
:10CF780014E700BFEEED0100F2ED010004E001004E
:10CF8800E9ED010059F8010017EE0100D0DB00209F
:10CF9800CCDB0020FBED010018E001001BEE0100D6
:10CFA80021EE0100538F0100258F0100178F01002A
:10CFB8002EEE010026EE010030EE0100ABFF01006D
:10CFC80039FC01002CEE010042F20F7373B58B425D
:10CFD80028BF0B4605680446052168460D4A0BF034
:10CFE8002EFB0646636828460B225B680A490BF04D
:10CFF80073FF63683246694628465B680BF06CFF2E
:10D0080063681B2228465B6804490BF065FF02B081
:10D0180070BD00BF51E901004EEE010032EE010083
:10D0280000210123064A904206D8064A01B9012385
:10D038001360054B18607047012140085B00F2E758
:10D0480040420F00CCDB0020D0DB0020F8B50D46B5
:10D058000446064F4618B44201D12846F8BD14F8D4
:10D06800011BBB6801485B689847F4E754DB010083
:10D07800014B03600020704760E0010008B50448D8
:10D088000BF0D0FABDE8084002480BF0CBBA00BF5D
:10D0980094EE0100C9EE01002DE9F04706460C4662
:10D0A80000AF002936D0D1E90012E9468AB06D46B2
:10D0B800A3684FF0050AA8461F48C5E90723C5E934
:10D0C800050148F810AF002342464FF421511B4890
:10D0D800FFF70CFDD4E90312CD466369AD46184845
:10D0E800C5E90723C5E90501C5F810A00023424694
:10D0F8004FF421511148FFF7F9FCCD46E3690121AE
:10D10800104A0E480BF0D2FEA36901210E4A0B48C3
:10D118000BF0CCFE012E07D1EFF305830B4A314605
:10D128000648103B0BF0C2FE2146304606F006FDCD
:10D13800BD46BDE8F08700BFF7EE0100F8DD01004D
:10D1480026EF010055EF010064EF010092EF0100A6
:10D1580030BFFFF7FDBF00BF074A936893F90E1071
:10D16800002907DB526993421FBF044A536843F002
:10D1780080535360704700BF9CE4002000ED00E03E
:10D1880070B52A4C06460D4629482A490BF064FF1B
:10D19800A36ADB0647D5264827490BF05DFF112017
:10D1A800A36A1C0704D5224824490BF055FF122016
:10D1B8001E4CA36A990712D521491D480BF04CFF54
:10D1C800636BA26A120609D501211E4A18480BF0A2
:10D1D8006DFE1EB1A36A23F08003A3621320134CD3
:10D1E800A36ADE0704D5124817490BF035FF14204F
:10D1F800A36A9C0604D50E4814490BF02DFF152090
:10D208000A4B9A6AD10658BF9A6A9A6A920642BF2E
:10D218005A6A22F400525A629A6A42F0FF029A62EB
:10D2280000232B7070BD1020BAE700BF00ED00E0AE
:10D23800F8DD0100A5EF0100BBEF0100EEEF0100F2
:10D2480001F0010019F001002FF001004EF001007B
:10D2580010B5244C244925480BF0FEFEA36A990119
:10D268003ED5224822490BF0F7FE1E20A36ADA01B8
:10D2780004D51E481F490BF0EFFE1F20194CA36A66
:10D28800DB0204D519481C490BF0E6FE0220A36A0C
:10D298001C0304D5154819490BF0DEFE2120114C5A
:10D2A800A36A590304D5114815490BF0D5FE22206D
:10D2B800A36A9A0304D50D4812490BF0CDFE23202A
:10D2C800084CA36ADB0304D508480F490BF0C4FED9
:10D2D8002420A36A6FEA03436FEA1343A36210BDD5
:10D2E8001D20C3E700ED00E07DF00100F8DD01003E
:10D2F80095F00100A8F00100C2F00100ECF0010077
:10D308000AF101002FF1010049F1010070B5294C23
:10D3180006460D46284829490BF09EFEA36AD90403
:10D328003CD5254826490BF097FE1720A36A1A0515
:10D3380004D5214823490BF08FFE18201D4CA36A01
:10D348009B0512D51C4820490BF086FEA36BA26AE8
:10D35800100409D501211D4A17480BF0A7FD1EB17D
:10D36800A36A23F40043A3621920124CA36A590547
:10D3780004D5114816490BF06FFE1A20A36ADA0586
:10D388000ED50D4813490BF067FE1B20094A936A16
:10D3980043F47F43936200232B7070BD1620C5E7CA
:10D3A800A36A9B04F2D504480B490BF055FE1C20D8
:10D3B800ECE700BF00ED00E0F8DD010074F10100CA
:10D3C8008AF10100EEEF01009BF10100B4F10100C8
:10D3D800C9F10100E4F101004EF001002DE9F04728
:10D3E8008AB0694B0446D3F804A08946164600253E
:10D3F80000AFCAF3080885F31188BFF36F8F02F0F6
:10D408007F43B3F17F4F1ED1D3071CD4500603D4FA
:10D41800110708D4012508E05C495D480BF01CFEA3
:10D4280016F0040600D04C4600250023FB71A8F135
:10D438000303092B00F28680DFE803F0077C7F797D
:10D448008484848484822C46EFE7524950480BF048
:10D4580003FE00234C4EFB71F36A9A0705D54E492B
:10D468004B480BF0F9FD002329E0F36A002B01DAA1
:10D478004A49F5E7F36A5B00F5D5494944480BF09A
:10D48800EBFD7369A26943F480737361BFF34F8F37
:10D49800BFF36F8F736932F8022C23F480737361C2
:10D4A800BFF34F8FBFF36F8F4DF602739A4228D1A7
:10D4B800236801213B4A36480BF0F8FC2368FA79C7
:10D4C800DAB907F1080604F1200C324620686168D1
:10D4D800083403C264451646F7D17A6A002D4ED047
:10D4E800C2F3080121B96FEA52226FEA42227A6236
:10D4F800184607F10801FFF7CFFD2837BD46BDE8FC
:10D50800F087B36ADBB22BB10120F91DFFF738FEB3
:10D518000346D4E7B36A13F47F4F04D00120F91D02
:10D52800FFF7F4FEF4E7B36AB3F5803F9BD3FFF748
:10D538008FFEEDE70020F91DE8E70020F91DEFE771
:10D5480019498DE7194A6E461AF4F87F8AB0184BC4
:10D5580018BF13466A461749C2E90513A8F1100314
:10D56800D3614FF400731384134B42F8103F002328
:10D578004FF411510648FFF7B9FAB54673E722F49C
:10D58800FF7222F00102B2E700ED00E02AF201008A
:10D59800F8DD01004DF2010064F2010085F201009E
:10D5A80093F20100B2F20100CEF2010011F2010083
:10D5B800FCF10100F2F2010004000001064B5A6977
:10D5C80042F010025A615A6942F480625A615A69FB
:10D5D80022F008025A61704700ED00E0EFF308807E
:10D5E800EFF3098101B57246FFF7F8FE01BD00BFF0
:10D5F800002080F31488BFF36F8F002080F30A881F
:10D6080080F30B880DF0E4FB00200E490860BFF39F
:10D618004F8F0D4880F3088800F02CF8202080F305
:10D6280011880A484FF40061401880F30988EFF325
:10D6380014800221084380F31488BFF36F8F00F031
:10D648000DF9000094ED00E0B00C012070F300200B
:10D65800002318460649D1F89020C2F307229342C6
:10D6680000DB7047C1F89830C1F8A0000133F6E735
:10D6780000ED00E010B572B6002484F31388FFF7BC
:10D68800E7FF23464FF0FF300C4A03F12001013336
:10D69800102B42F82100F8D100234FF0FF30074A41
:10D6A80003F160010133102B42F82100F8D162B672
:10D6B800BFF34F8FBFF36F8F10BD00BF00E100E0D5
:10D6C800084B9B6883420BD1EFF3058343B1064BAC
:10D6D8005A6842F080525A605A6A22F400425A62EA
:10D6E8000FF00AB89CE4002000ED00E06FF00A019A
:10D6F800094A9368C3F890100849C3F88C004B682E
:10D7080043F080534B60002383F31188BFF36F8F7E
:10D718009368D3F8900070479CE4002000ED00E087
:10D728000F4A936883F89500EFF31183202383F35E
:10D738001288BFF36F8F4FF00061536920F0FF002C
:10D748009360084A5160002193F895201043D3F85C
:10D758008C20C3F88C1082F31188BFF36F8F704749
:10D768009CE4002000ED00E010498A6882F895E00A
:10D778004FF030001044EFF3098C80E8F01F744636
:10D788007046FFF7CDFFA64608498A68864602F12B
:10D79800300090E8F01F8CF3098802F1000004B50E
:10D7A8000BF064FCBDE80440704700009CE40020D6
:10D7B8001EF0040F0CBFEFF30880EFF309808169B6
:10D7C80011F8021C0229FFD001B50BF03AFC01BD8B
:10D7D80040B2002807DB01234109034A00F01F007B
:10D7E800834042F82130704700E100E040B2002851
:10D7F8000CDB01220649430900F01F008240203358
:10D8080041F82320BFF34F8FBFF36F8F704700BFDE
:10D8180000E100E0054B420953F82220012300F003
:10D828001F0003FA00F01040704700BF00E100E05D
:10D8380040B2002801F10101ACBF00F16040064B85
:10D848004FEA4111C9B2ABBF00F5614000F00F00CB
:10D8580080F800131954704714ED00E00B4A08B51E
:10D868000B4B22F07F029A60BFF34F8FBFF36F8F8D
:10D87800D3F8882022F47002C3F8882006F04AFA08
:10D8880007F0CEF900F04AF806F084FA00800000AC
:10D8980000ED00E042F8203C009B0D4942F81C3C9A
:10D8A800019B21F0010142F8183C029B42F8081C38
:10D8B80042F8143C4FF0807342F8043C0023C0F84F
:10D8C8008C304FF43C43203A0265C0F894307047DE
:10D8D8006186010000B50B4B0E4698601546836EB5
:10D8E80083F30B882C4686F309884FF00000064B1B
:10D8F800984720464FF000014FF000024FF0000318
:10D90800024C20479CE400207D90010061860100C4
:10D918001022014B1A61704700ED00E0002320211E
:10D928000348C2180133412B82F80013F9D170471C
:10D9380000E100E008B5EFF30583064A103B02EB6F
:10D94800C30152F8330049688847BDE80840FFF72B
:10D9580003BC00BF68DB01001FB5094C094A234618
:10D968000121094800F012F900230393074B012114
:10D97800E41A01A80193029400F012F904B010BD52
:10D988000000042080C5002060E00100E0CD0020F8
:10D9980010B50C7A0B6804F01F0223F01F031A431A
:10D9A800CB68640923F01F03054943EA440343F0A5
:10D9B8000103C1F89800C1F89C20C1F8A03010BD3F
:10D9C80000ED00E010B50A4BD3F89030C3F30723FD
:10D9D800013B984208D901210346064A06480BF044
:10D9E80065FA6FF0150010BDFFF7D2FFFBE700BF27
:10D9F80000ED00E009F30100D8DD01002DE9F04F4A
:10DA08008946144606464FF00008514D85B0C84572
:10DA180027DAD6F804A0BAF1000F44D0BAF11F0FE4
:10DA280017D91AF01F0F14D1D6F800B01BF01F0F2A
:10DA38000FD158460BF041FB07460AEB0B000138A3
:10DA48000BF03BFB874210D06FF01507414A3B466D
:10DA580001E04346404A012140480BF027FA6FF0A5
:10DA68001504204605B0BDE8F08F17F1160FEDD06C
:10DA7800BC42EBDDC5F89870D5F89C10C5F89870D5
:10DA8800D5F8A03021F01F0143F01F0BD6E9003272
:10DA98001A44994202F1FF3A1DD1D34507D13146C4
:10DAA800F8B20BF013FB08F101080C36AFE731466A
:10DAB800C5F89870D5F89C3022F01F0203F01F03B8
:10DAC8001343C5F89C30E0B20BF000FB10F1160FC1
:10DAD800C5D0441CE7E7C5F89870D5F8A020013BED
